:100000000C945D000C9485000C9485000C94850084
:100010000C9485000C9485000C9485000C9485004C
:100020000C9485000C9485000C9485000C9485003C
:100030000C9485000C9485000C9485000C9485002C
:100040000C94BA000C9485000C943A030C9476033B
:100050000C9485000C9485000C9485000C9485000C
:100060000C9485000C94850000000007000201003C
:100070000003040600000000000000000102040864
:100080001020408001020408102001020408102002
:10009000040404040404040402020202020203032E
:1000A0000303030300000000250028002B000000CC
:1000B0000000240027002A00310411241FBECFEFC6
:1000C000D8E0DEBFCDBF11E0A0E0B1E0ECE5F9E0A3
:1000D00002C005900D92A832B107D9F711E0A8E24D
:1000E000B1E001C01D92A83DB107E1F710E0CAEBF5
:1000F000D0E004C02297FE010E94A804C83BD107AB
:10010000C9F70E9491020C9481040C94000061E0F4
:10011000809100010E94B90140E855E260E070E082
:1001200081E391E00C94B103CF93DF93C0E0D1E081
:1001300061E088810E94F10162E071E081E391E079
:100140000E947D0268EE73E080E090E00E942E0144
:1001500060E088810E94F1016CE071E081E391E050
:100160000E947D0268EE73E080E090E0DF91CF9125
:100170000C942E011F920F920FB60F9211242F9301
:100180003F938F939F93AF93BF938091280190915A
:100190002901A0912A01B0912B0130913001232F28
:1001A0002D5F2D3720F40196A11DB11D05C0232F11
:1001B0002A570296A11DB11D20933001809328017A
:1001C00090932901A0932A01B0932B0180912C01D7
:1001D00090912D01A0912E01B0912F010196A11DAA
:1001E000B11D80932C0190932D01A0932E01B0930B
:1001F0002F01BF91AF919F918F913F912F910F90C0
:100200000FBE0F901F9018950F931F939FB7F894F0
:1002100000912C0110912D0120912E0130912F0180
:1002200086B5A89B06C08F3F21F00F5F1F4F2F4F51
:100230003F4F9FBF322F212F102F0027080F111D76
:10024000211D311D42E0000F111F221F331F4A954F
:10025000D1F7B801C9011F910F910895CF92DF9294
:10026000EF92FF92CF93DF936B017C010E94040118
:10027000EB010EC00E9404016C1B7D0B683E7340B5
:1002800038F081E0C81AD108E108F108C851DC4F04
:10029000C114D104E104F10469F7DF91CF91FF901B
:1002A000EF90DF90CF900895789484B5826084BDFC
:1002B00084B5816084BD85B5826085BD85B581606A
:1002C00085BDEEE6F0E0808181608083E1E8F0E0CA
:1002D0001082808182608083808181608083E0E8F9
:1002E000F0E0808181608083E1EBF0E080818460D8
:1002F0008083E0EBF0E0808181608083EAE7F0E0DA
:10030000808184608083808182608083808181603D
:1003100080838081806880831092C100089583303B
:1003200069F028F48130A1F0823011F514C08630D4
:10033000B1F08730C1F08430D9F404C080918000DE
:100340008F7703C0809180008F7D80938000089517
:1003500084B58F7702C084B58F7D84BD0895809168
:10036000B0008F7703C08091B0008F7D8093B00084
:100370000895CF93DF9390E0FC01E458FF4F449140
:10038000FC01E057FF4F8491882341F190E0880FF2
:10039000991FFC01E255FF4F25913491D9018C55ED
:1003A0009F4FFC0185919491C82FD92F9FB7F89446
:1003B0008C91611106C0409584238C93888184239D
:1003C00008C0623041F4242F209582238C938881C9
:1003D000842B888302C0842B8C939FBFDF91CF91A5
:1003E00008950F931F93CF93DF931F92CDB7DEB77E
:1003F000282F30E0F901E859FF4F8491F901E458C2
:10040000FF4F1491F901E057FF4F04910023D1F001
:10041000882321F069830E948F016981E02FF0E039
:10042000EE0FFF1FEC55FF4F85919491DC019FB7B4
:10043000F8948C91611103C01095812301C0812B28
:100440008C939FBF0F90DF91CF911F910F910895D3
:10045000CF92DF92EF92FF920F931F93CF93DF9390
:100460006C01EB017A01E60EF71E00E010E00BC014
:100470006991D601ED91FC910190F081E02DC601CA
:100480000995080F191FCE15DF0591F7C801DF91F7
:10049000CF911F910F91FF90EF90DF90CF90089533
:1004A000DB010D900020E9F7AD0141505109461BD9
:1004B000570BDC01ED91FC910280F381E02D099452
:1004C000DC01ED91FC910190F081E02D09940F93F6
:1004D0001F93CF93DF93EC016DE00E9460028C01CB
:1004E0006AE0CE010E9460029C01200F311FC90109
:1004F000DF91CF911F910F9108950F931F93CF9389
:10050000DF93EC010E9450028C01CE010E94670231
:100510009801280F391FC901DF91CF911F910F91C9
:1005200008950E9454010E948700CDE6D3E00E9406
:1005300094002097E1F30E946D03F9CFFC018485BC
:100540009585FC01E05CFF4F20813181FC01EE5B71
:10055000FF4F80819181281B390B2F733327C901ED
:100560000895FC0184859585FC01E05CFF4F408186
:100570005181FC01EE5BFF4F20813181421753070F
:1005800041F00190F081E02DE80FF91F208130E06B
:1005900002C02FEF3FEFC9010895FC0184859585C6
:1005A000FC01E05CFF4F40815181FC01EE5BFF4F9D
:1005B000208131814217530781F0A081B181A80FBA
:1005C000B91F8C91208131812F5F3F4F2F733327CB
:1005D00031832083282F30E002C02FEF3FEFC90185
:1005E0000895FC0186859785FC01E05CFF4FDC01E6
:1005F000AE5BBF4F408151812D913C9111974217C5
:100600005307C1F70895CF93DF93FC018685978543
:10061000DC01A05CBF4F2D913C9111972F5F3F4FA4
:100620002F733327EC01CE5BDF4F488159812417AC
:100630003507D9F30D90BC91A02DA80FB91F6C936D
:10064000A685B785A05CBF4F11963C932E93A689D3
:10065000B7892C9181E090E0058C02C0880F991F2A
:100660000A94E2F7282B2C9381E090E0DF91CF9160
:10067000089508951F920F920FB60F9211242F9391
:100680003F934F938F939F93EF93FF934091C600B7
:100690008091D4019091D50101968F739927209173
:1006A000D6013091D7018217930759F0E091D40118
:1006B000F091D501EC56FE4F40839093D501809385
:1006C000D401FF91EF919F918F914F913F912F9185
:1006D0000F900FBE0F901F90189581E391E00E943C
:1006E0009E02892B11F00C94390308951F920F92EA
:1006F0000FB60F9211242F933F938F939F93EF93F5
:10070000FF932091900130919101809192019091FD
:1007100093012817390731F48091C1008F7D8093B0
:10072000C10014C0E0919201F0919301E05BFE4F93
:100730002081809192019091930101968F73992766
:1007400090939301809392012093C600FF91EF91C3
:100750009F918F913F912F910F900FBE0F901F90FF
:100760001895CF92DF92EF92FF92CF93DF93EC0137
:100770006A017B01411581EE580761057105F9F0A9
:10078000EC89FD8981E090E00E8C02C0880F991FF2
:100790000A94E2F7808360E079E08DE390E0A701BE
:1007A00096010E948404215031094109510956954E
:1007B000479537952795211580E1380798F0EC8902
:1007C000FD89108260E874E88EE190E0A70196014F
:1007D0000E948404215031094109510956954795D9
:1007E00037952795E889F9893083EA89FB89208341
:1007F000EE89FF89408181E090E09C010A8C02C073
:10080000220F331F0A94E2F7422B4083EE89FF89BF
:1008100040819C010B8C02C0220F331F0A94E2F727
:10082000422B4083EE89FF8940819C010C8C02C0E1
:10083000220F331F0A94E2F7422B4083EE89FF898F
:1008400020810D8C02C0880F991F0A94E2F78095D1
:1008500082238083DF91CF91FF90EF90DF90CF9044
:100860000895109234011092330188EE93E0A0E0D5
:10087000B0E08093350190933601A0933701B09397
:1008800038018BE191E0909332018093310184E94A
:1008900091E090933E0180933D0180E591E090933B
:1008A000400180933F0185EC90E09093420180935A
:1008B000410184EC90E0909344018093430180ECEB
:1008C00090E0909346018093450181EC90E09093F5
:1008D00048018093470186EC90E090934A01809311
:1008E000490184E080934B0183E080934C0187E0D1
:1008F00080934D0185E080934E0181E080934F010C
:100900000895F8940C94AC04A1E21A2EAA1BBB1B08
:10091000FD010DC0AA1FBB1FEE1FFF1FA217B307CB
:10092000E407F50720F0A21BB30BE40BF50B661FE1
:10093000771F881F991F1A9469F7609570958095A5
:1009400090959B01AC01BD01CF010895EE0FFF1FF3
:0C0950000590F491E02D0994F894FFCF7D
:10095C000D004C4544206973206F6E004C454420BB
:10096C006973206F66660000000000030328029E76
:08097C0002CD02B102F10200FC
:00000001FF
