:100000000C9434000C943E000C943E000C943E0082
:100010000C943E000C943E000C943E000C943E0068
:100020000C943E000C943E000C943E000C943E0058
:100030000C943E000C943E000C943E000C943E0048
:100040000C943E000C943E000C943E000C943E0038
:100050000C943E000C943E000C943E000C943E0028
:100060000C943E000C943E0011241FBECFEFD8E04C
:10007000DEBFCDBF0E9440000C9496000C9400009F
:1000800014B81AB8259A219A229A539A559A569AD0
:1000900090E252E044E038E020E485B1892785B958
:1000A0006FEF73EC89E0615070408040E1F700C071
:1000B000000085B1852785B96FEF73EC89E0615049
:1000C00070408040E1F700C0000085B1842785B909
:1000D0006FEF73EC89E0615070408040E1F700C041
:1000E00000008BB183278BB96FEF73EC89E061500F
:1000F00070408040E1F700C000008BB189278BB9C8
:100100006FEF73EC89E0615070408040E1F700C010
:1001100000008BB182278BB96FEF73EC89E06150DF
:1001200070408040E1F700C00000B7CFF894FFCFE7
:00000001FF
