:100000000C9462000C948A000C948A000C948A0070
:100010000C948A000C948A000C948A000C948A0038
:100020000C948A000C948A000C948A000C948A0028
:100030000C948A000C948A000C948A000C948A0018
:100040000C94EF010C948A000C944D060C949006CD
:100050000C948A000C948A000C948A000C948A00F8
:100060000C948A000C948A00000000070002010032
:100070000003040600000000000000000102040864
:100080001020408001020408102001020408102002
:10009000040404040404040402020202020203032E
:1000A00003030303000000002300260029000000D2
:1000B0000000250028002B0000000000240027007D
:1000C0002A004C0711241FBECFEFD8E0DEBFCDBF02
:1000D00011E0A0E0B1E0ECEDF3E102C005900D927B
:1000E000AC36B107D9F722E0ACE6B1E001C01D9211
:1000F000A232B207E1F710E0C4ECD0E004C02297CE
:10010000FE010E94E809C23CD107C9F70E94AE0572
:100110000C94A2070C9400008F929F92AF92BF9212
:10012000CF92DF92EF92FF92CF93DF93E82FF0E030
:10013000EE0FFF1FEF5BFE4F80810E94BD02EC01BE
:10014000BC01882777FD8095982F0E94A9086B0134
:100150007C0120E030EC4FE754E4609100017091A5
:10016000010180910201909103010E940E089B0100
:10017000AC01C701B6010E945D094B015C012091F1
:1001800004013091050140910601509107010E9440
:10019000A6076B017C012AE939E949E151E40E9493
:1001A0000A0818161CF0C12CD12C76016BE071E006
:1001B00088E791E00E94D9034AE050E0BE0188E759
:1001C00091E00E94990465E171E088E791E00E9466
:1001D000D90322E030E0B501A40188E791E00E9454
:1001E0009C0564E271E088E791E00E94D90322E077
:1001F00030E0B701A60188E791E0DF91CF91FF9051
:10020000EF90DF90CF90BF90AF909F908F900C9425
:100210009C0540E855E260E070E088E791E00E94CC
:10022000CB0662E0809108010E94030361E084E054
:100230000E94030361E087E00E94030361E08DE018
:100240000E94030361E089E00E94030361E08AE009
:100250000E94030361E083E00E94030361E085E004
:100260000E94030361E086E00E94030360E084E0F3
:100270000E943C0361E087E00E943C0360E08DE067
:100280000E943C0360E089E00E943C0360E08AE059
:100290000E943C0360E083E00E943C0360E085E054
:1002A0000E943C0360E086E00C943C0388E791E008
:1002B0000E94E40580936C018053863010F40C9406
:1002C0008C000895CF93DF938EE00E94BD02EC0175
:1002D000CB3184E0D80714F061E005C0CB3881E071
:1002E000D80724F460E084E00E943C038091080178
:1002F0000E94720390936E0180936D01892B09F027
:1003000053C0CB3883E0D8072CF061E086E00E9430
:100310003C0304C0CF3283E0D8072CF061E085E0D5
:100320000E943C0304C0C93C82E0D8072CF061E085
:1003300083E00E943C0304C0C93582E0D8072CF05A
:1003400061E08AE00E943C0304C0C23F81E0D8071C
:100350002CF061E089E00E943C0304C0CC3881E0CD
:10036000D80724F061E08DE00E943C0360ED77E067
:1003700080E090E00E945C0260E086E00E943C0326
:1003800060E085E00E943C0360E083E00E943C0363
:1003900060E08AE00E943C0360E089E00E943C0348
:1003A00060E08DE00E943C03CC3181E0D80714F07E
:1003B00061E004C0CE3BD10524F460E087E00E94F8
:1003C0003C0388E791E00E94BB051816190624F447
:1003D000DF91CF910C945601DF91CF9108951F9238
:1003E0000F920FB60F9211242F933F938F939F93E9
:1003F000AF93BF938091700190917101A0917201B0
:10040000B091730130916F0123E0230F2D3720F459
:100410000196A11DB11D05C026E8230F0296A11D5E
:10042000B11D20936F018093700190937101A0938F
:100430007201B09373018091740190917501A09144
:100440007601B09177010196A11DB11D80937401D1
:1004500090937501A0937601B0937701BF91AF910E
:100460009F918F913F912F910F900FBE0F901F90F2
:1004700018953FB7F8948091740190917501A091FF
:100480007601B091770126B5A89B05C02F3F19F0E2
:100490000196A11DB11D3FBF6627782F892F9A2F86
:1004A000620F711D811D911D42E0660F771F881F2D
:1004B000991F4A95D1F70895CF92DF92EF92FF925C
:1004C000CF93DF936B017C010E943902EB01C114D1
:1004D000D104E104F10479F00E9439026C1B7D0B18
:1004E000683E7340A0F381E0C81AD108E108F10822
:1004F000C851DC4FECCFDF91CF91FF90EF90DF90B0
:10050000CF900895789484B5826084BD84B581606D
:1005100084BD85B5826085BD85B5816085BDEEE60B
:10052000F0E0808181608083E1E8F0E010828081EA
:1005300082608083808181608083E0E8F0E0808158
:1005400081608083E1EBF0E0808184608083E0EB78
:10055000F0E0808181608083EAE7F0E08081846060
:1005600080838081826080838081816080838081BC
:10057000806880831092C10008958E3008F08E50FC
:10058000877020910A0190E4299F90011124822B09
:1005900080937C0080917A00806480937A008091BF
:1005A0007A0086FDFCCF809178002091790090E060
:1005B000922B0895833081F028F4813099F08230B5
:1005C000A1F008958630A9F08730B9F08430D1F4D5
:1005D000809180008F7D03C0809180008F77809311
:1005E0008000089584B58F7702C084B58F7D84BD67
:1005F00008958091B0008F7703C08091B0008F7D07
:100600008093B0000895CF93DF9390E0FC01E4580D
:10061000FF4F2491FC01E057FF4F8491882349F15B
:1006200090E0880F991FFC01E854FF4FA591B49109
:1006300082559F4FFC01C591D4919FB7611108C0AD
:10064000F8948C91209582238C93888182230AC010
:10065000623051F4F8948C91322F309583238C932F
:100660008881822B888304C0F8948C91822B8C9390
:100670009FBFDF91CF9108950F931F93CF93DF9387
:100680001F92CDB7DEB7282F30E0F901E859FF4FB0
:100690008491F901E458FF4F1491F901E057FF4F9D
:1006A00004910023C9F0882321F069830E94DA02B3
:1006B0006981E02FF0E0EE0FFF1FE255FF4FA5919B
:1006C000B4919FB7F8948C91611103C01095812368
:1006D00001C0812B8C939FBF0F90DF91CF911F9111
:1006E0000F910895CF93DF93282F30E0F901E85957
:1006F000FF4F8491F901E458FF4FD491F901E0577D
:10070000FF4FC491CC2391F081110E94DA02EC2FAB
:10071000F0E0EE0FFF1FEC55FF4FA591B4912C9127
:100720002D2381E090E021F480E002C080E090E0A1
:10073000DF91CF910895CF92DF92EF92FF920F93C6
:100740001F93CF93DF936C017A01EB01E60EF71E46
:1007500000E010E0CE15DF0561F06991D601ED9162
:10076000FC910190F081E02DC6010995080F191F39
:10077000F1CFC801DF91CF911F910F91FF90EF90C2
:10078000DF90CF9008956115710581F0DB010D9028
:100790000020E9F7AD0141505109461B570BDC0120
:1007A000ED91FC910280F381E02D099480E090E0CE
:1007B00008950C94C303DC01ED91FC910190F0814C
:1007C000E02D09940F931F93CF93DF93EC016DE01D
:1007D0000E94DB038C016AE0CE010E94DB03800FE4
:1007E000911FDF91CF911F910F9108958F929F924A
:1007F000AF92BF92CF92DF92EF92FF920F931F932F
:10080000CF93DF93CDB7DEB7A1970FB6F894DEBFD5
:100810000FBECDBF7C01C42EE52FCB01D22E19A275
:1008200021E02D1510F02AE0D22E8E010F5D1F4F12
:100830008D2C912CA12CB12C6C2D7E2FA501940117
:100840000E94C4098C2DD29E8019112401501109D7
:100850008A3014F4805D01C0895CF8018083211521
:1008600031054105510521F0C22EE32FCA01E4CF25
:10087000B801C7010E94C303A1960FB6F894DEBF6A
:100880000FBECDBFDF91CF911F910F91FF90EF90E1
:10089000DF90CF90BF90AF909F908F900895CF92B0
:1008A000DF92EF92FF920F931F93CF93DF93EC01B0
:1008B0006A017B012115310579F4E881F981019004
:1008C000F081E02D642FDF91CF911F910F91FF9068
:1008D000EF90DF90CF9009942A303105E9F477FF4B
:1008E0001AC06DE20E94DB038C0144275527BA0130
:1008F0004C195D096E097F092AE0CE010E94F603BA
:10090000800F911FDF91CF911F910F91FF90EF907A
:10091000DF90CF9008952AE0B701A601CE01DF91C4
:10092000CF911F910F91FF90EF90DF90CF900C949B
:10093000F6030F931F93CF93DF93EC019A01AB0162
:10094000662757FD6095762F0E944F048C01CE01DB
:100950000E94E203800F911FDF91CF911F910F91B1
:1009600008954F925F926F927F928F929F92AF9273
:10097000BF92CF92DF92EF92FF920F931F93CF938C
:10098000DF93EC016A017B01B22E9A01AB01C70132
:10099000B6010E94C009882319F06DE471E027C0F8
:1009A00026013701E89477F82FEF3FEF4FE75FE735
:1009B000C301B2010E94C00981110DC02FEF3FEFAA
:1009C0004FE75FE7C301B2010E940A0818161CF442
:1009D00061E571E00CC02FEF3FEF4FE75FE4C70127
:1009E000B6010E9459091816ACF465E571E0CE0114
:1009F000DF91CF911F910F91FF90EF90DF90CF90FB
:100A0000BF90AF909F908F907F906F905F904F902E
:100A10000C94C3032FEF3FEF4FE75FECC701B60124
:100A20000E940A0887FDE1CF20E030E0A901C7015C
:100A3000B6010E940A0887FF0AC06DE2CE010E943B
:100A4000DB038C01F7FAF094F7F8F09402C000E0B1
:100A500010E0A12C60E070E080E09FE3AB1441F077
:100A600020E030E040E251E40E940E08A394F6CF6B
:100A70009B01AC01C701B6010E94A6076B017C0176
:100A80000E947B082B013C010E94A7089B01AC013E
:100A9000C701B6010E94A5076B017C012AE0B301E2
:100AA000A201CE010E94F603080F191FBB2039F0E6
:100AB00069E571E0CE010E94C303080F191F7B2C6A
:100AC000772041F120E030E040E251E4C701B60177
:100AD0000E945D096B017C010E9476084B01AA24EB
:100AE00097FCA094BA2C2AE030E0B501A401CE0115
:100AF0000E944F04080F191FC501B4010E94A908E4
:100B00009B01AC01C701B6010E94A5076B017C01E6
:100B10007A94D6CFC801DF91CF911F910F91FF90AA
:100B2000EF90DF90CF90BF90AF909F908F907F908D
:100B30006F905F904F9008950F931F93CF93DF9323
:100B4000EC010E94B1048C01CE010E94E203800FEF
:100B5000911FDF91CF911F910F9108950E94820202
:100B60000E940901C7E8D6E00E9462012097E1F3E4
:100B70000E948706F9CFFC0124853585F901E05CE8
:100B8000FF4F80819181329620813181821B930BAE
:100B90008F7399270895FC0184859585FC01E05C9D
:100BA000FF4F408151813296208131814217530796
:100BB00041F00190F081E02DE80FF91F808190E075
:100BC00008958FEF9FEF0895FC0184859585FC01C2
:100BD000E05CFF4F40815181329620813181421784
:100BE000530779F0A081B181A80FB91F8C912081A2
:100BF00031812F5F3F4F2F7333273183208390E064
:100C000008958FEF9FEF0895FC0181A1882329F0BB
:100C1000A489B5898C9186FFFBCF11A20895CF934B
:100C2000DF93FC0126853785D901A05CBF4F8D91EC
:100C30009C91119701968F739927E901CE5BDF4F45
:100C40004881598184179507D9F30D90BC91A02D47
:100C5000A20FB31F6C93A685B785A05CBF4F1196FA
:100C60009C938E93A689B7892C9181E090E0078CA4
:100C700002C0880F991F0A94E2F7282B2C9381E079
:100C800081A30488F589E02D80818064808381E0E0
:100C900090E0DF91CF91089508951F920F920FB6C3
:100CA0000F9211242F933F934F938F939F93EF9322
:100CB000FF938091C00082FD1CC04091C6008091CE
:100CC0001E0290911F0201968F7399272091200296
:100CD000309121028217930771F0E0911E02F0918A
:100CE0001F02E252FE4F408390931F0280931E0228
:100CF00002C08091C600FF91EF919F918F914F911B
:100D00003F912F910F900FBE0F901F90189588E77D
:100D100091E00E94BB05892B11F00C944C060895BC
:100D20001F920F920FB60F9211242F933F938F9320
:100D30009F93EF93FF932091DA013091DB01809133
:100D4000DC019091DD012817390731F48091C10051
:100D50008F7D8093C10014C0E091DC01F091DD0132
:100D6000E656FE4F20818091DC019091DD010196D5
:100D70008F7399279093DD018093DC012093C60047
:100D8000FF91EF919F918F913F912F910F900FBE07
:100D90000F901F901895CF92DF92EF92FF92CF9312
:100DA000DF93EC016A017B01411581EE5807610573
:100DB0007105F9F0EC89FD8981E090E008A002C09E
:100DC000880F991F0A94E2F7808360E079E08DE351
:100DD00090E0A70196010E94C40921503109410900
:100DE00051095695479537952795211580E1380784
:100DF00098F0EC89FD89108260E874E88EE190E05B
:100E0000A70196010E94C4092150310941095109E5
:100E10005695479537952795E889F9893083EA896A
:100E2000FB89208319A2EE89FF89408181E090E04F
:100E30009C010C8C02C0220F331F0A94E2F7422B54
:100E40004083EE89FF8940819C010D8C02C0220FF6
:100E5000331F0A94E2F7422B4083EE89FF894081D9
:100E60009C010E8C02C0220F331F0A94E2F7422B22
:100E70004083EE89FF8920810F8C02C0880F991F63
:100E80000A94E2F7809582238083DF91CF91FF90CF
:100E9000EF90DF90CF90089510927B0110927A012D
:100EA00088EE93E0A0E0B0E080937C0190937D0118
:100EB000A0937E01B0937F018FE591E0909379013B
:100EC000809378018EED91E0909385018093840169
:100ED0008AE991E0909387018093860185EC90E008
:100EE000909389018093880184EC90E090938B012A
:100EF00080938A0180EC90E090938D0180938C0127
:100F000081EC90E090938F0180938E0182EC90E0D1
:100F1000909391018093900186EC90E090939301DF
:100F20008093920184E08093940183E08093950103
:100F300087E08093960185E08093970181E080931C
:100F400098010895F8940C94EC095058BB27AA27EF
:100F50000ED075C166D130F06BD120F031F49F3FD7
:100F600011F41EF45BC10EF4E095E7FB51C1E92FCB
:100F700077D180F3BA17620773078407950718F0D3
:100F800071F49EF58FC10EF4E0950B2EBA2FA02DB3
:100F90000B01B90190010C01CA01A0011124FF2726
:100FA000591B99F0593F50F4503E68F11A16F04021
:100FB000A22F232F342F4427585FF3CF4695379520
:100FC0002795A795F0405395C9F77EF41F16BA0BE5
:100FD000620B730B840BBAF09150A1F0FF0FBB1F93
:100FE000661F771F881FC2F70EC0BA0F621F731FDC
:100FF000841F48F4879577956795B795F7959E3F39
:1010000008F0B3CF9395880F08F09927EE0F9795C6
:1010100087950895D9D008F481E008950CD00FC1C8
:1010200007D140F0FED030F021F45F3F19F0F0C05E
:10103000511139C1F3C014D198F39923C9F3552341
:10104000B1F3951B550BBB27AA27621773078407BB
:1010500038F09F5F5F4F220F331F441FAA1FA9F371
:1010600033D00E2E3AF0E0E830D091505040E69563
:10107000001CCAF729D0FE2F27D0660F771F881FC4
:10108000BB1F261737074807AB07B0E809F0BB0BB3
:10109000802DBF01FF2793585F4F2AF09E3F5105D7
:1010A00068F0B6C000C15F3FECF3983EDCF3869574
:1010B00077956795B795F7959F5FC9F7880F911D4D
:1010C0009695879597F90895E1E0660F771F881F39
:1010D000BB1F621773078407BA0720F0621B730BEC
:1010E000840BBA0BEE1F88F7E095089504D068943E
:1010F000B111D9C00895BCD088F09F5790F0B92F96
:101100009927B751A0F0D1F0660F771F881F991F5C
:101110001AF0BA95C9F712C0B13081F0C3D0B1E06E
:101120000895C0C0672F782F8827B85F39F0B93F7E
:10113000CCF3869577956795B395D9F73EF490955E
:101140008095709561957F4F8F4F9F4F0895E894DC
:1011500009C097FB3EF490958095709561957F4FFF
:101160008F4F9F4F9923A9F0F92F96E9BB279395AD
:10117000F695879577956795B795F111F8CFFAF4BD
:10118000BB0F11F460FF1BC06F5F7F4F8F4F9F4FEE
:1011900016C0882311F096E911C0772321F09EE84C
:1011A000872F762F05C0662371F096E8862F70E0B2
:1011B00060E02AF09A95660F771F881FDAF7880F8C
:1011C0009695879597F90895990F0008550FAA0BE2
:1011D000E0E8FEEF16161706E807F907C0F012164A
:1011E0001306E407F50798F0621B730B840B950B4D
:1011F00039F40A2661F0232B242B252B21F40895A2
:101200000A2609F4A140A6958FEF811D811D08953E
:1012100097F99F6780E870E060E008959FEF80ECA9
:10122000089500240A94161617061806090608954C
:1012300000240A9412161306140605060895092EB2
:101240000394000C11F4882352F0BB0F40F4BF2B21
:1012500011F460FF04C06F5F7F4F8F4F9F4F089561
:1012600057FD9058440F551F59F05F3F71F0479557
:10127000880F97FB991F61F09F3F79F0879508953C
:10128000121613061406551FF2CF4695F1DF08C05B
:10129000161617061806991FF1CF86957105610578
:1012A00008940895E894BB2766277727CB0197F920
:1012B00008958ADF08F48FEF08950BD0C0CFB1DF17
:1012C00028F0B6DF18F0952309F0A2CFA7CF11249C
:1012D000EACFC6DFA0F3959FD1F3950F50E0551FDD
:1012E000629FF001729FBB27F00DB11D639FAA277B
:1012F000F00DB11DAA1F649F6627B00DA11D661FCA
:10130000829F2227B00DA11D621F739FB00DA11DEA
:10131000621F839FA00D611D221F749F3327A00DA4
:10132000611D231F849F600D211D822F762F6A2F40
:1013300011249F5750408AF0E1F088234AF0EE0FC5
:10134000FF1FBB1F661F771F881F91505040A9F7D2
:101350009E3F510570F05CCFA6CF5F3FECF3983E07
:10136000DCF3869577956795B795F795E7959F5F39
:10137000C1F7FE2B880F911D9695879597F90895D3
:1013800023DF880B990B0895A1E21A2EAA1BBB1B21
:10139000FD010DC0AA1FBB1FEE1FFF1FA217B30741
:1013A000E407F50720F0A21BB30BE40BF50B661F57
:1013B000771F881F991F1A9469F76095709580951B
:1013C00090959B01AC01BD01CF010895EE0FFF1F69
:0C13D0000590F491E02D0994F894FFCFF3
:1013DC0033339340A470194102000176616C75653A
:1013EC0041443A200053656E736F72416E616C6FAD
:1013FC00673A200043616C63756C617465642042CC
:10140C0061747465727920566F6C746167653A20EB
:10141C00000E000F0010001100120013006E616E20
:10142C0000696E66006F7666002E00000000000FEB
:0C143C00069B03BB05E405CB050406007D
:00000001FF
