:100000000C945D000C9485000C9485000C94850084
:100010000C9485000C9485000C9485000C9485004C
:100020000C9485000C9485000C9485000C9485003C
:100030000C9485000C9485000C9485000C9485002C
:100040000C9405010C9485000C9420050C94630518
:100050000C9485000C9485000C9485000C9485000C
:100060000C9485000C94850000000007000201003C
:100070000003040600000000000000000102040864
:100080001020408001020408102001020408102002
:10009000040404040404040402020202020203032E
:1000A0000303030300000000250028002B000000CC
:1000B0000000240027002A001F0611241FBECFEFD6
:1000C000D8E0DEBFCDBF11E0A0E0B1E0E2E8F1E1B1
:1000D00002C005900D92AC32B107D9F721E0ACE235
:1000E000B1E001C01D92A03EB207E1F710E0CAEBFB
:1000F000D0E004C02297FE010E94BB08C83BD10794
:10010000C9F70E9481040C9475060C940000E82F36
:10011000F0E0EE0FFF1FEF5FFE4F80810E94D301E2
:10012000BC01882777FD8095982F0E947C072AE0E4
:1001300038E240EA5BE30E9430082CEE31E548E10A
:1001400051E40E947906AB01BC0122E030E086E375
:1001500091E00C946F0440E855E260E070E086E3C3
:1001600091E00E949E0561E08DE00E94190261E02D
:1001700088E00E94190260E088E00E94520261E07B
:100180008DE00C9452028EE00E94D3018B3F9105CA
:1001900034F060E088E00E94520261E008C0893CCF
:1001A00091054CF060E088E00E94520260E08DE032
:1001B0000E9452020EC061E088E00E94520260E09C
:1001C0008DE00E94520264EF71E080E090E00E94B6
:1001D000720186E391E00E948E04181619067CF4E1
:1001E00060E088E00E94520286E391E00E94B7043A
:1001F00080932C018053863010F40E94870064E6BF
:1002000070E080E090E00C9472011F920F920FB6A4
:100210000F9211242F933F938F939F93AF93BF938C
:1002200080912E0190912F01A0913001B091310168
:1002300030912D0123E0230F2D3720F40196A11DCD
:10024000B11D05C026E8230F0296A11DB11D209304
:100250002D0180932E0190932F01A0933001B09334
:1002600031018091320190913301A0913401B0911C
:1002700035010196A11DB11D809332019093330188
:10028000A0933401B0933501BF91AF919F918F91AD
:100290003F912F910F900FBE0F901F9018953FB771
:1002A000F8948091320190913301A0913401B09182
:1002B000350126B5A89B05C02F3F19F00196A11D59
:1002C000B11D3FBF6627782F892F9A2F620F711DAE
:1002D000811D911D42E0660F771F881F991F4A9567
:1002E000D1F70895CF92DF92EF92FF92CF93DF93F1
:1002F0006B017C010E944F01EB01C114D104E104A8
:10030000F10479F00E944F016C1B7D0B683E734035
:10031000A0F381E0C81AD108E108F108C851DC4F08
:10032000ECCFDF91CF91FF90EF90DF90CF900895C9
:10033000789484B5826084BD84B5816084BD85B5C0
:10034000826085BD85B5816085BDEEE6F0E0808187
:1003500081608083E1E8F0E01082808182608083A8
:10036000808181608083E0E8F0E08081816080832B
:10037000E1EBF0E0808184608083E0EBF0E080815D
:1003800081608083EAE7F0E08081846080838081FF
:1003900082608083808181608083808180688083A7
:1003A0001092C10008958E3008F08E508770209111
:1003B000000190E4299F90011124822B80937C00FE
:1003C00080917A00806480937A0080917A0086FD23
:1003D000FCCF809178002091790090E0922B0895D5
:1003E000833081F028F4813099F08230A1F00895B3
:1003F0008630A9F08730B9F08430D1F48091800044
:100400008F7D03C0809180008F7780938000089556
:1004100084B58F7702C084B58F7D84BD08958091A7
:10042000B0008F7703C08091B0008F7D8093B000C3
:100430000895CF93DF9390E0FC01E458FF4F24919F
:10044000FC01E057FF4F8491882349F190E0880F29
:10045000991FFC01E255FF4FA591B4918C559F4F18
:10046000FC01C591D4919FB7611108C0F8948C919B
:10047000209582238C93888182230AC0623051F4B4
:10048000F8948C91322F309583238C938881822B22
:10049000888304C0F8948C91822B8C939FBFDF914A
:1004A000CF9108950F931F93CF93DF931F92CDB7F2
:1004B000DEB7282F30E0F901E859FF4F8491F901A8
:1004C000E458FF4F1491F901E057FF4F04910023C6
:1004D000C9F0882321F069830E94F0016981E02F2F
:1004E000F0E0EE0FFF1FEC55FF4FA591B4919FB7C1
:1004F000F8948C91611103C01095812301C0812B68
:100500008C939FBF0F90DF91CF911F910F91089512
:10051000CF92DF92EF92FF920F931F93CF93DF93CF
:100520006C017A01EB01E60EF71E00E010E0CE153B
:10053000DF0561F06991D601ED91FC910190F081A8
:10054000E02DC6010995080F191FF1CFC801DF91F1
:10055000CF911F910F91FF90EF90DF90CF90089572
:100560006115710581F0DB010D900020E9F7AD0107
:1005700041505109461B570BDC01ED91FC91028063
:10058000F381E02D099480E090E00895DC01ED9185
:10059000FC910190F081E02D09940F931F93CF936C
:1005A000DF93EC016DE00E94C6028C016AE0CE018F
:1005B0000E94C602800F911FDF91CF911F910F9172
:1005C00008958F929F92AF92BF92CF92DF92EF9257
:1005D000FF920F931F93CF93DF93CDB7DEB7A19711
:1005E0000FB6F894DEBF0FBECDBF7C01C42EE52F41
:1005F000CB01D22E19A221E02D1510F02AE0D22E27
:100600008E010F5D1F4F8D2C912CA12CB12C6C2DC8
:100610007E2FA50194010E9497088C2DD29E8019EF
:100620001124015011098A3014F4805D01C0895CE5
:10063000F8018083211531054105510521F0C22EB5
:10064000E32FCA01E4CFB801C7010E94B002A1960E
:100650000FB6F894DEBF0FBECDBFDF91CF911F91D3
:100660000F91FF90EF90DF90CF90BF90AF909F9051
:100670008F900895CF92DF92EF92FF920F931F9386
:10068000CF93DF93EC016A017B012115310579F4E9
:10069000E881F9810190F081E02D642FDF91CF9105
:1006A0001F910F91FF90EF90DF90CF9009942A3027
:1006B0003105E9F477FF1AC06DE20E94C6028C0191
:1006C00044275527BA014C195D096E097F092AE0B4
:1006D000CE010E94E102800F911FDF91CF911F9107
:1006E0000F91FF90EF90DF90CF9008952AE0B7012F
:1006F000A601CE01DF91CF911F910F91FF90EF9056
:10070000DF90CF900C94E1024F925F926F927F92B4
:100710008F929F92AF92BF92CF92DF92EF92FF9211
:100720000F931F93CF93DF93EC016A017B01B22EED
:100730009A01AB01C701B6010E949308882319F002
:100740006DE071E027C026013701E89477F82FEFBC
:100750003FEF4FE75FE7C301B2010E9493088111A9
:100760000DC02FEF3FEF4FE75FE7C301B2010E94DB
:10077000DD0618161CF461E171E00CC02FEF3FEFAD
:100780004FE75FE4C701B6010E942C081816ACF4CD
:1007900065E171E0CE01DF91CF911F910F91FF9044
:1007A000EF90DF90CF90BF90AF909F908F907F9011
:1007B0006F905F904F900C94B0022FEF3FEF4FE798
:1007C0005FECC701B6010E94DD0687FDE1CF20E0A6
:1007D00030E0A901C701B6010E94DD0687FF0AC00B
:1007E0006DE2CE010E94C6028C01F7FAF094F7F890
:1007F000F09402C000E010E0A12C60E070E080E026
:100800009FE3AB1441F020E030E040E251E40E946D
:10081000E106A394F6CF9B01AC01C701B6010E948B
:1008200079066B017C010E944E072B013C010E945E
:100830007A079B01AC01C701B6010E9478066B01E3
:100840007C012AE0B301A201CE010E94E102080F5F
:10085000191FBB2039F069E171E0CE010E94B0029E
:10086000080F191F7B2C772041F120E030E040E297
:1008700051E4C701B6010E9430086B017C010E945F
:1008800049074B01AA2497FCA094BA2C2AE030E037
:10089000B501A401CE010E943A03080F191FC5013A
:1008A000B4010E947C079B01AC01C701B6010E9404
:1008B00078066B017C017A94D6CFC801DF91CF9185
:1008C0001F910F91FF90EF90DF90CF90BF90AF906E
:1008D0009F908F907F906F905F904F9008950F93AF
:1008E0001F93CF93DF93EC010E9484038C01CE0110
:1008F0000E94CD02800F911FDF91CF911F910F9128
:1009000008950E9498010E94AB00CAE5D5E00E94BC
:10091000C3002097E1F30E945A05F9CFFC0124851A
:100920003585F901E05CFF4F80819181329620810D
:100930003181821B930B8F7399270895FC01848565
:100940009585FC01E05CFF4F40815181329620810A
:1009500031814217530741F00190F081E02DE80FFB
:10096000F91F808190E008958FEF9FEF0895FC01BB
:1009700084859585FC01E05CFF4F40815181329672
:10098000208131814217530779F0A081B181A80FEE
:10099000B91F8C91208131812F5F3F4F2F733327F7
:1009A0003183208390E008958FEF9FEF0895FC013D
:1009B00081A1882329F0A489B5898C9186FFFBCF7A
:1009C00011A20895CF93DF93FC0126853785D901C5
:1009D000A05CBF4F8D919C91119701968F739927C1
:1009E000E901CE5BDF4F4881598184179507D9F320
:1009F0000D90BC91A02DA20FB31F6C93A685B78557
:100A0000A05CBF4F11969C938E93A689B7892C91B9
:100A100081E090E0078C02C0880F991F0A94E2F7EA
:100A2000282B2C9381E081A30488F589E02D808117
:100A30008064808381E090E0DF91CF9108950895F4
:100A40001F920F920FB60F9211242F933F934F9343
:100A50008F939F93EF93FF938091C00082FD1CC002
:100A60004091C6008091DC019091DD0101968F7369
:100A700099272091DE013091DF018217930771F0F1
:100A8000E091DC01F091DD01E456FE4F408390934C
:100A9000DD018093DC0102C08091C600FF91EF91DF
:100AA0009F918F914F913F912F910F900FBE0F907B
:100AB0001F90189586E391E00E948E04892B11F017
:100AC0000C941F0508951F920F920FB60F921124D8
:100AD0002F933F938F939F93EF93FF9320919801D0
:100AE0003091990180919A0190919B0128173907C3
:100AF00031F48091C1008F7D8093C10014C0E091DA
:100B00009A01F0919B01E85AFE4F208180919A0151
:100B100090919B0101968F73992790939B018093ED
:100B20009A012093C600FF91EF919F918F913F9181
:100B30002F910F900FBE0F901F901895CF92DF92BC
:100B4000EF92FF92CF93DF93EC016A017B01411595
:100B500081EE580761057105F9F0EC89FD8981E0A6
:100B600090E008A002C0880F991F0A94E2F78083E2
:100B700060E079E08DE390E0A70196010E9497087C
:100B800021503109410951095695479537952795C7
:100B9000211580E1380798F0EC89FD89108260E822
:100BA00074E88EE190E0A70196010E949708215019
:100BB0003109410951095695479537952795E88997
:100BC000F9893083EA89FB89208319A2EE89FF899C
:100BD000408181E090E09C010C8C02C0220F331F09
:100BE0000A94E2F7422B4083EE89FF8940819C0101
:100BF0000D8C02C0220F331F0A94E2F7422B408370
:100C0000EE89FF8940819C010E8C02C0220F331FA8
:100C10000A94E2F7422B4083EE89FF8920810F8CF2
:100C200002C0880F991F0A94E2F78095822380837F
:100C3000DF91CF91FF90EF90DF90CF9008951092C9
:100C400039011092380188EE93E0A0E0B0E0809383
:100C50003A0190933B01A0933C01B0933D018FE199
:100C600091E090933701809336018CE991E0909365
:100C700043018093420188E591E090934501809380
:100C8000440185EC90E0909347018093460184EC09
:100C900090E0909349018093480180EC90E090931C
:100CA0004B0180934A0181EC90E090934D01809339
:100CB0004C0182EC90E090934F0180934E0186ECC2
:100CC00090E0909351018093500184E08093520111
:100CD00083E08093530187E08093540185E0809303
:100CE000550181E0809356010895F8940C94BF0853
:100CF0005058BB27AA270ED075C166D130F06BD1F2
:100D000020F031F49F3F11F41EF45BC10EF4E09526
:100D1000E7FB51C1E92F77D180F3BA176207730758
:100D20008407950718F071F49EF58FC10EF4E095D5
:100D30000B2EBA2FA02D0B01B90190010C01CA0195
:100D4000A0011124FF27591B99F0593F50F4503E40
:100D500068F11A16F040A22F232F342F4427585F32
:100D6000F3CF469537952795A795F0405395C9F74A
:100D70007EF41F16BA0B620B730B840BBAF0915002
:100D8000A1F0FF0FBB1F661F771F881FC2F70EC0A1
:100D9000BA0F621F731F841F48F487957795679574
:100DA000B795F7959E3F08F0B3CF9395880F08F05D
:100DB0009927EE0F979587950895D9D008F481E08B
:100DC00008950CD00FC107D140F0FED030F021F4CF
:100DD0005F3F19F0F0C0511139C1F3C014D198F33D
:100DE0009923C9F35523B1F3951B550BBB27AA27AC
:100DF00062177307840738F09F5F5F4F220F331F1E
:100E0000441FAA1FA9F333D00E2E3AF0E0E830D0E9
:100E100091505040E695001CCAF729D0FE2F27D0EC
:100E2000660F771F881FBB1F261737074807AB07BA
:100E3000B0E809F0BB0B802DBF01FF2793585F4F2F
:100E40002AF09E3F510568F0B6C000C15F3FECF349
:100E5000983EDCF3869577956795B795F7959F5FF4
:100E6000C9F7880F911D9695879597F90895E1E048
:100E7000660F771F881FBB1F621773078407BA07A7
:100E800020F0621B730B840BBA0BEE1F88F7E09502
:100E9000089504D06894B111D9C00895BCD088F0E9
:100EA0009F5790F0B92F9927B751A0F0D1F0660F56
:100EB000771F881F991F1AF0BA95C9F712C0B13071
:100EC00081F0C3D0B1E00895C0C0672F782F882784
:100ED000B85F39F0B93FCCF3869577956795B395B0
:100EE000D9F73EF490958095709561957F4F8F4F1F
:100EF0009F4F0895E89409C097FB3EF49095809524
:100F0000709561957F4F8F4F9F4F9923A9F0F92FCF
:100F100096E9BB279395F695879577956795B7954D
:100F2000F111F8CFFAF4BB0F11F460FF1BC06F5F33
:100F30007F4F8F4F9F4F16C0882311F096E911C045
:100F4000772321F09EE8872F762F05C0662371F066
:100F500096E8862F70E060E02AF09A95660F771F7A
:100F6000881FDAF7880F9695879597F90895990F56
:100F70000008550FAA0BE0E8FEEF16161706E80763
:100F8000F907C0F012161306E407F50798F0621B84
:100F9000730B840B950B39F40A2661F0232B242B59
:100FA000252B21F408950A2609F4A140A6958FEF78
:100FB000811D811D089597F99F6780E870E060E0CA
:100FC00008959FEF80EC089500240A9416161706E2
:100FD00018060906089500240A941216130614062A
:100FE00005060895092E0394000C11F4882352F08D
:100FF000BB0F40F4BF2B11F460FF04C06F5F7F4F45
:101000008F4F9F4F089557FD9058440F551F59F02B
:101010005F3F71F04795880F97FB991F61F09F3FE5
:1010200079F087950895121613061406551FF2CF0E
:101030004695F1DF08C0161617061806991FF1CF5E
:1010400086957105610508940895E894BB27662785
:101050007727CB0197F908958ADF08F48FEF089579
:101060000BD0C0CFB1DF28F0B6DF18F0952309F020
:10107000A2CFA7CF1124EACFC6DFA0F3959FD1F36B
:10108000950F50E0551F629FF001729FBB27F00D36
:10109000B11D639FAA27F00DB11DAA1F649F66278B
:1010A000B00DA11D661F829F2227B00DA11D621FDA
:1010B000739FB00DA11D621F839FA00D611D221F94
:1010C000749F3327A00D611D231F849F600D211D78
:1010D000822F762F6A2F11249F5750408AF0E1F01B
:1010E00088234AF0EE0FFF1FBB1F661F771F881F64
:1010F00091505040A9F79E3F510570F05CCFA6CFAC
:101100005F3FECF3983EDCF3869577956795B7954E
:10111000F795E7959F5FC1F7FE2B880F911D969578
:10112000879597F9089523DF880B990B0895A1E21D
:101130001A2EAA1BBB1BFD010DC0AA1FBB1FEE1F51
:10114000FF1FA217B307E407F50720F0A21BB30B9C
:10115000E40BF50B661F771F881F991F1A9469F718
:1011600060957095809590959B01AC01BD01CF0174
:101170000895EE0FFF1F0590F491E02D0994F89467
:02118000FFCF9F
:10118200010E000F0010001100120013006E616EBC
:1011920000696E66006F7666002E0000000000E2B5
:0C11A2000488028E04B7049E04D70400E9
:00000001FF
