:100000000C945D000C9485000C9485000C94850084
:100010000C9485000C9485000C9485000C9485004C
:100020000C9485000C9485000C9485000C9485003C
:100030000C9485000C9485000C9485000C9485002C
:100040000C947C010C9485000C946D050C94A9050E
:100050000C9485000C9485000C9485000C9485000C
:100060000C9485000C94850000000007000201003C
:100070000003040600000000000000000102040864
:100080001020408001020408102001020408102002
:10009000040404040404040402020202020203032E
:1000A0000303030300000000250028002B000000CC
:1000B0000000240027002A00640611241FBECFEF91
:1000C000D8E0DEBFCDBF11E0A0E0B1E0E0EFF1E1AC
:1000D00002C005900D92A032B107D9F711E0A0E25D
:1000E000B1E001C01D92A13DB107E1F710E0CAEBFC
:1000F000D0E004C02297FE010E94F208C83BD1075D
:10010000C9F70E94C4040C94B4060C940000E82FB4
:10011000F0E0EE0FFF1FEF5FFE4F80810E94EA02CA
:10012000BC01882777FD8095982F0E94BB072AE0A5
:1001300038E240EA5BE30E946B082CEE31E548E1CF
:1001400051E40E94B806AB01BC0122E030E08AE233
:1001500091E00C94B00440E855E260E070E08AE27F
:1001600091E00E94E40561E086E00E947B0261E08C
:1001700085E00E947B0261E083E00E947B0261E0F7
:100180008AE00E947B0261E089E00E947B0261E0DC
:100190008DE00E947B0261E088E00E947B0261E0CA
:1001A00088E00C94B30264EF71E080E090E00E947C
:1001B000F0018EE00E94EA028F3223E092073CF0C9
:1001C00061E086E00E94B30261E085E00EC060E07D
:1001D000893C22E09207ACF086E00E94B30261E025
:1001E00085E00E94B30261E088E00E94B30261E012
:1001F00083E00E94B30261E08AE00E94B30261E002
:1002000053C0833622E092072CF086E00E94B302AE
:1002100060E0E6CF8D3F21E092074CF086E00E943F
:10022000B30260E085E00E94B30260E0DDCF863972
:1002300021E092076CF086E00E94B30260E085E066
:100240000E94B30260E088E00E94B30260E0D0CF79
:100250008F3221E092078CF086E00E94B30260E0CA
:1002600085E00E94B30260E088E00E94B30260E093
:1002700083E00E94B30260E0BFCF893C9105ECF0BF
:1002800086E00E94B30260E085E00E94B30260E075
:1002900088E00E94B30260E083E00E94B30260E065
:1002A0008AE00E94B30260E089E00E94B30261E04C
:1002B0008DE00E94B30260E004C08DE00E94B302B2
:1002C00061E088E00E94B3028AE291E00E94D104DA
:1002D000181619065CF48AE291E00E9400058093EA
:1002E00020018053863010F40E94870061E070E0A6
:1002F00080E090E00C94F0011F920F920FB60F92E5
:1003000011242F933F938F939F93AF93BF9380912B
:10031000210190912201A0912301B09124013091FB
:100320002901232F2D5F2D3720F40196A11DB11D2A
:1003300005C0232F2A570296A11DB11D2093290124
:100340008093210190932201A0932301B093240173
:100350008091250190912601A0912701B09128015B
:100360000196A11DB11D8093250190932601A093B4
:100370002701B0932801BF91AF919F918F913F9139
:100380002F910F900FBE0F901F9018950F931F93F2
:100390009FB7F89400912501109126012091270123
:1003A0003091280186B5A89B06C08F3F21F00F5FD2
:1003B0001F4F2F4F3F4F9FBF322F212F102F00274E
:1003C000080F111D211D311D42E0000F111F221FBA
:1003D000331F4A95D1F7B801C9011F910F910895B4
:1003E000CF92DF92EF92FF92CF93DF936B017C016C
:1003F0000E94C601EB010EC00E94C6016C1B7D0B62
:10040000683E734038F081E0C81AD108E108F1086D
:10041000C851DC4FC114D104E104F10469F7DF9144
:10042000CF91FF90EF90DF90CF900895789484B5AE
:10043000826084BD84B5816084BD85B5826085BDE0
:1004400085B5816085BDEEE6F0E0808181608083C6
:10045000E1E8F0E0108280818260808380818160A9
:100460008083E0E8F0E0808181608083E1EBF0E070
:10047000808184608083E0EBF0E080818160808314
:10048000EAE7F0E0808184608083808182608083FD
:100490008081816080838081806880831092C10028
:1004A0000895833069F028F48130A1F0823011F58D
:1004B00014C08630B1F08730C1F08430D9F404C064
:1004C000809180008F7703C0809180008F7D809322
:1004D0008000089584B58F7702C084B58F7D84BD78
:1004E00008958091B0008F7703C08091B0008F7D18
:1004F0008093B0000895CF93DF9390E0FC01E4581F
:10050000FF4F4491FC01E057FF4F8491882341F154
:1005100090E0880F991FFC01E255FF4F259134911F
:10052000D9018C559F4FFC0185919491C82FD92FEB
:100530009FB7F8948C91611106C0409584238C93E9
:100540008881842308C0623041F4242F20958223BF
:100550008C938881842B888302C0842B8C939FBFCB
:10056000DF91CF9108950F931F93CF93DF931F9245
:10057000CDB7DEB7282F30E0F901E859FF4F84915D
:10058000F901E458FF4F1491F901E057FF4F04912E
:100590000023D1F0882321F069830E9451026981F0
:1005A000E02FF0E0EE0FFF1FEC55FF4F8591949187
:1005B000DC019FB7F8948C91611103C010958123E1
:1005C00001C0812B8C939FBF0F90DF91CF911F9122
:1005D0000F9108958E3008F08E50877020910001A1
:1005E00040E4249F90011124822B80937C00809111
:1005F0007A00806480937A0080917A0086FDFCCF37
:100600002091780030917900932F80E0AC01422B4B
:100610009A01C9010895CF92DF92EF92FF920F9352
:100620001F93CF93DF936C01EB017A01E60EF71E67
:1006300000E010E00BC06991D601ED91FC910190B2
:10064000F081E02DC6010995080F191FCE15DF05B1
:1006500091F7C801DF91CF911F910F91FF90EF901B
:10066000DF90CF900895DB010D900020E9F7AD01F8
:1006700041505109461B570BDC01ED91FC91028062
:10068000F381E02D0994DC01ED91FC910190F08162
:10069000E02D09940F931F93CF93DF93EC016DE04E
:1006A0000E9443038C016AE0CE010E9443039C0137
:1006B000200F311FC901DF91CF911F910F91089534
:1006C0004F925F926F927F929F92AF92BF92CF9222
:1006D000DF92EF92FF920F931F93CF93DF93CDB7EB
:1006E000DEB7A1970FB6F894DEBF0FBECDBF5C0199
:1006F0006A017B01922E19A281E0821710F08AE034
:10070000982E8E010F5D1F4F492C512C612C712C9E
:10071000C701B601A30192010E94CE088C2D929EC2
:1007200080191124015011098A3014F4805D01C030
:10073000895CF801808369017A01C114D104E10464
:10074000F10431F7B801C5010E943303A1960FB639
:10075000F894DEBF0FBECDBFDF91CF911F910F91F7
:10076000FF90EF90DF90CF90BF90AF909F907F90E1
:100770006F905F904F900895CF92DF92EF92FF922B
:100780000F931F93CF93DF93EC016A017B01211537
:10079000310579F4E881F9810190F081E02D642F31
:1007A000DF91CF911F910F91FF90EF90DF90CF904D
:1007B00009942A30310519F477FD0EC02AE0B701FB
:1007C000A601CE01DF91CF911F910F91FF90EF9085
:1007D000DF90CF900C9460036DE20E9443038C0184
:1007E00044275527BA014C195D096E097F092AE093
:1007F000CE010E946003080F191FC801DF91CF913D
:100800001F910F91FF90EF90DF90CF9008957F920E
:100810008F929F92AF92BF92CF92DF92EF92FF9210
:100820000F931F93CF93DF938C014A015B01F22E4C
:1008300020E030E0A901C501B4010E941C0787FF38
:100840000AC06DE2C8010E944303EC01B7FAB094FC
:10085000B7F8B09402C0C0E0D0E0E12C60E070E0F6
:1008600080E09FE307C020E030E040E251E40E94D6
:100870002007E394EF10F7CF262F372F482F592F5B
:10088000C501B4010E94B806762E872E982EA92E97
:100890000E948D07B62EC72ED82EE92E0E94B907CA
:1008A0009B01AC01672D782D892D9A2D0E94B706EA
:1008B000A62E972E882E792E2AE04B2D5C2D6D2D9D
:1008C0007E2DC8010E946003C80FD91FFF20B9F117
:1008D0006DE071E0C8010E943303C80FD91F2FC01B
:1008E00020E030E040E251E46A2D792D882D972DEB
:1008F0000E946B08762EC72ED82EE92E0E948807FC
:100900004B01AA2497FCA094BA2C2AE030E0B50150
:10091000A401C8010E94BC03C80FD91FC501B401BE
:100920000E94BB079B01AC01672D7C2D8D2D9E2D58
:100930000E94B706A62E972E882E792EFA94F110D3
:10094000CFCFCE01DF91CF911F910F91FF90EF900C
:10095000DF90CF90BF90AF909F908F907F90089541
:100960000F931F93CF93DF93EC010E9407048C0138
:10097000CE010E944A039801280F391FC901DF9157
:10098000CF911F910F9108950E9416020E94AB0013
:10099000C0EAD5E00E94D3002097E1F30E94A005B1
:1009A000F9CFFC0184859585FC01E05CFF4F208137
:1009B0003181FC01EE5BFF4F80819181281B390B57
:1009C0002F733327C9010895FC0184859585FC01A7
:1009D000E05CFF4F40815181FC01EE5BFF4F2081C5
:1009E00031814217530741F00190F081E02DE80F6B
:1009F000F91F208130E002C02FEF3FEFC9010895B9
:100A0000FC0184859585FC01E05CFF4F40815181AC
:100A1000FC01EE5BFF4F208131814217530781F0CB
:100A2000A081B181A80FB91F8C91208131812F5FE6
:100A30003F4F2F73332731832083282F30E002C0AC
:100A40002FEF3FEFC9010895FC0186859785FC01D2
:100A5000E05CFF4FDC01AE5BBF4F408151812D91C7
:100A60003C91119742175307C1F70895CF93DF9335
:100A7000FC0186859785DC01A05CBF4F2D913C91E0
:100A800011972F5F3F4F2F733327EC01CE5BDF4F62
:100A90004881598124173507D9F30D90BC91A02DB9
:100AA000A80FB91F6C93A685B785A05CBF4F1196A0
:100AB0003C932E93A689B7892C9181E090E0058C18
:100AC00002C0880F991F0A94E2F7282B2C9381E02B
:100AD00090E0DF91CF91089508951F920F920FB685
:100AE0000F9211242F933F934F938F939F93EF93E4
:100AF000FF934091C6008091CD019091CE01019667
:100B00008F7399272091CF013091D00182179307DD
:100B100059F0E091CD01F091CE01E357FE4F4083B3
:100B20009093CE018093CD01FF91EF919F918F9192
:100B30004F913F912F910F900FBE0F901F901895DE
:100B40008AE291E00E94D104892B11F00C946C058B
:100B500008951F920F920FB60F9211242F933F9377
:100B60008F939F93EF93FF932091890130918A0196
:100B700080918B0190918C012817390731F4809175
:100B8000C1008F7D8093C10014C0E0918B01F09172
:100B90008C01E75BFE4F208180918B0190918C014D
:100BA00001968F73992790938C0180938B012093EA
:100BB000C600FF91EF919F918F913F912F910F90E0
:100BC0000FBE0F901F901895CF92DF92EF92FF9279
:100BD000CF93DF93EC016A017B01411581EE580749
:100BE00061057105F9F0EC89FD8981E090E00E8CDA
:100BF00002C0880F991F0A94E2F7808360E079E0D1
:100C00008DE390E0A70196010E94CE0821503109A2
:100C1000410951095695479537952795211580E14A
:100C2000380798F0EC89FD89108260E874E88EE15D
:100C300090E0A70196010E94CE0821503109410998
:100C400051095695479537952795E889F989308355
:100C5000EA89FB892083EE89FF89408181E090E069
:100C60009C010A8C02C0220F331F0A94E2F7422B28
:100C70004083EE89FF8940819C010B8C02C0220FCA
:100C8000331F0A94E2F7422B4083EE89FF894081AB
:100C90009C010C8C02C0220F331F0A94E2F7422BF6
:100CA0004083EE89FF8920810D8C02C0880F991F37
:100CB0000A94E2F7809582238083DF91CF91FF90A1
:100CC000EF90DF90CF90089510922D0110922C019B
:100CD00088EE93E0A0E0B0E080932E0190932F0186
:100CE000A0933001B093310183E191E090932B0107
:100CF00080932A018DE891E090933701809336012B
:100D000089E491E0909339018093380185EC90E07B
:100D100090933B0180933A0184EC90E090933D01E5
:100D200080933C0180EC90E090933F0180933E01E2
:100D300081EC90E0909341018093400186EC90E03B
:100D4000909343018093420184E08093440183E0C7
:100D50008093450187E08093460185E080934701B9
:100D600081E0809348010895F8940C94F608505857
:100D7000BB27AA270ED075C166D130F06BD120F009
:100D800031F49F3F11F41EF45BC10EF4E095E7FBD4
:100D900051C1E92F77D180F3BA176207730784072F
:100DA000950718F071F49EF58FC10EF4E0950B2EA7
:100DB000BA2FA02D0B01B90190010C01CA01A001AD
:100DC0001124FF27591B99F0593F50F4503E68F108
:100DD0001A16F040A22F232F342F4427585FF3CF49
:100DE000469537952795A795F0405395C9F77EF41A
:100DF0001F16BA0B620B730B840BBAF09150A1F063
:100E0000FF0FBB1F661F771F881FC2F70EC0BA0FE8
:100E1000621F731F841F48F4879577956795B79570
:100E2000F7959E3F08F0B3CF9395880F08F0992768
:100E3000EE0F979587950895D9D008F481E008952D
:100E40000CD00FC107D140F0FED030F021F45F3F4D
:100E500019F0F0C0511139C1F3C014D198F399239E
:100E6000C9F35523B1F3951B550BBB27AA2762176E
:100E70007307840738F09F5F5F4F220F331F441FB3
:100E8000AA1FA9F333D00E2E3AF0E0E830D09150EB
:100E90005040E695001CCAF729D0FE2F27D0660FD8
:100EA000771F881FBB1F261737074807AB07B0E817
:100EB00009F0BB0B802DBF01FF2793585F4F2AF02D
:100EC0009E3F510568F0B6C000C15F3FECF3983E0D
:100ED000DCF3869577956795B795F7959F5FC9F78A
:100EE000880F911D9695879597F90895E1E0660F13
:100EF000771F881FBB1F621773078407BA0720F08C
:100F0000621B730B840BBA0BEE1F88F7E0950895F4
:100F100004D06894B111D9C00895BCD088F09F570F
:100F200090F0B92F9927B751A0F0D1F0660F771F35
:100F3000881F991F1AF0BA95C9F712C0B13081F015
:100F4000C3D0B1E00895C0C0672F782F8827B85F5D
:100F500039F0B93FCCF3869577956795B395D9F776
:100F60003EF490958095709561957F4F8F4F9F4F80
:100F70000895E89409C097FB3EF49095809570958C
:100F800061957F4F8F4F9F4F9923A9F0F92F96E9D5
:100F9000BB279395F695879577956795B795F1114A
:100FA000F8CFFAF4BB0F11F460FF1BC06F5F7F4FE7
:100FB0008F4F9F4F16C0882311F096E911C07723F9
:100FC00021F09EE8872F762F05C0662371F096E802
:100FD000862F70E060E02AF09A95660F771F881FD1
:100FE000DAF7880F9695879597F90895990F000875
:100FF000550FAA0BE0E8FEEF16161706E807F907EB
:10100000C0F012161306E407F50798F0621B730B85
:10101000840B950B39F40A2661F0232B242B252B06
:1010200021F408950A2609F4A140A6958FEF811DA9
:10103000811D089597F99F6780E870E060E008954A
:101040009FEF80EC089500240A94161617061806E0
:101050000906089500240A941216130614060506BC
:101060000895092E0394000C11F4882352F0BB0F4D
:1010700040F4BF2B11F460FF04C06F5F7F4F8F4FB0
:101080009F4F089557FD9058440F551F59F05F3FEB
:1010900071F04795880F97FB991F61F09F3F79F09A
:1010A00087950895121613061406551FF2CF46951C
:1010B000F1DF08C0161617061806991FF1CF86959E
:1010C0007105610508940895E894BB276627772782
:1010D000CB0197F908950BD0C4CFB5DF28F0BADF64
:1010E00018F0952309F0A6CFABCF1124EECFCADFBD
:1010F000A0F3959FD1F3950F50E0551F629FF0012B
:10110000729FBB27F00DB11D639FAA27F00DB11D83
:10111000AA1F649F6627B00DA11D661F829F22270C
:10112000B00DA11D621F739FB00DA11D621F839F93
:10113000A00D611D221F749F3327A00D611D231F69
:10114000849F600D211D822F762F6A2F11249F57B7
:1011500050408AF0E1F088234AF0EE0FFF1FBB1FDA
:10116000661F771F881F91505040A9F79E3F510579
:1011700070F060CFAACF5F3FECF3983EDCF386952A
:1011800077956795B795F795E7959F5FC1F7FE2B24
:10119000880F911D9695879597F90895A1E21A2ECB
:1011A000AA1BBB1BFD010DC0AA1FBB1FEE1FFF1F0B
:1011B000A217B307E407F50720F0A21BB30BE40B5B
:1011C000F50B661F771F881F991F1A9469F76095A2
:1011D0007095809590959B01AC01BD01CF0108955C
:1011E000EE0FFF1F0590F491E02D0994F894FFCFC6
:1011F000010E000F0010001100120013002E00005D
:1012000000000036050B03D1040005E404240500AA
:00000001FF
