:100000000C94D9000C9401010C9401010C94010191
:100010000C9401010C9401010C9401010C94010158
:100020000C9401010C9401010C9401010C94010148
:100030000C9401010C9401010C9401010C94010138
:100040000C94F0070C9401010C94D00B0C94130C3D
:100050000C9401010C9401010C9401010C94010118
:100060000C9401010C940101005EBCE2613FDD8350
:10007000C29C7E20A3FD1F419DC3217FFCA2401E88
:100080005F01E3BD3E6082DC237D9FC1421CFEA078
:10009000E1BF5D0380DE3C62BEE0025CDF81633D68
:1000A0007C22C09E1D43A1FF4618FAA427799BC558
:1000B00084DA3866E5BB5907DB856739BAE4065848
:1000C0001947A5FB7826C49A653BD987045AB8E638
:1000D000A7F91B45C6987A24F8A6441A99C7257B28
:1000E0003A6486D85B05E7B98CD2306EEDB3510F18
:1000F0004E10F2AC2F7193CD114FADF3702ECC9208
:10010000D38D6F31B2EC0E50AFF1134DCE90722CF7
:100110006D33D18F0C52B0EE326C8ED0530DEFB1E7
:10012000F0AE4C1291CF2D73CA947628ABF51749D7
:100130000856B4EA6937D58B5709EBB536688AD4C7
:1001400095CB2977F4AA4816E9B7550B88D6346AB7
:100150002B7597C94A14F6A8742AC896154BA9F7A7
:10016000B6E80A54D7896B35010204081020408094
:1001700001020408102001020408102004040404F1
:100180000404040402020202020203030303030341
:1001900000000000230026002900000000002500C8
:1001A00028002B0000000000240027002A00C607BA
:1001B000CF0C11241FBECFEFD8E0DEBFCDBF12E0C1
:1001C000A0E0B1E0E2E3FFE102C005900D92A439A6
:1001D000B107D9F723E0A4E9B2E001C01D92AA3724
:1001E000B207E1F711E0C2EBD1E004C02297FE01B3
:1001F0000E94930FCE3AD107C9F70E94310B0C949D
:10020000250D0C940000FF920F931F93CF93DF9363
:10021000FC010081C181D281F8948981F02EF09493
:100220008F21898378941DE7115029F182E090E0B5
:100230000E948F0888818023B9F3F8948A818F21E6
:100240008A838981802B8983789480EE91E00E9453
:100250008F08F89489818F21898386E490E00E9439
:100260008F088881802311E009F010E078948AE9F2
:1002700091E00E948F08812FDF91CF911F910F9104
:10028000FF9008951F93CF93DF93FC011081C181EC
:10029000D281912F909560FF12C0F8948A818923B2
:1002A0008A838981812B89838AE090E00E948F086C
:1002B0008A81812B8A83789487E390E011C0F89437
:1002C0008A8189238A838981812B898381E490E0D3
:1002D0000E948F088A81812B8A83789485E090E040
:1002E000DF91CF911F910C948F080F931F93CF93A1
:1002F000DF93FC011081C181D281F8948981812B27
:1003000089838A81012F009580238A8383E090E08E
:100310000E948F088981802389838AE090E00E946F
:100320008F08C881789485E390E00E948F081C2391
:1003300081E009F480E0DF91CF911F910F91089542
:10034000CF92DF92EF92FF920F931F93CF93DF93A1
:100350001F92CDB7DEB76C01E62E08E010E0FF2457
:10036000F39461E09F2D9E2109F460E0C60149836A
:100370000E944201FF0C015011094981011511052C
:1003800081F7411115C0F894D6011196ED91FC91B9
:10039000129791818C918095892381831196ED919B
:1003A000FC91129792818C91809589238283789415
:1003B0000F90DF91CF911F910F91FF90EF90DF9001
:1003C000CF900895EF92FF920F931F93CF93DF93F7
:1003D0008C01C8E0D0E0F12CEE24E394C8010E9427
:1003E00075018111FE28EE0C21972097B9F78F2D0A
:1003F000DF91CF911F910F91FF90EF900895CF92D1
:10040000DF92FF920F931F93CF93DF931F92CDB78D
:10041000DEB78C01F62E40E065E579830E94A001ED
:10042000CF2C7981D72E88E0F82EF60161916F01EB
:1004300040E0C8010E94A001FA94B9F70F90DF9143
:10044000CF911F910F91FF90DF90CF90089540E0E2
:100450006CEC0C94A001FC0113861586148627E031
:1004600030E0DF01A20FB31F13961C922115310556
:1004700019F021503109F5CF08951F93CF93DF93E1
:10048000EC01162F60E0812F0E94D508612F70E0EB
:10049000FB01E859FE4FE491E883FB01E458FE4F6D
:1004A000E491F0E0EE0FFF1FE057FE4F859194912D
:1004B0009A838983CE01DF91CF911F910C942B02F7
:1004C000AF92BF92CF92DF92EF92FF920F931F9362
:1004D000CF93DF931F92CDB7DEB75C01D62EE72E08
:1004E000FC018585811164C0C50149830E94030117
:1004F0004981811105C0F50113861586148671C0E6
:10050000442319F040E060EF02C040E06CEEC5010A
:100510000E94A00101E0F12CC12C11E0C5010E9454
:100520007501682FC50169830E9475016981613079
:1005300019F48130B9F433C02F2D30E068131BC09B
:10054000F5018385181730F4E20FF31F83818023B0
:1005500049F402C0181731F060E0193058F4F50181
:10056000148708C0F501EF0DF11D8381802B838373
:1005700061E009C0C12EF501E20FF31F8381902FC6
:10058000909589238383C5010E9442011F5F000F5C
:1005900011F4F39401E0F7E0FF1508F0BFCF113438
:1005A00038F0F501C386C11009C081E0858706C017
:1005B000F50113861586148680E013C0F50183814A
:1005C0008823B1F3ED2DFE2D80E090E0D501A80F3A
:1005D000B91F13962C912193019688309105B1F79C
:1005E00081E00F90DF91CF911F910F91FF90EF90DD
:1005F000DF90CF90BF90AF900895DC0180E0615014
:1006000038F0ED91E827F0E0E859FF4F8491F7CFFB
:1006100008950895FC0189E093E0928B818B7683A5
:1006200065831482108289E0818381E082838383E1
:100630000895FC0184810895CF93DF93EB0167E077
:10064000CE010E94FD0291E02F81821390E0892F5C
:10065000DF91CF910895EF92FF920F931F93CF9365
:10066000DF93EC018B01E42E8D819E810E942B0291
:10067000F12C41E0B8018D819E810E9460028823A7
:1006800059F0FE1006C0B801CE010E941C03811172
:1006900004C0F394EF1468F780E0DF91CF911F91CD
:1006A0000F91FF90EF900895CF92DF92EF92FF921B
:1006B0000F931F93CF93DF9300D0CDB7DEB76C01BC
:1006C000F42EE52EFC018581968169837A830E9450
:1006D000030169817A81882311F1F6018581968170
:1006E0000E94FF0140E06EEBF601858196810E9439
:1006F000A0010F2D1E2D89E0F82EF601858196812F
:100700000E94E201F80181938F01FA94B1F7F6019A
:10071000858196810E94030191E0813009F090E08B
:10072000892F0F900F90DF91CF911F910F91FF9024
:10073000EF90DF90CF900895CF93DF93EA010E946E
:100740005403882351F068E0CE010E94FD0291E03D
:100750002885821390E0892F01C080E0DF91CF913E
:100760000895EF92FF920F931F93CF93DF93EC01C5
:100770008B017A018D819E810E940301B8018D81D8
:100780009E810E94FF0140E06EE48D819E810E9467
:10079000A00140E0F70162818D819E810E94A0014D
:1007A00040E0F70163818D819E810E94A001F801E4
:1007B0008081803139F040E0F70164818D819E8134
:1007C0000E94A0018D819E810E940301B8018D814C
:1007D0009E810E94FF01488168E48D819E810E9474
:1007E000A00164E170E080E090E00E9469088881E7
:1007F000882331F06AE070E080E090E00E946908B0
:100800008D819E81DF91CF911F910F91FF90EF908D
:100810000C940301EF92FF921F93CF93DF9300D0CC
:10082000CDB7DEB77C01FC018581968169837A832F
:100830000E94030169817A81F701858196810E9476
:10084000FF0140E064EBF701858196810E94A001E1
:10085000F701858196810E947501182FF701858126
:1008600096810E94030181E0111180E00F900F90AA
:10087000DF91CF911F91FF90EF900895CF93DF9379
:10088000CDB7DEB729970FB6F894DEBF0FBECDBF48
:10089000FB0120812031D1F0AE014F5F5F4F0E94FC
:1008A0009C03882379F08D818F3351F020F48F31B0
:1008B00049F489E00CC08F3539F08F3739F002C028
:1008C0008AE005C080E003C08BE001C08CE029967F
:1008D0000FB6F894DEBF0FBECDBFDF91CF91089564
:1008E000FF920F931F93CF93DF93CDB7DEB7289777
:1008F0000FB6F894DEBF0FBECDBF8C01FC01858121
:1009000096810E942B02F801148241E0BE016F5FC4
:100910007F4FF801858196810E946002882389F1CA
:10092000BE016F5F7F4FC8010E941C03882369F3DB
:10093000F8018081811108C0BE016F5F7F4FC8013F
:100940000E940A04811119C0F801F180BE016F5F95
:100950007F4FC8010E943E048F1518F4F801818171
:1009600006C0BE016F5F7F4FC8010E943E04F801C0
:10097000818384818F5F8483C8CF81E0F801808385
:10098000E3CF28960FB6F894DEBF0FBECDBFDF9140
:10099000CF911F910F91FF900895DF92EF92FF92F8
:1009A0000F931F93CF93DF93CDB7DEB762970FB648
:1009B000F894DEBF0FBECDBF8C017B01D22E493033
:1009C00028F0342F4D3018F03CE001C039E0B70179
:1009D000C8013A8B0E943E043A89831709F45DC02E
:1009E000AE014F5F5F4FB701C8013A8B0E949C0375
:1009F0003A89882309F453C0F7018081803109F4D2
:100A00004CC03B3041F03C3021F03A3031F48FE3C0
:100A100005C08FE703C08FE501C08FE18D83AE0174
:100A20004F5F5F4FB701C8013A8B0E94B103F801D5
:100A300091813A89832F391708F4892FF80181832E
:100A4000D1102BC0381748F53183E12CF12CF80177
:100A5000848190E0E816F90604F54E2DBE01665F2C
:100A60007F4FC8010E942B03F801D180BE01665F51
:100A70007F4FC8010E943E048D1518F4F801818152
:100A800006C0BE01665F7F4FC8010E943E04F801A8
:100A90008183FFEFEF1AFF0ADACF81E001C080E027
:100AA00062960FB6F894DEBF0FBECDBFDF91CF9137
:100AB0001F910F91FF90EF90DF900895CF93DF93F8
:100AC000CDB7DEB729970FB6F894DEBF0FBECDBF06
:100AD000AE014F5F5F4F0E94540381E099819111F5
:100AE00001C080E029960FB6F894DEBF0FBECDBFDF
:100AF000DF91CF9108958F929F92AF92BF92CF9244
:100B0000DF92EF92FF920F931F93CF93DF93EC014D
:100B10008A016950633048F4E62FF0E0EE0FFF1FC2
:100B2000E050FF4F8080918004C09EEE892E92E0BD
:100B3000992E0115110501F18B818823E9F0888137
:100B400081111AC00E943A086B017C01AA2497FC0B
:100B5000A094BA2CB801CE010E945E0581111FC07D
:100B60000E943A08681979098A099B096C157D0564
:100B70008E059F05A0F4EECFB401882777FD809500
:100B8000982FDF91CF911F910F91FF90EF90DF9001
:100B9000CF90BF90AF909F908F900C946908DF9199
:100BA000CF911F910F91FF90EF90DF90CF90BF906A
:100BB000AF909F908F900895CF93DF93EC018D813C
:100BC0009E810E9403018D819E810E94270248819F
:100BD00064E48D819E810E94A0018A81882341F076
:100BE00040E050E06981CE01DF91CF910C947B050C
:100BF000DF91CF910895FA01208148E0249F900170
:100C00001124818190E0982F8827990F990F990FCF
:100C1000282B392BDB018C918031C1F4678170E086
:100C20008681AB01481B5109CA019695982F8827E8
:100C3000979587950E94470F60517109207F53E077
:100C4000220F331F5A95E1F7260F371FC901089568
:100C5000EF92FF920F931F93CF93DF93CDB7DEB741
:100C600029970FB6F894DEBF0FBECDBF8C017B0174
:100C7000AE014F5F5F4F0E949C03882341F0AE019D
:100C80004F5F5F4FB701C8010E94FB0502C080E8BB
:100C900094EE29960FB6F894DEBF0FBECDBFDF915C
:100CA000CF911F910F91FF90EF900895FC018081EB
:100CB0000895813824EE920774F0BC01882777FDEF
:100CC0008095982F0E942C0E20E030E040E05CE3FD
:100CD0000E94E00E089560E070E08EEF92EC0895BF
:100CE0000E9428060C94590640E855E260E070E046
:100CF00080ED92E00E944E0C84EA92E00E94700423
:100D000040E06CE972E084EA92E00E942B0341E04B
:100D100064E972E084EA92E00E942B0340E06CE90F
:100D200072E084EA92E00E942B03811106C066E023
:100D300071E080ED92E00E94690941E064E972E0AF
:100D400084EA92E00E942B03811106C06AE271E0FE
:100D500080ED92E00E94690987EB92E00E942B02ED
:100D600041E06CE972E087EB92E00E946002811141
:100D700006C06EE471E080ED92E00E94690941E0F6
:100D800064E972E087EB92E00E946002811106C084
:100D90006BE771E080ED92E00E94690920E049E094
:100DA0006CE972E084EA92E00E94CD0420E049E020
:100DB00064E972E084EA92E00C94CD04FF920F9310
:100DC0001F93CF93DF93EC0188E0F82E8E0188818A
:100DD000803130F468E271E080ED92E00E944C09CD
:100DE000219640E150E0F801608180ED92E00E94A0
:100DF0003D0AFA9459F7DF91CF911F910F91FF901F
:100E00000895BC0184EA92E00E947006AB01BC0127
:100E100022E030E080ED92E00C942F0B0E9401075D
:100E200080ED92E00C94550969EA71E080ED92E062
:100E30000E94690964ED71E080ED92E00E944C0926
:100E400068EE71E080ED92E00E944C0984EA92E045
:100E50000E9419034AE050E0682F80ED92E00E9462
:100E60003D0A6FEE71E080ED92E00E94690969EF42
:100E700071E080ED92E00E944C0984EA92E00E94C9
:100E80005606882319F06DE072E002C060E172E05E
:100E900080ED92E00E94690964E172E080ED92E0E9
:100EA0000E944C096CE972E084EA92E00E943E04E0
:100EB0004AE050E0682F80ED92E00E943D0A80ED0C
:100EC00092E00E9455096AE272E080ED92E00E9491
:100ED0004C0964E972E084EA92E00E943E044AE030
:100EE00050E0682F80ED92E00E943D0A80ED92E094
:100EF0000E94550960E472E080ED92E00E944C0986
:100F00008CE992E00E94DE0680ED92E00E94550995
:100F100063E572E080ED92E00E944C0984E992E082
:100F20000E94DE0680ED92E00E94550980ED92E07D
:100F30000C9455098091C502813071F466E672E027
:100F400080ED92E00E944C096091C60280ED92E033
:100F50000E947B091092C5028091C602813319F468
:100F60008CE992E004C0823349F484E992E00E9463
:100F70000E0780ED92E00E94550904C0893311F4F8
:100F80000E94140780E38093C60208956AE087EB0D
:100F900092E00E943D0267EB72E084EA92E00C94DA
:100FA0000A0380ED92E00E943E0B181619064CF4DD
:100FB00080ED92E00E94670B8093C60281E08093EF
:100FC000C502089584EA92E00E94DC050E94D107E0
:100FD0000E949A0764E670E080E090E00C94690853
:100FE0001F920F920FB60F9211242F933F938F935E
:100FF0009F93AF93BF938091C8029091C902A09133
:10100000CA02B091CB023091C70223E0230F2D37E3
:1010100020F40196A11DB11D05C026E8230F0296FC
:10102000A11DB11D2093C7028093C8029093C902ED
:10103000A093CA02B093CB028091CC029091CD02D2
:10104000A091CE02B091CF020196A11DB11D809357
:10105000CC029093CD02A093CE02B093CF02BF9169
:10106000AF919F918F913F912F910F900FBE0F9055
:101070001F9018952FB7F8946091C8027091C9021B
:101080008091CA029091CB022FBF08953FB7F89488
:101090008091CC029091CD02A091CE02B091CF026E
:1010A00026B5A89B05C02F3F19F00196A11DB11DC3
:1010B0003FBF6627782F892F9A2F620F711D811DE0
:1010C000911D42E0660F771F881F991F4A95D1F73F
:1010D0000895CF92DF92EF92FF92CF93DF936B014F
:1010E0007C010E944608EB01C114D104E104F10423
:1010F00079F00E9446086C1B7D0B683E7340A0F39C
:1011000081E0C81AD108E108F108C851DC4FECCFE2
:10111000DF91CF91FF90EF90DF90CF9008950197EE
:10112000009739F0880F991F880F991F0297019730
:10113000F1F70895789484B5826084BD84B58160A8
:1011400084BD85B5826085BD85B5816085BDEEE6CF
:10115000F0E0808181608083E1E8F0E010828081AE
:1011600082608083808181608083E0E8F0E080811C
:1011700081608083E1EBF0E0808184608083E0EB3C
:10118000F0E0808181608083EAE7F0E08081846024
:101190008083808182608083808181608083808180
:1011A000806880831092C1000895CF93DF9390E010
:1011B000FC01E859FE4F2491FC01E458FE4F849154
:1011C000882349F190E0880F991FFC01EC55FE4FF0
:1011D000A591B49186569E4FFC01C591D4919FB7BD
:1011E000611108C0F8948C91209582238C9388819A
:1011F00082230AC0623051F4F8948C91322F3095DA
:1012000083238C938881822B888304C0F8948C91EB
:10121000822B8C939FBFDF91CF910895CF92DF9265
:10122000EF92FF920F931F93CF93DF936C017A019C
:10123000EB01E60EF71E00E010E0CE15DF0561F0D1
:101240006991D601ED91FC910190F081E02DC601EC
:101250000995080F191FF1CFC801DF91CF911F9198
:101260000F91FF90EF90DF90CF9008956115710579
:1012700081F0DB010D900020E9F7AD0141505109EB
:10128000461B570BDC01ED91FC910280F381E02DB0
:10129000099480E090E008950C943609DC01ED910A
:1012A000FC910190F081E02D09940F931F93CF934F
:1012B000DF93EC016DE00E944E098C016AE0CE01E3
:1012C0000E944E09800F911FDF91CF911F910F91C6
:1012D00008950F931F93CF93DF93EC010E9436097B
:1012E0008C01CE010E945509800F911FDF91CF9193
:1012F0001F910F9108950F931F93CF93DF93EC01EC
:101300000E944E098C01CE010E945509800F911F49
:10131000DF91CF911F910F9108958F929F92AF927D
:10132000BF92CF92DF92EF92FF920F931F93CF93D2
:10133000DF93CDB7DEB7A1970FB6F894DEBF0FBE2F
:10134000CDBF7C01C42EE52FCB01D22E19A221E006
:101350002D1510F02AE0D22E8E010F5D1F4F8D2C1F
:10136000912CA12CB12C6C2D7E2FA50194010E94F3
:101370005B0F8C2DD29E80191124015011098A30E7
:1013800014F4805D01C0895CF8018083211531056A
:101390004105510521F0C22EE32FCA01E4CFB80167
:1013A000C7010E943609A1960FB6F894DEBF0FBEA2
:1013B000CDBFDF91CF911F910F91FF90EF90DF9004
:1013C000CF90BF90AF909F908F900895CF92DF9273
:1013D000EF92FF920F931F93CF93DF93EC016A017B
:1013E0007B012115310579F4E881F9810190F081C3
:1013F000E02D642FDF91CF911F910F91FF90EF901F
:10140000DF90CF9009942A303105E9F477FF1AC0B4
:101410006DE20E944E098C0144275527BA014C19F0
:101420005D096E097F092AE0CE010E948D09800FB7
:10143000911FDF91CF911F910F91FF90EF90DF905F
:10144000CF9008952AE0B701A601CE01DF91CF9198
:101450001F910F91FF90EF90DF90CF900C948D092A
:101460002115310541F4DC01ED91FC910190F081F1
:10147000E02D642F09940C948D099A01462F50E0B9
:1014800060E070E00C94300A4F925F926F927F920E
:101490008F929F92AF92BF92CF92DF92EF92FF9284
:1014A0000F931F93CF93DF93EC016A017B01B22E60
:1014B0009A01AB01C701B6010E94430F882319F0BE
:1014C00067E772E027C026013701E89477F82FEF2D
:1014D0003FEF4FE75FE7C301B2010E94430F811165
:1014E0000DC02FEF3FEF4FE75FE7C301B2010E944E
:1014F0008D0D18161CF46BE772E00CC02FEF3FEF58
:101500004FE75FE4C701B6010E94DC0E1816ACF489
:101510006FE772E0CE01DF91CF911F910F91FF90A5
:10152000EF90DF90CF90BF90AF909F908F907F9083
:101530006F905F904F900C9436092FEF3FEF4FE77D
:101540005FECC701B6010E948D0D87FDE1CF20E061
:1015500030E0A901C701B6010E948D0D87FF0AC0C6
:101560006DE2CE010E944E098C01F7FAF094F7F873
:10157000F09402C000E010E0A12C60E070E080E098
:101580009FE3AB1441F020E030E040E251E40E94E0
:10159000910DA394F6CF9B01AC01C701B6010E9447
:1015A000290D6B017C010E94FE0D2B013C010E9464
:1015B0002A0E9B01AC01C701B6010E94280D6B01E8
:1015C0007C012AE0B301A201CE010E948D09080F1F
:1015D000191FBB2039F066EE71E0CE010E9436097A
:1015E000080F191F7B2C772041F120E030E040E20A
:1015F00051E4C701B6010E94E00E6B017C010E941C
:10160000F90D4B01AA2497FCA094BA2C2AE030E0F3
:10161000B501A401CE010E94E609080F191FC501FA
:10162000B4010E942C0E9B01AC01C701B6010E94BF
:10163000280D6B017C017A94D6CFC801DF91CF9140
:101640001F910F91FF90EF90DF90CF90BF90AF90E0
:101650009F908F907F906F905F904F9008950C9423
:10166000440A0E949A080E947406CAE0DCE00E94C4
:10167000E2072097E1F30E940A0CF9CFFC012485D0
:101680003585F901E05CFF4F8081918132962081A0
:101690003181821B930B8F7399270895FC018485F8
:1016A0009585FC01E05CFF4F40815181329620819D
:1016B00031814217530741F00190F081E02DE80F8E
:1016C000F91F808190E008958FEF9FEF0895FC014E
:1016D00084859585FC01E05CFF4F40815181329605
:1016E000208131814217530779F0A081B181A80F81
:1016F000B91F8C91208131812F5F3F4F2F7333278A
:101700003183208390E008958FEF9FEF0895FC01CF
:1017100081A1882329F0A489B5898C9186FFFBCF0C
:1017200011A20895CF93DF93FC0126853785D90157
:10173000A05CBF4F8D919C91119701968F73992753
:10174000E901CE5BDF4F4881598184179507D9F3B2
:101750000D90BC91A02DA20FB31F6C93A685B785E9
:10176000A05CBF4F11969C938E93A689B7892C914C
:1017700081E090E0078C02C0880F991F0A94E2F77D
:10178000282B2C9381E081A30488F589E02D8081AA
:101790008064808381E090E0DF91CF910895089587
:1017A0001F920F920FB60F9211242F933F934F93D6
:1017B0008F939F93EF93FF938091C00082FD1CC095
:1017C0004091C600809176039091770301968F73C4
:1017D000992720917803309179038217930771F04C
:1017E000E0917603F0917703EA5CFC4F408390939D
:1017F00077038093760302C08091C600FF91EF913A
:101800009F918F914F913F912F910F900FBE0F900D
:101810001F90189580ED92E00E943E0B892B11F0ED
:101820000C94CF0B08951F920F920FB60F921124B4
:101830002F933F938F939F93EF93FF9320913203C6
:101840003091330380913403909135032817390781
:1018500031F48091C1008F7D8093C10014C0E0916C
:101860003403F0913503EE50FD4F20818091340315
:101870009091350301968F73992790933503809348
:1018800034032093C600FF91EF919F918F913F9178
:101890002F910F900FBE0F901F901895CF92DF924F
:1018A000EF92FF92CF93DF93EC016A017B01411528
:1018B00081EE580761057105F9F0EC89FD8981E039
:1018C00090E008A002C0880F991F0A94E2F7808375
:1018D00060E079E08DE390E0A70196010E945B0F44
:1018E000215031094109510956954795379527955A
:1018F000211580E1380798F0EC89FD89108260E8B5
:1019000074E88EE190E0A70196010E945B0F2150E0
:101910003109410951095695479537952795E88929
:10192000F9893083EA89FB89208319A2EE89FF892E
:10193000408181E090E09C010C8C02C0220F331F9B
:101940000A94E2F7422B4083EE89FF8940819C0193
:101950000D8C02C0220F331F0A94E2F7422B408302
:10196000EE89FF8940819C010E8C02C0220F331F3B
:101970000A94E2F7422B4083EE89FF8920810F8C85
:1019800002C0880F991F0A94E2F780958223808312
:10199000DF91CF91FF90EF90DF90CF90089510925C
:1019A000D3021092D20288EE93E0A0E0B0E08093E0
:1019B000D4029093D502A093D602B093D70287E8C1
:1019C00092E09093D1028093D00286E393E09093CB
:1019D000DD028093DC0282EF92E09093DF0280933D
:1019E000DE0285EC90E09093E1028093E00284ECCB
:1019F00090E09093E3028093E20280EC90E0909379
:101A0000E5028093E40281EC90E09093E7028093FA
:101A1000E60282EC90E09093E9028093E80286EC83
:101A200090E09093EB028093EA0284E08093EC02D2
:101A300083E08093ED0287E08093EE0285E080935F
:101A4000EF0281E08093F0020895F8940C94970FD0
:101A50005058BB27AA270ED075C166D130F06BD184
:101A600020F031F49F3F11F41EF45BC10EF4E095B9
:101A7000E7FB51C1E92F77D180F3BA1762077307EB
:101A80008407950718F071F49EF58FC10EF4E09568
:101A90000B2EBA2FA02D0B01B90190010C01CA0128
:101AA000A0011124FF27591B99F0593F50F4503ED3
:101AB00068F11A16F040A22F232F342F4427585FC5
:101AC000F3CF469537952795A795F0405395C9F7DD
:101AD0007EF41F16BA0B620B730B840BBAF0915095
:101AE000A1F0FF0FBB1F661F771F881FC2F70EC034
:101AF000BA0F621F731F841F48F487957795679507
:101B0000B795F7959E3F08F0B3CF9395880F08F0EF
:101B10009927EE0F979587950895D9D008F481E01D
:101B200008950CD00FC107D140F0FED030F021F461
:101B30005F3F19F0F0C0511139C1F3C014D198F3CF
:101B40009923C9F35523B1F3951B550BBB27AA273E
:101B500062177307840738F09F5F5F4F220F331FB0
:101B6000441FAA1FA9F333D00E2E3AF0E0E830D07C
:101B700091505040E695001CCAF729D0FE2F27D07F
:101B8000660F771F881FBB1F261737074807AB074D
:101B9000B0E809F0BB0B802DBF01FF2793585F4FC2
:101BA0002AF09E3F510568F0B6C000C15F3FECF3DC
:101BB000983EDCF3869577956795B795F7959F5F87
:101BC000C9F7880F911D9695879597F90895E1E0DB
:101BD000660F771F881FBB1F621773078407BA073A
:101BE00020F0621B730B840BBA0BEE1F88F7E09595
:101BF000089504D06894B111D9C00895BCD088F07C
:101C00009F5790F0B92F9927B751A0F0D1F0660FE8
:101C1000771F881F991F1AF0BA95C9F712C0B13003
:101C200081F0C3D0B1E00895C0C0672F782F882716
:101C3000B85F39F0B93FCCF3869577956795B39542
:101C4000D9F73EF490958095709561957F4F8F4FB1
:101C50009F4F0895E89409C097FB3EF490958095B6
:101C6000709561957F4F8F4F9F4F9923A9F0F92F62
:101C700096E9BB279395F695879577956795B795E0
:101C8000F111F8CFFAF4BB0F11F460FF1BC06F5FC6
:101C90007F4F8F4F9F4F16C0882311F096E911C0D8
:101CA000772321F09EE8872F762F05C0662371F0F9
:101CB00096E8862F70E060E02AF09A95660F771F0D
:101CC000881FDAF7880F9695879597F90895990FE9
:101CD0000008550FAA0BE0E8FEEF16161706E807F6
:101CE000F907C0F012161306E407F50798F0621B17
:101CF000730B840B950B39F40A2661F0232B242BEC
:101D0000252B21F408950A2609F4A140A6958FEF0A
:101D1000811D811D089597F99F6780E870E060E05C
:101D200008959FEF80EC089500240A941616170674
:101D300018060906089500240A94121613061406BC
:101D400005060895092E0394000C11F4882352F01F
:101D5000BB0F40F4BF2B11F460FF04C06F5F7F4FD7
:101D60008F4F9F4F089557FD9058440F551F59F0BE
:101D70005F3F71F04795880F97FB991F61F09F3F78
:101D800079F087950895121613061406551FF2CFA1
:101D90004695F1DF08C0161617061806991FF1CFF1
:101DA00086957105610508940895E894BB27662718
:101DB0007727CB0197F908958ADF08F48FEF08950C
:101DC0000BD0C0CFB1DF28F0B6DF18F0952309F0B3
:101DD000A2CFA7CF1124EACFC6DFA0F3959FD1F3FE
:101DE000950F50E0551F629FF001729FBB27F00DC9
:101DF000B11D639FAA27F00DB11DAA1F649F66271E
:101E0000B00DA11D661F829F2227B00DA11D621F6C
:101E1000739FB00DA11D621F839FA00D611D221F26
:101E2000749F3327A00D611D231F849F600D211D0A
:101E3000822F762F6A2F11249F5750408AF0E1F0AD
:101E400088234AF0EE0FFF1FBB1F661F771F881FF6
:101E500091505040A9F79E3F510570F05CCFA6CF3E
:101E60005F3FECF3983EDCF3869577956795B795E1
:101E7000F795E7959F5FC1F7FE2B880F911D96950B
:101E8000879597F9089523DF880B990B089597FBA1
:101E9000072E16F4009407D077FD09D00E947D0F1D
:101EA00007FC05D03EF4909581959F4F089570955D
:101EB00061957F4F0895A1E21A2EAA1BBB1BFD015D
:101EC0000DC0AA1FBB1FEE1FFF1FA217B307E40719
:101ED000F50720F0A21BB30BE40BF50B661F771F71
:101EE000881F991F1A9469F7609570958095909551
:101EF0009B01AC01BD01CF010895AA1BBB1B51E1A1
:101F000007C0AA1FBB1FA617B70710F0A61BB70B69
:101F1000881F991F5A95A9F780959095BC01CD010E
:101F20000895EE0FFF1F0590F491E02D0994F894A9
:021F3000FFCFE1
:101F32005E00BC007701556E61626C6520746F2093
:101F420066696E64206164647265737320666F7281
:101F520020446576696365203000556E61626C6568
:101F620020746F2066696E642061646472657373A5
:101F720020666F7220446576696365203100556E74
:101F820061626C6520746F2066696E6420616464AE
:101F92007265737320666F7220696E73696465542B
:101FA2006865726D6F6D6574657200556E61626C05
:101FB2006520746F2066696E642061646472657363
:101FC2007320666F72206F757473696465546865F7
:101FD200726D6F6D657465720044616C6C61732023
:101FE20054656D7065726174757265204943204352
:101FF2006F6E74726F6C204C6962726172792044E8
:10200200656D6F004C6F636174696E6720646576FD
:10201200696365732E2E2E00466F756E6420002054
:10202200646576696365732E0050617261736974C9
:102032006520706F7765722069733A20004F4E00F9
:102042004F464600446576696365203020526573C9
:102052006F6C7574696F6E3A2000446576696365CA
:102062002031205265736F6C7574696F6E3A20006F
:1020720044657669636520302041646472657373D8
:102082003A200044657669636520312041646472B8
:102092006573733A200054686973206A75737420FB
:1020A200696E2E2E2E20006E616E00696E66006FC4
:1020B20076660000000000920B0E093E0B670B4E85
:0420C2000B870B007D
:00000001FF
