:020000041000EA
:1000000000B5324B212058609868022188439860DF
:10001000D860186158612E4B002199600221596106
:100020000121F02299502B49196001219960352056
:1000300000F044F80222904214D00621196600F024
:1000400034F8196E01211966002018661A6600F04E
:100050002CF8196E196E196E052000F02FF8012189
:100060000842F9D1002199601B49196000215960AB
:100070001A491B48016001219960EB211966A021F2
:10008000196600F012F800219960164914480160C1
:100090000121996001BC002800D000471248134993
:1000A000086003C880F30888084703B5996A0420EC
:1000B0000142FBD001200142F8D103BD02B5186610
:1000C0001866FFF7F2FF186E186E02BD00000240BE
:1000D000000000180000070000035F00212200005C
:1000E000F4000018222000A00001001008ED00E03C
:1000F00000000000000000000000000074B24E7A12
:1001000000200420F7010010C3010010C5010010F9
:10011000C1010010C1010010C1010010C101001097
:10012000C1010010C1010010C1010010C701001081
:10013000C1010010C1010010C9010010CB01001065
:10014000CD010010CD010010CD010010CD01001037
:10015000CD010010CD010010CD010010CD01001027
:10016000CD010010CD010010CD010010CD01001017
:10017000CD010010CD010010CD010010CD01001007
:10018000CD010010CD010010CD010010CD010010F7
:10019000CD010010CD010010CD010010CD010010E7
:1001A000CD010010CD010010CD010010CD010010D7
:1001B000CD010010CD010010CD010010CD010010C7
:1001C00000BE00BE00BE00BE00BE00BE00F04BF888
:1001D000103800BEF2EB8871680C0510900C051009
:1001E0003402001090A31AE700202149086006C8D5
:1001F00081F3088810471F48006800282FD10DA4FC
:100200000ECC002902D000F012F8F9E71A491B4A77
:10021000002000E001C19142FCD1194988471949E9
:1002200088471949884700BEFDE701C901C29A42C3
:10023000FBD37047900C0510C00000203C07002045
:100240000C13051000000420000004200C130510FE
:1002500000100420001004200000000070470B482C
:1002600000F07CFD0047EFF30580C0B2704700004E
:1002700008ED00E0000000D04007002028CE00205C
:10028000DD7800105D030010D17900105756000092
:1002900006005250ABB36053E49601100600525072
:1002A000861C0302F4960110060052505422A29DAF
:1002B0000097011005005250DE65F4680C1305101C
:1002C000F8B5C0460448054B10B5834203D0044B33
:1002D000002B00D0984710BD3C0700203C070020B1
:1002E0000000000006480749091A8910CB0F591869
:1002F00010B5491003D0044B002B00D0984710BD17
:100300003C0700203C0700200000000010B5074C0F
:100310002378002B09D1FFF7D5FF054B002B02D026
:10032000044800E000BF0123237010BD48080020EE
:1003300000000000888A0110054B10B5002B03D087
:100340000449054800E000BFFFF7CCFF10BDC046E0
:10035000000000004C080020888A011010B50AF047
:10036000ABFE104800F0D4F8002816D10E480AF071
:10037000C1FD00F029F80D4B0D4A0E490E4800F062
:1003800031F8041E04D10D480AF0B4FD200010BD60
:100390000B480AF0AFFD0124F8E70A480AF0AAFD6D
:1003A0000124F3E747420000A08A01101027000053
:1003B000040040000006002010060020C08A011042
:1003C000AC8A0110888A011010B5044B01221B6809
:1003D0000021034805F06AFB10BDC0461C06002042
:1003E00080180020F0B5D6464F464646C0B584B0CA
:1003F0001C0092468146884606F012FEFA2206004C
:100400000F0020009200002300210AF0F3FB801966
:10041000794104000D008F4224D821D0484618F0BD
:1004200049FA43460600002B26D0404618F042FA0F
:100430000300002203920292524601924246214F4B
:10044000009231004A46380005F094FC80460028AE
:1004500014D0404604B01CBC90469946A246F0BD5C
:100460008642DBD9484618F025FA43460124644207
:10047000E5170600002BD8D1C246DAE7124BAA4690
:1004800099460021380005F069F8060000F07CFA72
:100490002000290006F086FC4B465B6A9A4509D885
:1004A0004A46926AA24201D29A4503D001235B4296
:1004B0009846CEE7002E02DB032EE2D1C9E7B04614
:1004C000C7E7C046801800200040054010B582B044
:1004D00068460C0000F062FA6B460622991C200068
:1004E0000AF0E6FB01222378934302221343237090
:1004F00002B010BD044B10B59C460800034906220B
:1005000061440AF0D5FB10BD880900008018002066
:1005100010B5024B186000F0E3F810BD1C06002077
:1005200070B50F4C0021200018F066FA002805D0A5
:100530006379012B06D0200018F08EFA094818F0D4
:1005400033FA70BD084D2B68002B02D000222A60C0
:1005500098476B68002BEED000226A609847EAE764
:10056000400E0020741800209417002010B513F0DE
:1005700037F8144B1A68002A1DD013490B68002B5A
:1005800019D0013B0B60002B15D1104B1A60D02203
:100590000F4B12061B78126893420DD05A1E9341DE
:1005A00030225B4213400B4A9446802263449201FE
:1005B000134302221A6010BD074B187805F020FD86
:1005C000F9E7C046102200207C1800209417002074
:1005D000641800201C4101406A1800200F4B104A8B
:1005E00010B55A60D0220F4B12061B781268934246
:1005F0000FD05A1E934130225B4213400A4A944660
:10060000802263449201134302221A6007480021AA
:1006100010BD074B187805F0F3FCF7E7941700209E
:100620006D050010641800201C41014050C30000FB
:100630006A18002070B5D0252D062B6830245A1E6C
:1006400093411A4A022694465B4223406344DB6A84
:100650001E4200D170BD00220221182005F046FC88
:100660002B685A1E9341124A5B429446C022234093
:100670009201634413431E600E4B1A680E4B1A60BE
:100680000E4B2A681B7893420BD05A1E93415B4253
:100690001C40074B9C46802364449B011C432660FE
:1006A000D8E7074B187805F0ABFCD3E700410140D1
:1006B0001C410140102200209417002064180020E3
:1006C0006A18002010B50400FFF7CDFD002803D103
:1006D0002100024818F0B8F910BDC0467418002077
:1006E000D02370B51B061A683F4B84B03F481A7080
:1006F00007F062F83E4804F0A7FF012200213D48C0
:1007000005F032FF06F02AF9040006F089FC002308
:10071000394A12184B41994260D901225242D317EB
:10072000012102910021019134492000009106F03D
:1007300019F9334C206000284DDB8020314D4022D8
:100740002900800105F0FAFB01220221182005F0A2
:10075000CDFB0D20012105F041FC0DF00FFB002029
:1007600005F0EAFE002811DBFF23274C2749207003
:10077000184005F06BFC2078012105F02FFC207853
:10078000FF2105F04BFE002004B070BD2668002E4E
:1007900007DB06F0E3F8310006F0BAF901235B420B
:1007A000236000220221182005F0A0FB80202900F0
:1007B000800105F0E5FB144C207800280BD00021C7
:1007C00005F00CFC2078114905F04EFD207805F06D
:1007D000A5FE0023237002204042D5E799429FD115
:1007E00090429AD89CE7C04664180020400E002032
:1007F000801800207418002050C30000DD05001090
:1008000020060020350600106A180020210500107F
:1008100010B501220221182005F068FB10BDC0466A
:10082000D02210B50D4B120618600D4B12681B78C4
:1008300093420DD05A1E934130225B421340094A25
:100840009446802263449201134302221A6010BD31
:10085000054B187805F0D4FBF9E7C0469417002043
:10086000641800201C4101406A18002010B502489D
:1008700018F0D2F810BDC046400E002010B5144C40
:100880006379012B03D0200018F0E6F810BD114B5E
:100890001A68002AF7D0104A12681A60D0220F4B4B
:1008A00012061B78126893420DD05A1E93413022D3
:1008B0005B4213400A4A94468022634492011343E8
:1008C00002221A60DFE7074B187805F099FBDAE798
:1008D000400E0020941700201022002064180020F1
:1008E0001C4101406A180020F8B5040006F098FB8E
:1008F000FA2206000F0020009200002300210AF0D7
:1009000079F98019794104000D008F420BD9012437
:100910006442E517FFF7A7FC00280CD1200029004E
:1009200006F02EF9F8BD8F42F4D18642EFD8FFF7DA
:100930009AFC0028F2D02000290006F07DFBF1E7A8
:1009400070B50600002506F06BFB340024184D41FD
:10095000A9420BD901246442E517FFF784FC002863
:100960000CD12000290006F00BF970BDA942F4D18A
:10097000A042EFD8FFF777FC0028F2D02000290032
:1009800006F05AFBF1E7C0467047C04610B5024872
:1009900000F0F2F810BDC046F417002010B5082290
:1009A00001490AF085F910BDF4170020013930B56E
:1009B000002900D1B4E06F4B1A781211D5B22C0087
:1009C0003034092A00DDAEE00470012900D1A6E030
:1009D0000F221C78224014003034092A00D9A4E0E8
:1009E0004470022900D19AE05A781211D5B22C0035
:1009F0003034092A00DD9BE08470032900D18EE0A9
:100A00000F225C78224014003034092A00D991E08A
:100A1000C470042900D182E09A781211D5B22C005A
:100A20003034092A00DD88E00471052977D00F22CF
:100A30009C78224014003034092A00D97FE04471A8
:100A400006296CD0DA781211D4B225003035092A83
:100A500000DD77E08571072961D00F22DC78224024
:100A600014003034092A00D96FE0C471082956D027
:100A70001A791211D5B22C003034092A00DD07345E
:100A8000047209294BD00F221C7922401400303403
:100A9000092A01D93732140044720A293FD05A7901
:100AA0001211D4B225003035092A01DD3734250072
:100AB00085720B2933D00F225C7922401400303428
:100AC000092A49D8C4720C2929D09A791211D5B2B1
:100AD0002C003034092A42DC04730D291FD00F2268
:100AE0009C79224014003034092A3AD844730E29E4
:100AF00015D0DA791211D5B22C003034092A33DC42
:100B000084730F290BD0DA790F2313401A00373280
:100B1000092B2BD9C273102901D0103000E04018E6
:100B20000023037030BD07344EE73732140057E717
:100B3000073461E7373214006AE7073474E7373265
:100B400014007CE73734250084E737321400C47181
:100B5000082900D08CE7E2E737321400B2E7073407
:100B6000BAE737321400C1E70734C9E730331A0057
:100B7000D0E7C046F417002010B588B004000D225D
:100B8000002168460AF08EF80D22002104A80AF020
:100B900089F84B236A4604A9137068460D2217F0A2
:100BA0000BFF15210822694420000AF081F808B0E3
:100BB00010BDC046EFF3108072B6034A1368002BD5
:100BC000FCD0BFF35F8F70472C0100D0BFF35F8F65
:100BD0000022024B1A6080F3108870472C0100D06D
:100BE000F8B5EFF3108772B60D4E3368002BFCD0CA
:100BF000BFF35F8F0725CB08C01801230D40AB4022
:100C00001D000478254007D123430370BFF35F8F95
:100C1000356087F31088F8BD100006F0DBFEC04693
:100C20002C0100D0F8B5CE4647468C4680B5EFF390
:100C3000108972B6214D2C68002CFCD0BFF35F8F59
:100C40009A422CD80721012511408D40D40804195F
:100C5000267835421FD007218846063909E04546E7
:100C60000F001540AF40D408041926783D003742E4
:100C700011D001329342F2D201204042BFF35F8F84
:100C800000220E4B1A6089F3108800280FDB0CBC81
:100C900090469946F8BD354325701000EEE7BFF346
:100CA0005F8F00232B6089F3108801204042634648
:100CB000002BECD0089806F08DFEC0462C0100D029
:100CC00030B5EFF3108572B60A4C2368002BFCD0C8
:100CD000BFF35F8FCB08C0180723012219408A4059
:100CE000037893430370BFF35F8F0023236085F382
:100CF000108830BD2C0100D0024B18688007C00F4F
:100D00007047C04600C006400021044B044ABFF3B0
:100D10005F8F02C39342FAD17047C046000100D0F2
:100D2000800100D0044A1078431CDBB2172B00D995
:100D3000102313707047C0462406002000B5054BF1
:100D400083B00100009318221F230348FFF76AFFB6
:100D500003B000BDCC8A0110100E0020142310B582
:100D60000100188804331B88984710BD162310B55E
:100D70000100188802331B88984710BDF0B5C6469D
:100D800000B5002916D01423040001259846182721
:100D9000890046184346216818883B88984701C453
:100DA000431E984140420540A642F3D1280004BCAE
:100DB0009046F0BD0125F9E710B5052006F08CFF3F
:100DC000030C64200349584309F0B6FB0338FDD2F5
:100DD00010BDC0469A3B0000F0B5DE4657464E4671
:100DE0004546E0B5934685B00F1E00D1BBE0842395
:100DF0001B01C4588022D02301251B0692049A614E
:100E00002179182005F02CF806212A006156CC26FD
:100E10008A402068B4460368934303600523E35681
:100E200098464B005B18DB00C21894446246126877
:100E3000D033914642460132160303964E4EC318F4
:100E4000B2464E46524616403200039E16433200CA
:100E50004646F60132436646326080225201134311
:100E6000802212061A601A6080235B041A000CF0BC
:100E7000E5FE06212E00615622680B1D9E403300C0
:100E800010682E00034313600B0008339E403300AC
:100E90001068034313605B468800DB001018013BB9
:100EA00003614B005B18DB003449D318D833196059
:100EB00000210161324919601F21607901401960E8
:100EC0000723E356A0209D402E49C00545502E48DB
:100ED0008025844699018C446D0460460068284250
:100EE000FBD12A48DB021518681E85412848AD044D
:100EF00003402848034358468608A020C00584467E
:100F0000100061442B4310300F6048608E60CB604E
:100F100080210120490491601368034313609368A2
:100F20000B42FCD006210122615620688A400368EA
:100F30009343036000231822009301330CF0C2FE98
:100F40000621615623684A005218D2009B18124AA3
:100F5000D8331A60D02380221B0692045A61FFF70F
:100F60002BFF002001E00520404205B03CBC90462C
:100F70009946A246AB46F0BD7F00FEFF2060000010
:100F800040600000440400000C0000500000E0AF8E
:100F90003F7800FF1900400003A00000F0B546466E
:100FA000D6464F46C0B5664D82B00600290065485A
:100FB0000CF080FD002809D1290063480CF07AFD6F
:100FC000002800D1B4E006225F4801E007225D4816
:100FD0008427FF235D4C3F01F451002120602372E0
:100FE000E37122710CF048FD40B2A071002800DAD4
:100FF000A1E0290020680CF091FD40B2421D607113
:101000001203C00110433023514AC82702409246C0
:1010100001225048BC46016880278B434E49BF02DD
:101020000B6003681000984308602068802301006B
:101030009B0138310B438021490419600621B846D1
:10104000615691464B005B18DB00C3189C44674611
:1010500042463A60CC2294469C446246574617600A
:101060001A00C027D032BF0217603C4ADC331A6036
:101070004B461D2200930CF025FE2179182004F028
:10108000EFFE21791D2004F0EBFE01220021182043
:1010900004F0FEFE0121182004F014FF0622A256DF
:1010A000002053009B182268DB0094462C4A6344BE
:1010B000D8331A600CF052FEE07100200CF04EFEA6
:1010C000E27943B223727F2A08D80020002B05DB87
:1010D00002B01CBC90469946A246F0BD84231B0179
:1010E000F458002C24D00621615600290CDB05227F
:1010F000A2562068531C05D029000CF085FD06215E
:10110000206861560CF0A8FC07202056002803DB5D
:101110000CF01CFEFF23E37108202056002803DB9F
:101120000CF014FEFF232372842300221B01F250D3
:1011300006204042CCE7F459002CD4D1F8E7C04651
:10114000E88A01100000305000002050040E0020FA
:10115000FFFFFF9F78C0014078D0014018771C2422
:1011600001E0000010B5172004F01AFFD0248023FE
:1011700024061B04636200220121172004F088FE6C
:10118000182004F00DFF80235B0463621920A36123
:1011900004F006FF80239B046362636110BDC046B8
:1011A00070B5D024802524062D04A561142005F0F7
:1011B000DDFD6561FA2005F0D9FD182004F0F0FE90
:1011C00080235B04A36270BDF0B5DE4657464E46F1
:1011D00045460023E0B583B00193794BD2021A4013
:1011E000842309070A4377491B01C4581143D023BC
:1011F00049BA802201251B06920400919A61217947
:10120000182004F02DFE06212A00615605278A4089
:1012100020680368934303604B005B18DB00C6182B
:10122000CC363268E75794467A1D99461303664ACE
:101230009A469046624643461A4013005246FF01C2
:101240001A433A434B4632608022D033C3185201CE
:101250001343802212061A601A6080235B041A006E
:101260000CF0ECFC06202E0020562268031D9E4048
:10127000330011682E000B431360030008339E40B7
:1012800033001168514F0B431F21136043001B189B
:10129000DB008600D318D833961931611F603161A5
:1012A0004B4E4C4F1E6066793140196007216156E4
:1012B000A0238D40484EDB059D518D01AB46802516
:1012C0001E005F446D043B682B42FCD108270123BC
:1012D000E757414DBB407351BB019A4680263D4DB7
:1012E000760455442B683342FCD13C4BC9029A42E8
:1012F00060D0C023DB0298468023DB0299464D462E
:10130000374B6E469C461940364BFF0219430D433E
:10131000A021C90559440E60160010364E60012602
:101320008E60CD6061460F4041463B430B43102128
:10133000A0258B4310310B431100ED05554420319E
:10134000296001A96960AE608640EB6013681E43A6
:1013500016600722244B80219C46A2564904920124
:10136000624413680B42FCD108221F4B80219C462B
:10137000A25649049201624413680B40FCD1062135
:101380000093615623684A005218D2009B18174AEE
:10139000D8331A60D02380221B0692045A61FFF7CB
:1013A0000BFD019840BA03B03CBC90469946A2465A
:1013B000AB46F0BD80239B029846002399469EE7EA
:1013C00000F8FF0F040000407F00FEFF20600000D7
:1013D000406000000C000050440400000000205059
:1013E0003F7800FF190040001000005003A00000EB
:1013F000F0B5DE4657464E464546E0B587B0012972
:1014000000D102E10123002401931E339B46009486
:101410001B3B854CD2022240090711438022D20592
:101420001143194384231B01C4588022D023012572
:101430001B06920403919A612179182004F010FD93
:1014400006212A00615620688A400368774E93433C
:1014500003600523E356B24698464B005B18DB0059
:10146000C718CC373A68D03391464246053212034A
:1014700094464E46524616403200664616433200A7
:101480004646F60132433A608022C31852011343A4
:10149000802212061A601A60802306275B041A0055
:1014A0000CF0CCFB2800E75723683A1D904002005F
:1014B000196828000A431A603A0008329040020076
:1014C00019685B4E0A431F211A607A00D219D200B4
:1014D000B8009A18D8321818016116605E46066185
:1014E0005448554E10606079014011600722A256A1
:1014F000A02195405148C9050D509001804680209B
:101500000D004644400431680142FCD10826012107
:10151000A6574A48B1402950B1018946802546481E
:101520006D04484401682942FCD14549D2028B42EE
:1015300000D172E0C021C9028B468021C9028C46CD
:101540006046404903AD8A460A403F49F6020A43D5
:101550001043A0221021D2054244884698444146B7
:101560001560516001219160D060524616405A4684
:1015700088463549A020314311431022914310324F
:1015800011431A00C00548442032026004AA426098
:10159000019A82604246BA40C16019680A431A60E3
:1015A00007222A4B80219C46A2564904920162449C
:1015B00013680B42FCD10822244B80219C46A25682
:1015C00049049201624413680B40FCD10621039345
:1015D000615623684A005218D2009B181C4AD8331F
:1015E0001A60D02380221B0692045A61FFF7E4FBA5
:1015F000009B5A1E934101339B00E85807B03CBC46
:1016000090469946A246AB46F0BD022304240193BE
:101610003D339B460094373BFBE6802189028B4695
:1016200000218C468CE7C04600F8FF0F7F00FEFFCC
:1016300020600000406000000C00005044040000E6
:10164000000020503F7800FF1900400010000050BB
:1016500003A00000F0B5DE4657464E464546E0B5CD
:1016600087B0012900D102E10123002401931E3338
:101670009B4600941D3B854CD20222400907114332
:101680008022D2051143194384231B01C4588022B0
:10169000D02301251B06920403919A612179182019
:1016A00004F0DEFB06212A00615620688A400368A8
:1016B000774E934303600523E356B24698464B00AA
:1016C0005B18DB00C718CC373A68D03391464246E6
:1016D0000532120394464E46524616403200664684
:1016E000164332004646F60132433A608022C31860
:1016F00052011343802212061A601A6080230627C3
:101700005B041A000CF09AFA2800E75723683A1D88
:1017100090400200196828000A431A603A00083213
:101720009040020019685B4E0A431F211A607A003C
:10173000D219D200B8009A18D83218180161166070
:101740005E4606615448554E106060790140116054
:101750000722A256A02195405148C9050D5090017D
:10176000804680200D004644400431680142FCD18F
:1017700008260121A6574A48B1402950B10189469F
:10178000802546486D04484401682942FCD14549FA
:10179000D2028B4200D172E0C021C9028B46802167
:1017A000C9028C466046404903AD8A460A403F491B
:1017B000F6020A431043A0221021D2054244884673
:1017C000984441461560516001219160D0605246B5
:1017D00016405A4688463549A0203143114310220D
:1017E0009143103211431A00C00548442032026070
:1017F00004AA4260019A82604246BA40C1601968F8
:101800000A431A6007222A4B80219C46A2564904AB
:101810009201624413680B42FCD10822244B8021C0
:101820009C46A25649049201624413680B40FCD1C5
:1018300006210393615623684A005218D2009B1870
:101840001C4AD8331A60D02380221B0692045A61A6
:10185000FFF7B2FA009B5A1E934101339B00E858F0
:1018600007B03CBC90469946A246AB46F0BD022369
:10187000042401933D339B460094393BFBE68021D1
:1018800089028B4600218C468CE7C04600F8FF0F8A
:101890007F00FEFF20600000406000000C00005050
:1018A00044040000000020503F7800FF1900400071
:1018B0001000005003A00000F0B5DE4657464E462B
:1018C0004546E0B587B0012900D102E1012300249B
:1018D00001931E339B4600941E3B854CD20222404E
:1018E000090711438022D2051143194384231B01A8
:1018F000C4588022D02301251B06920403919A61CB
:101900002179182004F0ACFA06212A0061562068DB
:101910008A400368774E934303600523E356B2463B
:1019200098464B005B18DB00C718CC373A68D033B9
:10193000914642460532120394464E4652461640A0
:1019400032006646164332004646F60132433A609C
:101950008022C31852011343802212061A601A60B3
:10196000802306275B041A000CF068F92800E7576B
:1019700023683A1D90400200196828000A431A6043
:101980003A0008329040020019685B4E0A431F215A
:101990001A607A00D219D200B8009A18D8321818F2
:1019A000016116605E4606615448554E10606079CC
:1019B000014011600722A256A02195405148C90557
:1019C0000D509001804680200D004644400431684F
:1019D0000142FCD108260121A6574A48B1402950AE
:1019E000B1018946802546486D0448440168294272
:1019F000FCD14549D2028B4200D172E0C021C9021C
:101A00008B468021C9028C466046404903AD8A4618
:101A10000A403F49F6020A431043A0221021D20592
:101A200042448846984441461560516001219160C6
:101A3000D060524616405A4688463549A020314368
:101A4000114310229143103211431A00C00548443B
:101A50002032026004AA4260019A82604246BA4083
:101A6000C16019680A431A6007222A4B80219C46EC
:101A7000A25649049201624413680B42FCD1082229
:101A8000244B80219C46A25649049201624413686B
:101A90000B40FCD106210393615623684A0052187B
:101AA000D2009B181C4AD8331A60D02380221B0610
:101AB00092045A61FFF780F9009B5A1E934101334B
:101AC0009B00E85807B03CBC90469946A246AB46FE
:101AD000F0BD0223042401933D339B4600943A3B1E
:101AE000FBE6802189028B4600218C468CE7C046AC
:101AF00000F8FF0F7F00FEFF206000004060000044
:101B00000C00005044040000000020503F7800FF0B
:101B1000190040001000005003A00000F0B55BBAAF
:101B2000DE46454657464E46E0B585B002AD6B6091
:101B30008423604CD202224009070A435E491B01FC
:101B4000C4581143D02349BA802201261B069204AF
:101B500002919A612179182004F082F9062132005D
:101B6000615620688A400368934303600523E35667
:101B70009C464B005B18DB00C718CC379A463B6885
:101B8000984663465A1C13039B464C4B9946434662
:101B90004A4613405A461A436346DB011A435346EA
:101BA0003A608022D033C3185201134380221206B8
:101BB0001A601A6080235B041A000CF03FF80621BB
:101BC0003700615623680A1D97403A0018683700AD
:101BD00002431A600A00083297403A00186802432C
:101BE0001A603F228800181802614A005218D20079
:101BF00033499A18D83211600021016131491160CE
:101C00001F2160790140116007216156A0208E409C
:101C10002D4AC005865080202C4A8F01BE184004F2
:101C200032680242FCD12A4AC9029818421E9041E9
:101C3000284A80041140284A1143A022D2050143BA
:101C400094461800674410303D6078600220B86008
:101C5000F9608021490499601A68013802431A60CA
:101C60009A680A42FCD006210122615620688A4007
:101C700003689343036000231822009301330CF0A0
:101C800021F80621615623684A005218D2009B1899
:101C9000124AD8331A60D02380221B0692045A615C
:101CA000FFF78AF8002005B03CBC90469946A24652
:101CB000AB46F0BD00F8FF0F040000C07F00FEFF40
:101CC0002060000040600000440400000C00005050
:101CD0000000E0AF3F7800FF1900400003A00000C3
:101CE000F0B54546DE4657464E46E0B5684CD20252
:101CF00022400C072243674C85B0224302AD02927A
:101D00006B6001290AD10824634944506349425059
:101D1000634A8350852382681B01C25084231B01C0
:101D2000C4588022D02301261B0692049A6121798F
:101D3000182004F095F806213200615620688A4088
:101D40000368934303600523E3569C464B005B18EE
:101D5000DB00C718CC379A463B68984663465A1C46
:101D600013039B464F4B994643464A4613405A46F7
:101D70001A436346DB011A4353463A608022D0334C
:101D8000C31852011343802212061A601A6080237E
:101D90005B041A000BF052FF0621370061562368DE
:101DA0000A1D97403A001868370002431A600A007B
:101DB000083297403A00186802431A603F228800B0
:101DC000181802614A005218D20037499A18D832BE
:101DD000116000210161354911601F2160790140C6
:101DE000116007216156A0208E40314AC0058650FF
:101DF0008020304A8F01BE18400432680242FCD174
:101E00002D4AC9029818421E90412C4A8004114064
:101E10002B4A1143A022D20501439446180067447F
:101E200010303D6078600220B860F960802149047C
:101E300099601A68013802431A609A680A42FCD015
:101E400006210122615620688A400368934303609B
:101E500000231822009301330BF034FF0621615652
:101E600023684A005218D2009B18164AD8331A60C9
:101E7000D02380221B0692045A61FEF79DFF0020AA
:101E800005B03CBC90469946A246AB46F0BDC04664
:101E900000F8FF0F040000C04C08000044080000D8
:101EA000480800007F00FEFF206000004060000046
:101EB000440400000C0000500000E0AF3F7800FF39
:101EC0001900400003A00000F0B54546DE46574625
:101ED0004E46E0B5684CD20222400C072243674CC4
:101EE00085B0224302AD02926B6001290AD1082419
:101EF0006349445063494250634A83508523826852
:101F00001B01C25084231B01C4588022D023012608
:101F10001B0692049A612179182003F0A1FF062183
:101F20003200615620688A400368934303600523AA
:101F3000E3569C464B005B18DB00C718CC379A462B
:101F40003B68984663465A1C13039B464F4B994681
:101F500043464A4613405A461A436346DB011A4336
:101F600053463A608022D033C31852011343802273
:101F700012061A601A6080235B041A000BF05EFEE2
:101F800006213700615623680A1D97403A001868F9
:101F9000370002431A600A00083297403A00186876
:101FA00002431A603F228800181802614A00521842
:101FB000D20037499A18D8321160002101613549A1
:101FC00011601F2160790140116007216156A02036
:101FD0008E40314AC00586508020304A8F01BE189D
:101FE000400432680242FCD12D4AC9029818421EB0
:101FF00090412C4A800411402B4A1143A022D20563
:10200000014394461800674410303D607860022018
:10201000B860F9608021490499601A680138024368
:102020001A609A680A42FCD0062101226156206893
:102030008A4003689343036000231822009301330E
:102040000BF040FE0621615623684A005218D20068
:102050009B18164AD8331A60D02380221B0692049C
:102060005A61FEF7A9FE002005B03CBC9046994697
:10207000A246AB46F0BDC04600F8FF0F020000C00C
:102080004C08000044080000480800007F00FEFFE4
:102090002060000040600000440400000C0000507C
:1020A0000000E0AF3F7800FF1900400003A00000EF
:1020B000F0B54546DE4657464E46E0B5684CD2027E
:1020C00022400C072243674C85B0224302AD0292A6
:1020D0006B6001290AD10824634944506349425086
:1020E000634A8350852382681B01C25084231B01ED
:1020F000C4588022D02301261B0692049A612179BC
:10210000182003F0ADFE06213200615620688A4097
:102110000368934303600523E3569C464B005B181A
:10212000DB00C718CC379A463B68984663465A1C72
:1021300013039B464F4B994643464A4613405A4623
:102140001A436346DB011A4353463A608022D03378
:10215000C31852011343802212061A601A608023AA
:102160005B041A000BF06AFD0621370061562368F4
:102170000A1D97403A001868370002431A600A00A7
:10218000083297403A00186802431A603F228800DC
:10219000181802614A005218D20037499A18D832EA
:1021A000116000210161354911601F2160790140F2
:1021B000116007216156A0208E40314AC00586502B
:1021C0008020304A8F01BE18400432680242FCD1A0
:1021D0002D4AC9029818421E90412C4A8004114091
:1021E0002B4A1143A022D2050143944618006744AC
:1021F00010303D6078600220B860F96080214904A9
:1022000099601A68013802431A609A680A42FCD041
:1022100006210122615620688A40036893430360C7
:1022200000231822009301330BF04CFD0621615668
:1022300023684A005218D2009B18164AD8331A60F5
:10224000D02380221B0692045A61FEF7B5FD0020C0
:1022500005B03CBC90469946A246AB46F0BDC04690
:1022600000F8FF0F010000C04C0800004408000007
:10227000480800007F00FEFF206000004060000072
:10228000440400000C0000500000E0AF3F7800FF65
:102290001900400003A00000F0B54546DE46574651
:1022A0004E46E0B5984687B00500012900D13CE1D3
:1022B0001E00182300240493173B9F48D2021040AD
:1022C0008022D20502430433090711439B003143A6
:1022D000EB18596043460322033393431B190293BF
:1022E00084231B01EC588022D02301261B06920474
:1022F0009A612179182003F0B3FD0621320061565E
:1023000020688A400368934305220360A2564B006D
:102310009146CC2294465B18DB00C718BC44624649
:102320001268D03392464A46053217030197834F0D
:10233000C318BB4657465A4617403A00019F1743F9
:102340003A004F46FF013A4367463A608022520105
:102350001343802212061A601A6080235B041A005D
:102360000BF06CFC0620370020562368021D9740B6
:102370003A00196837000A431A6002000832974091
:102380003A008446196801900A431F211A604200EE
:102390006244D20087009A186948D832DF1939613F
:1023A00010600298C0008146012040428446E1440A
:1023B00048463861634F17606779394011600721DB
:1023C0006156A0228E40604F8801D205D6518446C6
:1023D000802791465D4E0390019866447F043268E1
:1023E0003A42FCD10822A2560600944601226046D9
:1023F00082404846544FC251624692019346534A26
:1024000080275A44300016007F0432683A42FCD1DB
:102410004F4A0190C902934200D180E0C022D2020B
:1024200005928022D20292465046049A1E00AF18AE
:10243000484A103604921140474A114308438246E5
:10244000A020C00581460399504649440F604E6064
:1024500001268E60C86061460498C9020140A02030
:10246000C005844620200A430599E3440A4310210D
:1024700084468A4310310A439C449146584662463A
:1024800002603A1D94465A466046029950600431F3
:102490008908013991604946D16001991A688E40D6
:1024A00016431E6007222D4B80219C46A2564904EC
:1024B0009201624413680B42FCD10822274B802111
:1024C0009C46A25649049201624413680B42FCD117
:1024D00004220021380008F0E5FB0621615623683C
:1024E0004A005218D2009B181D4AD8331A60D023D4
:1024F00080221B0692045A61FEF75EFC2900109BA5
:102500001C31994203D04246180008F0D1FB00204C
:1025100007B03CBC90469946A246AB46F0BD80222F
:1025200092020592002292467EE71E1D1423042487
:1025300004930023C1E6C04600F8FF0F7F00FEFFB2
:102540002060000040600000440400000C000050C7
:10255000000020503F7800FF19004000100000509C
:1025600003A00000F0B5DE4657464E464546E0B5AE
:102570008DB0079203220493033393430390069193
:102580000593022928D0039B994A180018331C0090
:10259000079B059DDB021A40C0231B061343049AC8
:1025A0001C301343069A043512071343169A9042BF
:1025B00000D115E1039E1100B361049A08F078FB85
:1025C0002A0021003000FEF707FC0DB03CBC90460D
:1025D0009946A246AB46F0BD864B80240293D02399
:1025E0001B0698466404844B039A099384231B01B9
:1025F000D5588022434692049A612979182003F025
:102600002FFC06210122695628688A4003687B4F07
:10261000934303600523EB56BA469C464B005B1878
:10262000DB00C618CC363268D0339146624605329C
:10263000120393464F46524617403A005F461743EF
:102640003A006746FF013A4332608022C3185201C4
:102650001343802212061A601A6080235B041A005A
:102660000BF0ECFA06220120AA562B68924604329F
:1026700090400200196801200A431A60524608324D
:102680009040020019685E4E0A431A6052461F21AC
:10269000900052005244D2009A18D83218180161A2
:1026A0001660016157481060687901401160072287
:1026B0000120AA56544990409146A022D20550507C
:1026C000494689018C465148604401682142FCD149
:1026D00008260120AE574C49B04050504B4AB0013B
:1026E000821811682142FCD14A464949D2028B42E4
:1026F0006BD0C021C90201918021C9028B465F467F
:102700004449F60289460A4043490A433A43A0270E
:10271000FF05BB46DC446746110009AA3A60102257
:1027200093469B4462465F46576001279760D1609D
:102730004A4639491640019A3143114310229143C8
:1027400010321143A022D20594461A006044203270
:1027500002600AAA426087600122C160504682403E
:1027600019680A431A6007222C4BAA569C4692010C
:10277000624413682342FCD10822284BAA569C4687
:102780009201624413682340FCD1062109936956E3
:102790002B684A005218D2009B18214AD8331A607D
:1027A0008022434692045A61FEF706FB0A9B01937E
:1027B0009B0610D4029B5A1E029200D313E71948BD
:1027C00008F098FB06204042FFE680218902019133
:1027D00000218B4693E7029B002B00D0D3E6EEE767
:1027E00003982A0083612100FEF7F6FAEDE6C04661
:1027F00000F8FF0FE7030000044000407F00FEFFE9
:102800002060000040600000440400000C00005004
:10281000000020503F7800FF1900400010000050D9
:1028200003A000007C8C0110F0B50400CE464746A2
:10283000033480B5881EA4080BD00B00A4000C192B
:102840005A881E8812049D1E324304332A60A34214
:10285000F6D10C0043880A341A0A1B021343438042
:102860008B1C1B688A1D1BBA4360126812BA8260F7
:10287000246824BAC460452B03D00CBC904699460A
:10288000F0BD082AF9D10B000A000D00B232AE33B8
:102890002E351B8814682E691A19B24218D83A319D
:1028A000C9180C19A14247D2274B002700269C4685
:1028B00004E0DD2A21D0C9188C420DD94B780233AF
:1028C000CA189442F7D30A78302AF2D10E00F2E700
:1028D00001235B428360D0E7002E31D0062304221F
:1028E000002F2BD0AA8BD20601D5012213438422BC
:1028F000815C815204328354BFE78A1C91468A78F6
:102900009046624612789045D5D14A465278904614
:10291000624652789045CED14A46927890466246B9
:1029200092789045C7D14A46D27890466246D2788E
:102930009045C0D10F00BEE70023D3E71300D1E7D5
:1029400002230022CCE7C046FC8A0110F0B5D6462F
:102950004F464646C0B5C37C82B004000F00924685
:10296000002B05D1006802F0B1FE002800D183E001
:10297000200002F0B1FEA37C002B00D17FE0E37CBD
:10298000002B00D1A9E0FA25AD0003E0013D002DA8
:1029900000D171E0082200212000FEF729FD431C30
:1029A000F4D0C30566D503035B0D8E4A591E9142D0
:1029B0005AD8820758D425001C35009500220221E0
:1029C0002000FFF769FC002848D1A18BE28B002989
:1029D00001D1002A4ED00123E374834B9C460B00A7
:1029E0005340634500D0DBE0D24392B2914200D025
:1029F000DCE00B2900D8DCE02423E35CA373212373
:102A0000E25C123B1340022B09D82522A25C9446BB
:102A10006646627BB21AD2B2142A00D878E00C293A
:102A200000D1CFE0012B00D183E0002B00D1A1E049
:102A3000022B00D06EE0102900D8C6E02323E25C10
:102A40000220AA18D3789B000433D3185D1B491BBE
:102A500095785246ED0729433960136002B01CBCDB
:102A600090469946A246F0BD0123604A012120000C
:102A7000FFF71EFB0023E37401204042EEE7012331
:102A80005B4A01212000FFF713FB0123584A012173
:102A90002000FFF70DFB402503260BE00120FDF78A
:102AA00023FF013D0123524A01212000FFF700FBD3
:102AB000002D37D04E4A01212000FEF7FDFE0028F0
:102AC000ECDB33000340032BE8D1FF28E6D00123E1
:102AD000A374E37C002B00D055E7042200212000E2
:102AE000FEF7B8FD83B29846424B000499461B8816
:102AF000050C434502D086232B420ED14346002BC2
:102B000048D14B4642461A80AB0600D53BE7B3E7B7
:102B1000667384E70B204042A0E72900364808F09E
:102B2000BFFAEBE70121354808F0BAFA0123A37494
:102B3000CFE710294FD92323E35CEB18DA78920012
:102B400004329B181A7B5D1B491B882A37D15A7B9C
:102B50006C2A34D1DA7C002A2ED11A7D102A2BD18E
:102B60005A7D182A28D15246183918333960012065
:102B7000136073E71B2931D92323E35C248AEB1804
:102B80005A89944224D1524610335D1B491B396047
:102B9000136063E7042200212000FFF795F9B0E7F6
:102BA000174808F07DFA0120404257E702204042D2
:102BB00054E70320404251E70A2040424EE70920F3
:102BC00040424BE70420404248E70720404245E7A7
:102BD0000620404242E7082040423FE705204042AD
:102BE0003CE7C046FF050000FFFF00000D000100AC
:102BF0001F00010052180020108D0110EC8C0110F4
:102C00003C8D0110F0B5DE4657464E464546040061
:102C1000E0B585B098468A46914602F05DFDA37CFA
:102C2000002B5CD0A37B002B24D0464E464FB36ACA
:102C30009B460EE0A17B002903D1227B637B93425C
:102C40001CD15B46ED1ABD4241D8FA208000FDF749
:102C500039FD03AA02A92000B56AFFF777FE012813
:102C6000E8D103990298FFF7DFFD0100200002F090
:102C700039FDDFE7227B637B9342D6D04B4640464B
:102C80000C3399B20180C9430271418041465046DC
:102C900048710021404681715046871E781E874149
:102CA00001207F428743404601320E370181418136
:102CB000C77102312273009000222000FFF752FCFE
:102CC00005B03CBC90469946A246AB46F0BD637B3E
:102CD000227B1E4808F0E4F901204042F0E701336E
:102CE0001B4A01212000FFF7E3F90123184A0121C3
:102CF0002000FFF7DDF9402503260BE00120FDF75A
:102D0000F3FD013D0123124A01212000FFF7D0F914
:102D1000002D0FD00E4A01212000FEF7CDFD002826
:102D2000ECDB33000340032BE8D1FF28E6D001237E
:102D3000A37477E70121074808F0B2F90123A374CF
:102D400070E7C0460040054040420F00688E011009
:102D50001F000100EC8C0110F0B54546DE465746D9
:102D60004E4693461A0098468023E0B51C3283B045
:102D700005008A461B019A421ED85A468262424684
:102D80001204038A120CC2620D9A01339BB2120321
:102D900003820A431B041343036300234246436335
:102DA0000C99383007F084FF2B0042461C33103258
:102DB00000212800FFF726FF274E284AB76AB36A8A
:102DC000DB1B93422ED8264B994610E0022820D0D8
:102DD000002803DB0100484608F062F9FA20800071
:102DE000FDF770FCB36A1D4ADB1B93421AD801AA97
:102DF00069462800FFF7AAFD041E23D00128E5D16B
:102E000001990098FFF710FD0100280002F06AFC0C
:102E1000E4E70099019B4A005208C90F286802F0B4
:102E200051FBDBE743465A4651460E48012408F061
:102E300037F96442200003B03CBC90469946A24654
:102E4000AB46F0BD009A424500D9424601990C9824
:102E500015F012FEEEE7C046004005403F420F006D
:102E6000708B01109C8B0110F0B54546DE4657462D
:102E70004E4693461A0098468023E0B51C3283B034
:102E800005008A461B019A421BD85A46038A826271
:102E900001339BB2038242461B040B4303630023AE
:102EA0001204120CC262436342460C99383007F098
:102EB000FFFE2B0042461C33103200212800FFF792
:102EC000A1FE274E274AB76AB36ADB1B93422ED86E
:102ED000254B994610E0022820D0002803DB010092
:102EE000484608F0DDF8FA208000FDF7EBFBB36AF6
:102EF0001C4ADB1B93421AD801AA69462800FFF737
:102F000025FD041E23D00128E5D101990098FFF783
:102F10008BFC0100280002F0E5FBE4E70099019B2F
:102F20004A005208C90F286802F0CCFADBE7434692
:102F30005A4651460D48012408F0B2F86442200078
:102F400003B03CBC90469946A246AB46F0BD009A01
:102F5000424500D9424601990C9815F08DFDEEE7E7
:102F6000004005403F420F00708B01109C8B011008
:102F7000F0B54E1E73425E419023DB019C46C6466F
:102F800076428368CA4F360300B504000D006644DC
:102F9000BB420FD07B401A0E00D0BFE2FF221204CA
:102FA000134200D0ABE2FF221202134200D09FE294
:102FB000BF4BA360C027320001212000FEF77CFC3C
:102FC000A3687F05BB4210D07B401A0E00D081E27F
:102FD000FF221204134200D06BE2FF2212021342BE
:102FE00000D05EE2C0235B05A360B24BB24A012170
:102FF0002000FFF75DF8FF23A2681B021A4200D0F1
:1030000048E2AB4B3200A36001212000FEF754FCE4
:10301000C027A36880467F05BB4210D07B401A0EB4
:1030200000D029E2FF221204134200D013E2FF2253
:103030001202134200D006E2C0235B05A3604346A0
:10304000DB0700D477E2013D6B425D419B4B6D4253
:103050009C4680232D0365445B03FF221204134228
:1030600000D0E1E1FF221202134200D0D5E1904BE3
:10307000A360C02703232A0001212000FFF718F8CE
:10308000A3687F05BB4210D07B401A0E00D0B6E18A
:10309000FF221204134200D0A0E1FF2212021342C9
:1030A00000D093E1C0235B05A360824B824A0121DB
:1030B0002000FEF7FDFFFF23A2681B021A4200D08A
:1030C0007DE1C0277A4B2A00A36001212000FEF792
:1030D000F3FBA3687F05BB4210D07B401A0E00D0E3
:1030E0005FE1FF221204134200D049E1FF221202E5
:1030F000134200D03CE1C0235B05A3606D4B6E4AD8
:1031000001212000FEF7D4FFFF23A2681B021A4210
:1031100000D026E13200C026654B0121A3602000CB
:103120000023FEF7C5FFA3687605B34210D07340B5
:103130001A0E00D007E1FF221204134200D0F1E082
:10314000FF221202134200D0E4E0C0235B05A3601B
:103150000120FDF7C9FB564EA368B3420FD0734060
:103160001A0E00D0C8E0FF221204134200D0B4E0CF
:10317000FF221202134200D0A8E04D4BA360C026EC
:1031800001232A0001212000FEF792FFA3687605A3
:10319000B3420ED073401A0E00D07AE0FF22120420
:1031A000134265D1FF221202134259D1C0235B059D
:1031B000A360404B404A01212000FEF779FFFF2326
:1031C000A2681B021A4244D12A00C025384B0121B3
:1031D000A3602000FEF770FBA3686D05AB420DD025
:1031E0006B401A0E28D1FF221204134214D1FF2281
:1031F0001202134208D1C0235B05A3600120FDF732
:1032000073FB04BC9046F0BDC0232D4A5B03012133
:103210002000FEF74DFFEEE7C023274A5B010121A6
:103220002000FEF745FFC023A2685B055340FF2244
:1032300012021342DFD0E7E71823224A01212000BF
:10324000FEF736FFFF22A36812046B401342CED074
:10325000E2E71D4B1A4A01212000FEF729FFB3E7E0
:10326000C023174A5B0301212000FEF721FF9DE7E1
:10327000C023114A5B0101212000FEF719FFC02382
:10328000A2685B055340FF221202134200D18DE772
:10329000E6E718230B4A01212000FEF709FFFF2271
:1032A000A36812047340134200D17BE7E0E7C046F5
:1032B00000001018101800000B0001000844000066
:1032C0000A0001000C00010000101800A94BAA4AD6
:1032D00001212000FEF7ECFE4FE7A84BA84A012190
:1032E0002000FEF7E5FEA268A64B5340FF22120223
:1032F000134200D141E7E9E71823A34A0121200046
:10330000FEF7D6FEFF22A36812047340134200D1D9
:103310002EE7E2E7C023984A5B0301212000FEF775
:10332000C7FE12E7C023964A5B0101212000FEF789
:10333000BFFEC023A2685B055340FF221202134266
:1033400000D102E7E6E718238F4A01212000FEF7AB
:10335000AFFEFF22A36812047340134200D1EFE6D0
:10336000E0E7844B844A01212000FEF7A1FED1E66C
:10337000C023814A5B0301212000FEF799FEBAE6D3
:10338000C0237F4A5B0101212000FEF791FEC0238C
:10339000A2685B055340FF221202134200D1AAE645
:1033A000E6E71823784A01212000FEF781FEFF227C
:1033B000A36812047B40134200D197E6E0E76D4B0F
:1033C0006D4A01212000FEF773FE7AE6C0236A4AA7
:1033D0005B0301212000FEF76BFE63E6C023684A11
:1033E0005B0101212000FEF763FEC023A2685B059C
:1033F0005340FF221202134200D153E6E6E718239E
:10340000614A01212000FEF753FEFF22A368120447
:103410007B40134200D140E6E0E7564B564A01217B
:103420002000FEF745FE22E6544B554A01212000BC
:10343000FEF73EFEA268534B5340FF221202134296
:1034400000D114E6E9E7C0234B4A5B0301212000C9
:10345000FEF72EFEF0E5C023494A5B010121200062
:10346000FEF726FEC023A2685B055340FF2212022E
:10347000134200D1E0E5E6E71823434A012120008A
:10348000FEF716FEFF22A36812047B40134200D110
:10349000CDE5E0E7374B384A01212000FEF708FE72
:1034A000AFE5C023344A5B0301212000FEF700FE94
:1034B00098E5C023324A5B0101212000FEF7F8FDA8
:1034C000C023A2685B055340FF221202134200D1C1
:1034D00088E5E6E718232C4A01212000FEF7E8FDE5
:1034E000FF22A36812047B40134200D175E5E0E798
:1034F000204B214A01212000FEF7DAFD58E51F4B41
:103500001F4A01212000FEF7D3FDA2681D4B534046
:10351000FF221202134200D14AE5E9E718231A4AB2
:103520000121FEF7C5FDFF22A36812047B40134270
:1035300000D138E5E3E71548013D07F0DBFC6A1EE2
:10354000954180226D4252011540114AA36894466C
:103550000C4F6544BB4200D18BE57B401A0E00D175
:103560007BE51823084A01212000FEF7A1FDA3688E
:103570007B4072E5001018000A00010010180000DE
:103580000B000100000010180C000100908E0110CB
:103590000834000080225200828100228274C274AA
:1035A00084220023120101608360837303828350AD
:1035B0007047C046F0B54746CE4680B585B004009A
:1035C00018000CAB1F7812239846802390441B01EF
:1035D000984500D9B0E02A232025E5542300002592
:1035E0002A335D70DD70250099702E35002F37D19C
:1035F0000100280007F05CFB200002F06DF8A37CBE
:10360000002B38D0A37B002B62D1237B627B9A42B4
:103610005ED0424692B2A283D243E28320220221AC
:10362000A3540132A15400220E20203162540131F2
:1036300060540131625401316254013162540133EA
:1036400001316254237323001C3300932539434610
:103650002000FEF787FF05B00CBC90469946F0BDF0
:10366000002392B229000BF04BFE200002F034F848
:10367000A37C002BC6D10133314A01212000FEF783
:1036800017FD01232E4A01212000FEF711FD4025E0
:1036900003270BE00120FDF727F9013D0123284A0C
:1036A00001212000FEF704FD002D3ED0244A012117
:1036B0002000FEF701F90028ECDB3B000340032B60
:1036C000E8D1FF28E6D00123A374A37B002B9CD074
:1036D0001C4F1D4EBB6A99460EE0A17B002903D109
:1036E000237B627B9A4294D14B46ED1AB54214D8A3
:1036F000FA208000FCF7E6FF03AA02A92000BD6AB9
:10370000FFF724F90128E8D103990298FFF78CF814
:103710000100200001F0E6FFDFE7637B227B0B481E
:1037200007F0BEFC0120404295E70121084807F060
:10373000B7FC0123A374C8E7052040428BE7C046CD
:103740001F0001000040054040420F00688E01103C
:10375000EC8C011030B50400164D83B001AA694607
:103760002000FFF7F3F8431C10D0031DF6D001280A
:1037700017D002280CD00100280007F091FC01AA04
:1037800069462000FFF7E2F8431CEED103B030BDDC
:103790000099019B4A005208C90F206801F092FE6F
:1037A000DCE701990098FFF73FF80100200001F0E5
:1037B00099FFD3E7C88C011030B50224150083B0FF
:1037C0004A0849002140069C009301942B00FFF712
:1037D000C3FA03B030BDC04670B50400002929D03B
:1037E000837C002B00D170BD00232F4A83740121FC
:1037F000FEF75EFC00232C4A01212000FEF758FC56
:1038000040250BE00120FDF76FF8013D0023264A1B
:1038100001212000FEF74CFC002D3BD0224A012163
:103820002000FEF749F80028ECDBC307EAD4FF28A4
:10383000E8D0D8E701F050FFA37C002BD3D10133AF
:10384000194A01212000FEF733FC0123164A012109
:103850002000FEF72DFC402503260BE00120FDF79C
:1038600043F8013D0123104A01212000FEF720FC0E
:10387000002D14D00C4A01212000FEF71DF800286D
:10388000ECDB33000340032BE8D1FF28E6D0012313
:10389000A374A8E70021054807F002FCA3E7012173
:1038A000024807F0FDFBF2E71F000100EC8C01105D
:1038B000F0B54F46D6464646C0B5DB4B86B09B6A50
:1038C000040043608946FDF769FB002812D1FDF72B
:1038D00049FC0A25FDF764FCD44E14220021200087
:1038E000FDF772FCB04211D00120013DFCF7FCFF56
:1038F000002DF2D1CE48062707F0FCFA7F423800AF
:1039000006B01CBC90469946A246F0BDC94B0022A9
:1039100000212000FEF702F90028EBD1002200214F
:103920002000FDF765FD04231D2200212000FEF785
:10393000BFFB0028DED19923042200212000FEF7DE
:10394000B7FB0028D6D1BE23062200212000FEF7B7
:10395000BBFA071ECED10823B74A01212000FEF78B
:10396000A7FB0A254026B44A01212000FDF7A4FF49
:1039700006420BD10120013DFCF7B6FF002DF2D12C
:103980000627AE4807F0B6FA7F42B8E70023AA4AF6
:1039900001212000FEF78CFBA94DA368AB4212D099
:1039A0006B401A0E01D000F02FFDFF2212041342CB
:1039B00001D000F0F5FCFF221202134201D000F00A
:1039C000E7FC9F4BA360E022C0259201012120006B
:1039D000FDF772FFA3686D05AB4213D06B401A0E62
:1039E00001D000F0CBFCFF221204134201D000F002
:1039F000B8FCFF221202134201D000F0A9FCC02340
:103A00005B05A3608F4B904A01212000FEF750FB1D
:103A1000FF23A2681B021A4201D000F091FCE022B1
:103A2000874B9201A36001212000FDF745FFC025CF
:103A3000A36806006D05AB4213D06B401A0E01D08F
:103A400000F074FCFF221204134201D000F083FD49
:103A5000FF221202134201D000F074FDC0235B0567
:103A6000A360F30700D4E1E3764B774A01212000FD
:103A7000FEF71EFB724BA2685340FF221202134254
:103A800001D000F075FD6E4BA3609022C025D201DD
:103A900001212000FDF710FFA3686D05AB4213D094
:103AA0006B401A0E01D000F037FCFF2212041342C3
:103AB00001D000F024FCFF221202134201D000F0DA
:103AC00015FCC0235B05A3605E4B5F4A012120000B
:103AD000FEF7EEFAFF23A2681B021A4201D000F0A3
:103AE000FDFB9022564BD201A36001212000FDF77F
:103AF000E3FEC025A36806006D05AB4213D06B4002
:103B00001A0E01D000F014FDFF221204134201D05E
:103B100000F001FDFF221202134201D000F0F2FC7E
:103B2000C0235B05A360F30701D400F078FEC02535
:103B300002212000FFF71CFAA3686D05AB4213D0E9
:103B40006B401A0E01D000F0D3FCFF221204134286
:103B500001D000F0C0FCFF221202134201D000F09D
:103B6000B1FCC0235B05A360C0250323374A0121B4
:103B70002000FEF7B5F8A3686D05AB4213D06B408B
:103B80001A0E01D000F094FCFF221204134201D05F
:103B900000F081FCFF221202134201D000F072FCFF
:103BA000C0235B05A360C0250023294A0121200012
:103BB000FEF796F8A3686D05AB4213D06B401A0E62
:103BC00001D000F055FCFF221204134201D000F096
:103BD00042FCFF221202134201D000F033FCC0234A
:103BE0005B05A3601B4B1C491B681C4A9A46514449
:103BF0004E78F4211A4B5244D35C3602FF313343E2
:103C00008B4200DD89E01749525C002A00D084E035
:103C1000502B00DC81E0144E144D5644F61A144B20
:103C20005544984629E0C04600400540ADBEEDFE33
:103C3000C88B0110B30402000E000100E88B0110D4
:103C400000001018101800000B00010010C0000048
:103C500044C000008C8E0110AC6B03009E68030012
:103C60000E0300000D030000AB6B03005B6B030051
:103C7000148C0110013DAE424FD00922414628006C
:103C800014F04AFE0028F5D1402300269846A36888
:103C9000F50BED039D420BD06B401A0E28D1FF228D
:103CA0001204134230D1FF221202134219D1A5602F
:103CB000534672049B190093520C43460121200085
:103CC000FEF750FC00282BD1B74B9E4228D0330082
:103CD000DB22803392029A4240418301984640366B
:103CE000D5E72B0AB14A01212000FEF7E1F9DEE712
:103CF0000023AF4A01212000FEF7DAF9FF22A36872
:103D000012046B401342CED02B0CAA4A0121200092
:103D1000FEF7CEF9A3686B40C5E7A74807F0EAF8BD
:103D2000A64AA74B9246A74E40259A4420E0FF2280
:103D30001204134232D1FF22120213423CD1F0236B
:103D4000DB02A36053469B19009332002B00012134
:103D50002000FEF707FC002836D19B4B9E4233D053
:103D6000C0229A4B9200F3189A4240414036850196
:103D7000F022A368D20290469342E3D053401A0E39
:103D8000D5D000238A4A01212000FEF791F943464D
:103D9000A2685340FF2212041342CCD00723854A65
:103DA00001212000FEF784F9F023A268DB025340D2
:103DB000FF2212021342C2D0F0237C4ADB00012111
:103DC0002000FEF775F9BAE7F025A368ED02AB42D3
:103DD00011D06B401A0E00D02BE3FF2212041342C5
:103DE00000D01BE3FF221202134201D000F044FC7A
:103DF000F023DB02A360C025754B764A0121200029
:103E0000FDF76EFFA3686D05AB4213D06B401A0E31
:103E100001D000F027FCFF221204134201D000F071
:103E200014FCFF221202134201D000F005FCC02353
:103E30005B05A36001212000FFF79AF8664DA36897
:103E4000AB420FD06B401A0E00D0EBE3FF221204FE
:103E5000134200D0DCE3FF221202134200D0D0E371
:103E60005D4BA3605D4A01212000FDF725FDC026C2
:103E7000A36805007605B34210D073401A0E00D037
:103E8000B6E3FF221204134200D0A5E3FF22120280
:103E9000134200D098E3C0235B05A36003202840B1
:103EA000012800D0A8E14E4B424A01212000FEF734
:103EB000FFF8494BA2685340FF221202134200D080
:103EC0007BE3454BA360E022012192012000FDF736
:103ED000F3FCC025A36806006D05AB4210D06B4013
:103EE0001A0E00D060E3FF221204134200D04FE309
:103EF000FF221202134200D042E3C0235B05A360FD
:103F0000F30702D5374806F0F5FFFA258026AD0005
:103F100007E00120013DFCF7E7FC002D01D100F096
:103F20004BFC314A01212000FDF7C6FC0642F0D0CF
:103F3000C025A3686D05AB4210D06B401A0E00D0AF
:103F4000A3E3FF221204134200D0CCE3FF221202AB
:103F5000134200D0BFE3C0235B05A360C025F0235C
:103F6000224A01212000FDF7BBFEA3686D05AB428C
:103F700010D06B401A0E00D0A4E3FF2212041342AB
:103F800000D093E3FF221202134200D086E3C02345
:103F90005B05A360FA252023154A01212000FEF7C6
:103FA00087F8AD0020262CE0C06B03000A0001005A
:103FB0000C0001000B000100208C01100483FFFFA6
:103FC000AC8E0110FC7C0000BC7F00008483FFFFEE
:103FD000C0003FFFFCFF0000000010180834000084
:103FE00010180000488C01100E00010024A00000F1
:103FF000080001000120013DFCF776FC002D00D1F6
:10400000F2E3082200212000FDF7F2F90642F1D088
:10401000E94A01212000FDF74FFCC3B20220E64A25
:10402000034301212000FEF743F80823F02200217A
:104030002000FEF73DF80223E04A01212000FEF7B0
:1040400037F8DF4A01212000FDF736FCC30700D412
:104050003BE10F23DB4A01212000FEF729F8002372
:10406000D84A01212000FEF723F8D64A012120007A
:10407000FDF722FC042200212000FDF7EBFAC30724
:1040800000D51BE1C025A3686D05AB4210D06B4085
:104090001A0E00D064E3FF221204134200D053E34F
:1040A000FF221202134200D046E3C0235B05A36047
:1040B000C025C54A01212000FDF79AF9A3686D05C6
:1040C000AB4210D06B401A0E00D02CE3FF2212043A
:1040D000134200D01BE3FF221202134200D00EE372
:1040E000C0235B05A360200001F0F6FAA37C002B3F
:1040F00000D1B7E0B54B250019003835083108224A
:104100002800984606F0D4FD4023B14A2000E25230
:1041100002220233E2520023A364DB23F6229B0235
:104120009C46AC499200614462644C3006F0C0FD8C
:10413000FC2308229B00FF32022100952000FEF79D
:1041400093FE414613221431280006F0B1FD83226C
:1041500013230095520000212000FEF785FEA36B7B
:10416000002B02D09C4806F09BFF0B229B492800A5
:1041700006F09EFD002643230822E6540133E65450
:104180000133E6540133E654FF32373B02210196F6
:1041900000952000FEF7E0FD06229149280006F078
:1041A00087FD3E230122E25408220133E654013305
:1041B000E6540133E6540196373B0095FF32022165
:1041C0002000FEF7C9FD4B46002B00D1D1E22000B4
:1041D00049460622463014F04FFC0E228149280041
:1041E00006F066FD082200951423FF32022120000C
:1041F000FEF73AFEFFF783FB7B4806F07BFEA168E3
:104200007A4A914200D15EE64A40120E06D0012160
:104210001823774A2000FDF74BFFA168FF22734B5C
:1042200012044B40134200D146E63CE6714806F0CA
:1042300061FEA2686D4B9A4200D126E453401B0EEA
:1042400006D06B4A182301212000FDF731FFA26838
:10425000664B5340FF221204134201D1FFF70DFCBD
:10426000FFF702FC0133564A01212000FDF720FF31
:104270000123534A01212000FDF71AFF40250326A0
:104280000CE00120FCF730FB013D01234C4A0121E9
:104290002000FDF70DFF002D00D188E2484A0121E2
:1042A0002000FDF709FB0028EBDB33000340032B64
:1042B000E7D1FF28E5D00123A3741BE783B20422D2
:1042C00000212000FDF700FEDCE6C3B201203C4ADD
:1042D000034301212000FDF7EBFEBAE6464B474AB7
:1042E00001212000FDF7E4FEFFF7FBFBC023434A5A
:1042F0005B0301212000FDF7DBFEFFF7E2FBC0239B
:104300003F4A5B0101212000FDF7D2FEC023A268D5
:104310005B055340FFF7CFFB1823354A01212000EE
:10432000FDF7C6FEA3686B40FFF7BFFB1823304ABA
:1043300001212000FDF7BCFEA3686B40FFF782FB64
:104340002D4B2E4A01212000FDF7B2FEFFF767FB3F
:10435000C0232A4A5B0301212000FDF7A9FEFFF7D5
:104360004EFBC023264A5B0101212000FDF7A0FE81
:10437000C023A2685B055340FFF73BFB18231C4A90
:1043800001212000FDF794FEA3686B40FFF72BFB93
:10439000194B1A4A01212000FDF78AFEFFF711FB95
:1043A000184B174A01212000FDF782FE0F4BA2682F
:1043B0005340FFF700FBC0461E0001000E00010045
:1043C0001F0001000F00010008850000FC8A011099
:1043D00006100000909C01108C8C0110A48C011020
:1043E000B08C0110B88C0110488C0110000010181E
:1043F0000C000100908E0110001018000A0001004E
:104400000B000100101800001823EF4A01212000C2
:10441000FDF74EFEA3686B40FFF7C7FA0723EB4A90
:1044200001212000FDF744FEF023A268DB02534087
:10443000D8E40023E44A01212000FDF739FEA368F7
:104440006B40CAE4C023E24A5B0301212000FDF770
:104450002FFEFFF7C4FBC023DC4A5B0101212000D3
:10446000FDF726FEC023A2685B055340FFF7B1FBB2
:104470001823D54A01212000FDF71AFEA3686B40DE
:10448000FFF7A1FBC023D24A5B0301212000FDF707
:104490000FFEFFF785FBC023CC4A5B010121200002
:1044A000FDF706FEC023A2685B055340FFF772FBD1
:1044B0001823C54A01212000FDF7FAFDA3686B40CF
:1044C000FFF762FBC023C24A5B0301212000FDF716
:1044D000EFFDFFF746FBC023BC4A5B010121200032
:1044E000FDF7E6FDC023A2685B055340FFF733FBF1
:1044F0001823B54A01212000FDF7DAFDA3686B40BF
:10450000FFF723FBC023B24A5B0301212000FDF724
:10451000CFFDFFF705FBC023AC4A5B010121200062
:10452000FDF7C6FDC023A2685B055340FFF7F2FA12
:104530001823A54A01212000FDF7BAFDA3686B40AE
:10454000FFF7E2FAC023A24A5B0301212000FDF736
:10455000AFFDFFF783FAC0239C4A5B0101212000D5
:10456000FDF7A6FDC023A2685B055340FFF770FA74
:10457000984B974A01212000FDF79AFDFFF783FA37
:10458000C023934A5B0301212000FDF791FDB4E4B1
:10459000C0238E4A5B0101212000FDF789FDC02365
:1045A000A2685B055340A3E41823874A0121200039
:1045B000FDF77EFDA3686B4095E4864B844A01219C
:1045C0002000FDF775FD7CE4C023814A5B030121D7
:1045D0002000FDF76DFD5EE4C0237C4A5B010121F4
:1045E0002000FDF765FDC023A2685B0553404DE444
:1045F0001823754A01212000FDF75AFDA368734076
:104600003FE4744B724A01212000FDF751FD27E47D
:10461000714B6E4A01212000FDF74AFD6F4BA268E5
:10462000534018E41823684A01212000FDF740FD9B
:10463000A3686B40FFF70AFCC023654A5B030121B6
:104640002000FDF735FDFFF7F2FBC0235F4A5B0159
:1046500001212000FDF72CFDC023A2685B0553401B
:10466000FFF7DFFB1823584A01212000FDF720FD4A
:10467000A3686B40FFF7CFFBF023554ADB00012115
:104680002000FDF715FDFFF7B3FB18234E4A01216B
:104690002000FDF70DFDA3686B4052E4C0234C4A97
:1046A0005B0301212000FDF703FD70E4C023474AAE
:1046B0005B0101212000FDF7FBFCC023A2685B0524
:1046C00053405FE41823404A01212000FDF7F0FC2D
:1046D000A3686B4051E4C0233D4A5B0301212000E5
:1046E000FDF7E6FC37E4C023384A5B0101212000D6
:1046F000FDF7DEFCC023A2685B05534026E4C0231F
:10470000334A5B0301212000FDF7D2FCE8E4C0231B
:104710002E4A5B0101212000FDF7CAFCC023A268DC
:104720005B055340D7E41823274A01212000FDF7F9
:10473000BFFCA3686B40C9E4C023254A5B03012189
:104740002000FDF7B5FCB0E4C023204A5B01012145
:104750002000FDF7ADFCC023A2685B0553409FE439
:104760001823194A01212000FDF7A2FCA3686B4021
:1047700091E443469B6A6A460493434641469B8DB7
:10478000303193822800142206F092FA8322009599
:104790001423520000212000FEF766FB00282AD0D7
:1047A00002A90020FBF792FE02AB99460FE501211A
:1047B0000B4806F075FC7EE506270A4806F09AFBD2
:1047C0007F42FFF79CF8C0460C0001000B0001007F
:1047D0000A00010000101800101800000000101856
:1047E000EC8C01105C8C011006270F4806F082FB50
:1047F0007F42FFF784F80622290002A806F058FA43
:10480000029B049A934202D00027FFF778F86B4688
:104810009A899B8A9A42C3D00027FFF770F8034811
:1048200006F068FBFFF783F9748C0110908E01107D
:10483000F0B5DE464E4645465746E0B506000D004B
:104840009B49383604000822483185B0300006F014
:104850002FFA40222B04E9B2A1541B0E0132A354BB
:1048600042200022225401302254280C00D015E1AD
:10487000FF3244302254013022540130225401309E
:1048800022544822A154914601320025A354904657
:104890004A274B2308220221FF32E5550096E554B2
:1048A0002000373BFEF7E0FA3220FCF71DF83823F2
:1048B000E5540133E5540133E5540133E554402216
:1048C000373B022100962000FEF7CEFA0B227949F1
:1048D000300006F0EDF943229446A4446246039268
:1048E0004322A55493460132A55492460132A55461
:1048F000462108220F236554FF3244390195009662
:104900002000FEF729FA06226B49300006F0D0F9A4
:104910003E230122E25408220133E5540133E554D9
:104920000133E554FF32373B022101950096200008
:10493000FEF712FA0F226149300006F0B9F9472359
:1049400008224846E254255408224046343B255468
:10495000FF320221E555019500962000FEF7FCF993
:104960000B225749300006F0A3F90423584645228C
:104970002354504646212554A55408220B33655430
:10498000FF324439019500962000FEF7E5F9102228
:104990004C49300006F08CF94A46A55442464B2358
:1049A000A5540822E5550195E5540096373BFF32A2
:1049B00002212000FEF7D0F9434B986A6368C01AC1
:1049C000424B984203D8424B181AFBF7B9FF20001C
:1049D0001322FF214E3006F065F95023E722E254FE
:1049E00003330732E25401332F3AE2540233403AA0
:1049F000E25438496D3A300006F05AF9082229236A
:104A0000FF32022100962000FEF72EFA3220FBF73B
:104A10006BFF0123382200252000A3540132A55446
:104A20000132A5540132A5540132A3543C33E5545C
:104A300022320133E2540133E5540133E5549D320F
:104A40000133E2540021C53A423006F02BF931001F
:104A50004022039814F010F80B221F49300006F092
:104A600027F908224B23FF32022100962000FEF78F
:104A7000FBF93220FBF738FF0023022202210095C8
:104A80002000FEF7F1F93220FBF72EFF002005B0E1
:104A90003CBC90469946A246AB46F0BD4427E05543
:104AA00045202D0E25540130225401302254E8E6D1
:104AB000FC8A0110A48C0110B08C0110E48D01104F
:104AC000F48D0110008E011000400540EF490200F6
:104AD000F0490200108E0110248E011070B5040000
:104AE0000E000D49383482B0050014223031200008
:104AF00006F0DEF8832228000094142352000021DF
:104B0000FEF7B2F9051E04D106222100300006F09E
:104B1000CFF8280002B070BDFC8A0110F0B55746EE
:104B20004E46DE464546E0B5040083B089469A46C7
:104B3000002A00D1B7E0C82A00D9B2E09500AA182F
:104B40005200D7B2120AD5B238239846A0440E229A
:104B50005649404606F0ACF846264723A75548225A
:104B6000E55400254146A55408220233E55400913E
:104B7000373B0195FF3202212000FEF7EDF80B22B2
:104B80004B49404606F094F851464323E1540B0A42
:104B9000452144278B465146E3550B0C5946635437
:104BA000514608220B0E4146A35500910F23019553
:104BB000FF3202212000FEF7CFF80C223D4940468B
:104BC00006F076F80C990822E1550C9901950B0A2C
:104BD000594663540C99FF320B0CA3550F0E472313
:104BE0004146E7540091373B02212000FEF7B4F81C
:104BF0000D223149404606F05BF8584647220D9990
:104C0000019521540D9920000B0AA3550B0CA354B8
:104C10000E0E0132A654434608220093FF321123A0
:104C20000221FEF799F84A463823E2549B460133A5
:104C30009A46130A5246A3544B463A271B0CE35597
:104C40004B463B261B0EA35543461D3200930221C3
:104C500004232000FEF708F95A460123A3545346C3
:104C6000E5544346E5550093A55504233632022109
:104C70002000FEF7F9F85B46E5545346E5544346F9
:104C8000E5550093A55504238E2202212000FEF74E
:104C9000EBF8002003B03CBC90469946A246AB46D8
:104CA000F0BDC8224AE700250A274DE7308E0110E3
:104CB000408E01104C8E0110588E0110F0B5454603
:104CC000DE464E465746E0B50600A7B0383604002B
:104CD000039288460F22B34930000493319D05F0BA
:104CE000E7FF47230822E25400234032A354013255
:104CF000A3540132A3540822019300961333FF32C8
:104D000002212000FEF728F86B1C00D131E1A64BF0
:104D10009D4200D129E1A54B9D4200D130E1A44B39
:104D20009D4200D03BE104230593023B002539213D
:104D300038228B46A354655401318A4665540131AB
:104D40008946042365544E32393900962000FEF717
:104D50008BF80F229749300005F0AAFF47234B2715
:104D60000121E5540133E5540133E5540133E554A1
:104D70004D20E15508224C2103376554333B25541F
:104D8000FF32E5554A3900962000FEF76DF81722EC
:104D90008949300005F08CFF4F225020FF23033754
:104DA000A55425540432E5550137E555A354013285
:104DB000A3540132A3540132A3540822E03BFF3232
:104DC000022100962000FEF74FF813227B493000A5
:104DD00005F06EFF4B234F2150200822E55401338C
:104DE000E5540133E5540133E55476336354BB3B5A
:104DF00023544833E554FF32E555363B4D39009690
:104E00002000FEF731F80120049906AF0B0A7B70F1
:104E100007AB0A00397078803099180005F048FF18
:104E20000220FBF761FD86224423520002210097F5
:104E30002000FEF719F801233822A3545B46E554FD
:104E40005346E5544B46243AE5540221373B00963D
:104E50002000FEF709F859463822A55465545146FA
:104E60006554494604236554223A39390096200096
:104E7000FDF7FAFF3823059A0221E2545B46E55418
:104E80005346E5544B46A522E5540096373B200097
:104E9000FDF7EAFF4346DBB21A004146484B049255
:104EA000E2540B0AD9B2474B8A46E15441460B0CF7
:104EB000D9B2454B8946E1544146444B090EE15471
:104EC0000133E0188B464246039905F0F1FE329B10
:104ED000002B59D007AB3C220021180005F0E2FE60
:104EE0005346049A1B021A43494613005A460904C2
:104EF00012060B431343069307AB4246039918006F
:104F000005F0D6FE24230622FD543299253B14A831
:104F1000109311931293139305F0CAFE802301207E
:104F2000339A5B0113434422169020009BB2BB547A
:104F30001B0A0132BB54390001323D3005F0B8FE86
:104F400005222349300005F0B3FE082200964B23CA
:104F5000FF3202212000FDF787FF002027B03CBC74
:104F600090469946A246AB46F0BD802305937C3B14
:104F7000DCE6309B2800002BF0D0049B002BEDD00A
:104F8000802305937A3BD1E60D4B1A22E318009358
:104F9000022124232000FDF767FF0020DEE7012027
:104FA0004042DBE7E48D01100400400006004000B1
:104FB00002002000A08D0110B08D0110C88D0110DD
:104FC0001C0800001D0800001E0800001F0800004B
:104FD000DC8D01103823042200B5C2540023353281
:104FE00083540132835401328354030083B0383335
:104FF00000936A3204230221FDF736FF03B000BD9F
:1050000000B5054B83B0C31800931A222423022154
:10501000FDF72AFF03B000BD1C080000F0B5DE4616
:1050200057464E464546E0B506000F00A54985B0F7
:105030003836040003925431042230009A4605F0B9
:1050400037FE012399464A463B33E25400233C3263
:10505000A3540132A3540132A35490460833C732FB
:10506000009600212000FDF7FFFE38233A22E55C80
:105070000133E35C93461B022B43A55C01322D04F4
:105080002B43A55C2D061D4307D0002005B03CBC7A
:1050900090469946A246AB46F0BD2C3A8A4930006C
:1050A00005F006FE02234722A35446330232E5549C
:1050B0004A21A55408226554353BFF3248390195F1
:1050C00000962000FDF748FE38204B4659463B220B
:1050D00023543833E55465540231A5543B0A6754D0
:1050E0000131635408303B0C013163544146804622
:1050F0003B0EA04463541B3A0021404605F0D2FD0C
:105100003A000399404605F0D3FD200028223100E3
:10511000443013F0B1FC0C226C49300005F0C8FD9E
:1051200008223423FF32022100962000FDF79CFE66
:105130003820109B3927235418009C461B0AE3553E
:10514000030C5846235460463B22030EA35402210D
:1051500004231D3A00962000FDF786FE0C225C49D0
:10516000300005F0A5FD44234846E0540133E554E2
:105170000E370133E554E555574649224A2102339B
:10518000E7543B0AA3543B0C635451464B27082277
:105190000B0EE355022100961423FF322000FDF789
:1051A00063FE514600293DD1012738230025E754ED
:1051B0009B460133E5549A460133E5549946013341
:1051C0009846E5540197373B00966E220221200055
:1051D000FDF7C2FD09223F49300005F069FD41237A
:1051E0001622E25408220133E5540133E554013319
:1051F000E55401970096373BFF3202212000FDF76E
:10520000ABFD5B46E7545346E5544B46E5544346F5
:105210000197E5540096373B4E2202212000FDF70E
:105220009BFD32E72C4B300053445A1E93418022A1
:1052300011005B421940884604218C46703A274988
:10524000E04405F035FD494648234922E1544931FF
:10525000A5546554414608220433E555E154013311
:10526000E5540133E5540133E5540096373BFF32F2
:1052700002212000FDF7F8FD38200E99123F21543D
:105280000E993B220B0AE35549465B46E154A5546F
:1052900025003C3505320021280005F003FD0E9A5B
:1052A0000F99280005F004FD0220FBF71DFB4B467B
:1052B0008622019300964333520002212000FDF71D
:1052C0004BFD71E7FC8A0110E48D0110688D01101F
:1052D000748D0110908D0110FEFFDFFF808D011095
:1052E00070B505003835040082B00E000422104964
:1052F000280005F0DDFC3C230122E25400233C326F
:10530000A3540132A3540132A3540132A6540132F2
:10531000A3540132A3540132A35400950C33C43278
:1053200002212000FDF7A0FD002002B070BDC046A4
:105330009C8D011010B5006800F0C8F90138434297
:105340005841C0B210BDC0460B4B10B583610B4B2A
:105350003A2243610A4B040003863923C2540200F7
:105360000233C15C32323039406A00F097FB382397
:1053700006220020E25410BD85530010BD6F0110BD
:10538000DC05000010B50B000A893B210124415CBB
:1053900082B0406A3039009400F0C6FA0023002839
:1053A00002D1180002B010BD0100034805F078FEDC
:1053B0000C235B42F5E7C0469C910110F0B5060056
:1053C00089B00F1E3ED10022204B04927722069313
:1053D0001F4BBC0105931F4B04A907931E4BE518F7
:1053E0001E4B3419E3181A703A001D4B3032E31883
:1053F0001A701C4B751902931B4B0096019305AA5A
:1054000006AB280009F06EFB002D05D090231B0190
:105410009C46164B64442360280009F02BFC2800AE
:1054200009F02EFC002F0BD107A9002008F0E8FDA1
:105430000F4B2800F1180FF0BBFD280010F068F8A2
:1054400009B0F0BD0B4B1A00BFE7C046C0A8000171
:10545000FFFFFF0008080808D40800000E0900003C
:105460000F09000065870110495300109491011045
:1054700054090000C0A80401104B70B59C468C0173
:1054800064440419002914D00D4B1B68002B06D06E
:10549000002539269C4203D01B68002BFAD170BD31
:1054A000200009F099FB6560A5552368002BF1D118
:1054B000F5E7200010F016FAE6E7C046D408000031
:1054C0006CCD0020F8B5CE46474699468C01144B6A
:1054D0000619F3181B7880B505005B0703D40CBCD4
:1054E00090469946F8BD97B2C1223900520000207B
:1054F00009F04CFC80460028F1D049463A0009F0FA
:1055000031FF084B4046E118074B69189C4666443A
:10551000336898470028E2D0404609F0C3FDDEE733
:105520000D090000D4080000E4080000044B10B589
:105530009C4689016144401809F0C0FB10BDC0467B
:10554000D4080000044B10B59C4689016144401802
:1055500009F0D6FB10BDC046D40800008B010A4AF2
:10556000C3189A1810B5147805222240052A07D1CD
:10557000064A944663441868431E9841023010BDA1
:1055800000F0DAFBFBE7C0460D090000D808000078
:1055900010B5274B82B01B68002B17D0254C20007C
:1055A000FFF7C8FE002818D1234BE25C002A1BD16C
:1055B000224BE25C002A23D1214BE25C002A28D155
:1055C000204B1B68002B03D0FBF722F902B010BD63
:1055D00001212000FEF700F9F6E72000FEF7BAF8F7
:1055E000154BE25C002AE3D000226921E25420003E
:1055F00000920023FEF7E0F8104BE25C002ADBD0BB
:1056000000222000E254FFF7E5FC0D4BE25C002A8B
:10561000D6D000222000E254FFF7F2FC86230122BC
:105620001B01E250074B1B68002BCDD1D0E7C046D1
:1056300010220020801800206D0800006F08000074
:105640006E0800007C18002070B58023D0258026CD
:1056500004002D065B04AB623604002200211820F2
:1056600000F016FC6E6200220021172000F010FCF2
:10567000AE6121002000FDF78DFF002303210B4ABE
:10568000A3540B4AA3500432A3500A4AA3540A4A13
:10569000A3540A4AA3540132A154094AA352094A05
:1056A00013600122084BE25470BDC046540800004C
:1056B0005C0800006D0800006E0800006F08000024
:1056C00072080000102200206C080000D0231B0686
:1056D0005868C001C00F70473222014B1A607047F2
:1056E0007C180020824B70B5C35805000C00DB0706
:1056F0002FD46368452B19D00B2B5ED0172B4AD0C3
:10570000002B00D079E0A368002B00D06EE0862348
:105710001B01EB58774A934207D1862301221B01D4
:10572000EA5000212800FFF701FF70BD724AAB5814
:10573000012BECD1A168082900D0A8E021006F4B13
:105740003031E8586E4BEB58984786231B01EB58D5
:10575000E0E701F065FC002938D0FA22002392002E
:1057600004F02CFF62880100664805F099FC61682E
:10577000582937D8644B8A00D358002B32D01900EF
:10578000624805F08DFC2E23E268E35CA168604866
:1057900005F086FCADE7A368002BB8D1E368082BC1
:1057A000B5D15C4A073BAB545B4AAB545B48FBF753
:1057B00037F886231B01EB58ACE700212800FFF7E0
:1057C000C1FE862300221B01EA50AEE7FA218900C0
:1057D00004F0B2FE628801004A4805F061FC61688D
:1057E0005829C7D94E4805F05BFCCCE7032B3FD0C6
:1057F000862302221B01EA5097E7032B16D0062BC3
:105800002AD0102B5AD1A368002B00D07FE72E336B
:10581000E15C6388DB0743D5002948D186228023D9
:105820001201A958DB000B43AB5073E7A368002BB0
:1058300025D186231B01EA580F23190011400429A2
:1058400003D19A43130001221A4380239B00134380
:1058500086221201AB505DE7A368002B00D056E70B
:10586000E368022B00D052E72E4B0122EA549DE759
:10587000E268002ABCD186221201AB5055E7062B04
:1058800000D144E7862304221B01EA504DE786231A
:105890001B01EB58002900D03CE70231A95039E741
:1058A0002800FFF74FFE86231B01EB5832E7280044
:1058B000FFF73CFE86231B01EB582BE72E2B00D075
:1058C00025E7A368062B0AD004211A1F8A4301D0BA
:1058D0000B2BD7D1E3680F2BD4D10E4BC5E7862213
:1058E00080231201A9581B010B43AB5012E7C0469D
:1058F00058080000010E00005C0800006408000069
:105900006808000024930110C09101103893011021
:10591000409301106E0800006F08000091550010C0
:105920003C9301106D080000F0B557464E464546C1
:10593000DE460400E0B583B099460CAB1B780F003F
:1059400090469A46FAF792FF214E002135682000D2
:10595000002D14D0FDF740FF534642460093390016
:105960004B462000FDF726FE0500FAF787FF2800CA
:1059700003B03CBC90469946A246AB46F0BDFFF74B
:105980007BFD01212000FFF777FD124B1420E55429
:105990008023D0251B049B462D06AB61FAF7A4FF9C
:1059A0005B4632206B61FAF79FFF00212000FDF774
:1059B0007FFF051ED9D1084B2000E118FFF78EF8B4
:1059C0003222064B06481A603060FAF729FFC3E717
:1059D0001022002054080000880900007C180020D4
:1059E00091550010F0B5C646050000B582B00C0018
:1059F000FAF73CFF244F00213E682800002E19D002
:105A0000FDF7EAFE0F200100230B22052140260DA1
:105A1000240C0640044003400196120E0094280016
:105A2000FFF77CF80600FAF729FF300002B004BC4B
:105A30009046F0BDFFF720FD01212800FFF71CFD77
:105A4000124B1420EE548023D0261B0498463606B1
:105A5000B361FAF749FF434632207361FAF744FF16
:105A600000212800FDF724FF061EDCD1084B28008A
:105A7000E918FFF733F83222064B07481A603860FE
:105A8000FAF7CEFEBEE7C046102200205408000000
:105A9000880900007C1800209155001010B50020E6
:105AA0001100FAF727FD002010BDC046F0B54746AB
:105AB000CE4680B585B0160004000D001F00FAF731
:105AC000D5FE002E12D0914EA35D002B22D0012DC9
:105AD00047D08E4F0126E35D2B411E4234D0FAF7AA
