:100000000C9462000C948A000C948A000C948A0070
:100010000C948A000C948A000C948A000C948A0038
:100020000C948A000C948A000C948A000C948A0028
:100030000C948A000C948A000C948A000C948A0018
:100040000C949D020C948A000C94FB060C943E07C1
:100050000C948A000C948A000C948A000C948A00F8
:100060000C948A000C948A00000000070002010032
:100070000003040600000000000000000102040864
:100080001020408001020408102001020408102002
:10009000040404040404040402020202020203032E
:1000A00003030303000000002300260029000000D2
:1000B0000000250028002B0000000000240027007D
:1000C0002A00FA0711241FBECFEFD8E0DEBFCDBF54
:1000D00012E0A0E0B1E0E8E3F5E102C005900D9286
:1000E000A034B107D9F722E0A0E4B2E001C01D922C
:1000F000AA3FB207E1F710E0C4ECD0E004C02297B9
:10010000FE010E94960AC23CD107C9F70E945C0614
:100110000C9450080C940000CF92DF92EF92FF9263
:10012000E82FF0E0EE0FFF1FED5EFD4FE080F18065
:100130008E2D0E946B0324E1E216F10409F0C8C081
:100140008EE00E946B037C016FE071E080E592E03D
:100150000E9487044AE050E064E170E080E592E0AC
:100160000E94470568E271E080E592E00E94870402
:100170004AE050E0B70180E592E00E94470562E363
:1001800071E080E592E00E94870440910001509167
:100190000101609102017091030122E030E080E5ED
:1001A00092E00E944A06B701882777FD8095982F34
:1001B0000E9457096B017C0120E030EC4FE754E4CA
:1001C0006091000170910101809102019091030101
:1001D0000E94BC089B01AC01C701B6010E940B0A3A
:1001E0006B017C0161E571E080E592E00E9487048B
:1001F00022E030E0B701A60180E592E00E944A06C5
:100200006EE771E080E592E00E948704409104016E
:1002100050910501609106017091070122E030E0E4
:1002200080E592E00E944A06209104013091050188
:100230004091060150910701C701B6010E94540880
:100240006B017C016EE871E080E592E00E9487041A
:1002500022E030E0B701A60180E592E00E944A0664
:1002600080910A010E9420049093440280934302EB
:1002700062EC71E080E592E00E94870460914302A5
:10028000709144024AE050E080E592E00E94470508
:10029000809108010E9420049093440280934302BD
:1002A0006CEE71E080E592E00E948704609141026B
:1002B000709142024AE050E080E592E00E944705DA
:1002C00080E592E0FF90EF90DF90CF900C94900447
:1002D000BC01882777FD8095982F0E9457096B01F4
:1002E0007C0120E030EC4FE754E460910001709114
:1002F000010180910201909103010E94BC089B01C1
:10030000AC01C701B6010E940B0A20910401309193
:10031000050140910601509107010E9454086B01AC
:100320007C012AE939E949E151E40E94B80818162C
:100330001CF0C12CD12C760122E030E0B701A601DF
:1003400080E592E0FF90EF90DF90CF900C944A060A
:100350000F931F93CF93DF9340E855E260E070E086
:1003600080E592E00E94790762E080910C010E9492
:10037000B1030AE011E061E0F80180810E94B1035D
:10038000C8E0D1E061E088810E94B10361E08DE0C6
:100390000E94B10361E089E00E94B10361E08AE05C
:1003A0000E94B10361E083E00E94B10361E085E057
:1003B0000E94B10361E086E00E94B10361E0F801B0
:1003C00080810E94EA0360E088810E94EA0360E085
:1003D0008DE00E94EA0360E089E00E94EA0360E0A9
:1003E0008AE00E94EA0360E083E00E94EA0360E0A2
:1003F00085E00E94EA0360E086E0DF91CF911F91E3
:100400000F910C94EA0380E592E00E94920680939B
:1004100040028053873010F40C948C000895CF93E1
:10042000DF938EE00E946B03EC01C93E83E0D807A6
:1004300014F060E005C0CB3881E0D8072CF461E00F
:1004400080910A010E94EA0380910C010E9420041D
:100450009093460280934502892B09F053C0CB3814
:1004600083E0D8072CF061E086E00E94EA0304C034
:10047000CF3283E0D8072CF061E085E00E94EA03E8
:1004800004C0C93C82E0D8072CF061E083E00E9400
:10049000EA0304C0C93582E0D8072CF061E08AE0A5
:1004A0000E94EA0304C0C23F81E0D8072CF061E05B
:1004B00089E00E94EA0304C0CC3881E0D80724F028
:1004C00061E08DE00E94EA0360ED77E080E090E07B
:1004D0000E940A0360E086E00E94EA0360E085E093
:1004E0000E94EA0360E083E00E94EA0360E08AE0A1
:1004F0000E94EA0360E089E00E94EA0360E08DE088
:100500000E94EA03CC3181E0D80714F060E004C017
:10051000CE3BD10524F461E087E00E94EA0380E548
:1005200092E00E9469061816190624F4DF91CF9113
:100530000C940302DF91CF9108951F920F920FB692
:100540000F9211242F933F938F939F93AF93BF9359
:100550008091480290914902A0914A02B0914B02C9
:100560003091470223E0230F2D3720F40196A11D7F
:10057000B11D05C026E8230F0296A11DB11D2093D1
:1005800047028093480290934902A0934A02B09395
:100590004B0280914C0290914D02A0914E02B0917D
:1005A0004F020196A11DB11D80934C0290934D0204
:1005B000A0934E02B0934F02BF91AF919F918F9144
:1005C0003F912F910F900FBE0F901F9018953FB73E
:1005D000F89480914C0290914D02A0914E02B091FE
:1005E0004F0226B5A89B05C02F3F19F00196A11D0B
:1005F000B11D3FBF6627782F892F9A2F620F711D7B
:10060000811D911D42E0660F771F881F991F4A9533
:10061000D1F70895CF92DF92EF92FF92CF93DF93BD
:100620006B017C010E94E702EB01C114D104E104DB
:10063000F10479F00E94E7026C1B7D0B683E734069
:10064000A0F381E0C81AD108E108F108C851DC4FD5
:10065000ECCFDF91CF91FF90EF90DF90CF90089596
:10066000789484B5826084BD84B5816084BD85B58D
:10067000826085BD85B5816085BDEEE6F0E0808154
:1006800081608083E1E8F0E0108280818260808375
:10069000808181608083E0E8F0E0808181608083F8
:1006A000E1EBF0E0808184608083E0EBF0E080812A
:1006B00081608083EAE7F0E08081846080838081CC
:1006C0008260808380818160808380818068808374
:1006D0001092C10008958E3008F08E5087702091DE
:1006E0000E0190E4299F90011124822B80937C00BD
:1006F00080917A00806480937A0080917A0086FDF0
:10070000FCCF809178002091790090E0922B0895A1
:10071000833081F028F4813099F08230A1F008957F
:100720008630A9F08730B9F08430D1F48091800010
:100730008F7D03C0809180008F7780938000089523
:1007400084B58F7702C084B58F7D84BD0895809174
:10075000B0008F7703C08091B0008F7D8093B00090
:100760000895CF93DF9390E0FC01E458FF4F24916C
:10077000FC01E057FF4F8491882349F190E0880FF6
:10078000991FFC01E854FF4FA591B49182559F4FEA
:10079000FC01C591D4919FB7611108C0F8948C9168
:1007A000209582238C93888182230AC0623051F481
:1007B000F8948C91322F309583238C938881822BEF
:1007C000888304C0F8948C91822B8C939FBFDF9117
:1007D000CF9108950F931F93CF93DF931F92CDB7BF
:1007E000DEB7282F30E0F901E859FF4F8491F90175
:1007F000E458FF4F1491F901E057FF4F0491002393
:10080000C9F0882321F069830E9488036981E02F61
:10081000F0E0EE0FFF1FE255FF4FA591B4919FB797
:10082000F8948C91611103C01095812301C0812B34
:100830008C939FBF0F90DF91CF911F910F910895DF
:10084000CF93DF93282F30E0F901E859FF4F8491CF
:10085000F901E458FF4FD491F901E057FF4FC491DB
:10086000CC2391F081110E948803EC2FF0E0EE0F71
:10087000FF1FEC55FF4FA591B4912C912D2381E0E2
:1008800090E021F480E002C080E090E0DF91CF9121
:100890000895CF92DF92EF92FF920F931F93CF9321
:1008A000DF936C017A01EB01E60EF71E00E010E029
:1008B000CE15DF0561F06991D601ED91FC910190B3
:1008C000F081E02DC6010995080F191FF1CFC8016D
:1008D000DF91CF911F910F91FF90EF90DF90CF901C
:1008E00008956115710581F0DB010D900020E9F795
:1008F000AD0141505109461B570BDC01ED91FC91B4
:100900000280F381E02D099480E090E008950C943A
:100910007104DC01ED91FC910190F081E02D0994CE
:100920000F931F93CF93DF93EC016DE00E94890436
:100930008C016AE0CE010E948904800F911FDF9133
:10094000CF911F910F9108958F929F92AF92BF9276
:10095000CF92DF92EF92FF920F931F93CF93DF938B
:10096000CDB7DEB7A1970FB6F894DEBF0FBECDBFEF
:100970007C01C42EE52FCB01D22E19A221E02D152A
:1009800010F02AE0D22E8E010F5D1F4F8D2C912C7E
:10099000A12CB12C6C2D7E2FA50194010E94720A0E
:1009A0008C2DD29E80191124015011098A3014F423
:1009B000805D01C0895CF801808321153105410506
:1009C000510521F0C22EE32FCA01E4CFB801C701BF
:1009D0000E947104A1960FB6F894DEBF0FBECDBF82
:1009E000DF91CF911F910F91FF90EF90DF90CF900B
:1009F000BF90AF909F908F900895CF92DF92EF922B
:100A0000FF920F931F93CF93DF93EC016A017B0159
:100A10002115310579F4E881F9810190F081E02D0B
:100A2000642FDF91CF911F910F91FF90EF90DF9096
:100A3000CF9009942A303105E9F477FF1AC06DE2AE
:100A40000E9489048C0144275527BA014C195D097D
:100A50006E097F092AE0CE010E94A404800F911F35
:100A6000DF91CF911F910F91FF90EF90DF90CF908A
:100A700008952AE0B701A601CE01DF91CF911F9121
:100A80000F91FF90EF90DF90CF900C94A4040F9300
:100A90001F93CF93DF93EC019A01AB01662757FDBB
:100AA0006095762F0E94FD048C01CE010E94900477
:100AB000800F911FDF91CF911F910F9108954F9259
:100AC0005F926F927F928F929F92AF92BF92CF92DE
:100AD000DF92EF92FF920F931F93CF93DF93EC017E
:100AE0006A017B01B22E9A01AB01C701B6010E94D7
:100AF0006E0A882319F061E272E027C026013701EF
:100B0000E89477F82FEF3FEF4FE75FE7C301B201BB
:100B10000E946E0A81110DC02FEF3FEF4FE75FE794
:100B2000C301B2010E94B80818161CF465E272E015
:100B30000CC02FEF3FEF4FE75FE4C701B6010E9403
:100B4000070A1816ACF469E272E0CE01DF91CF918A
:100B50001F910F91FF90EF90DF90CF90BF90AF90DB
:100B60009F908F907F906F905F904F900C94710446
:100B70002FEF3FEF4FE75FECC701B6010E94B808C7
:100B800087FDE1CF20E030E0A901C701B6010E9456
:100B9000B80887FF0AC06DE2CE010E9489048C016B
:100BA000F7FAF094F7F8F09402C000E010E0A12CFE
:100BB00060E070E080E09FE3AB1441F020E030E0C3
:100BC00040E251E40E94BC08A394F6CF9B01AC0123
:100BD000C701B6010E9454086B017C010E942909DB
:100BE0002B013C010E9455099B01AC01C701B601D4
:100BF0000E9453086B017C012AE0B301A201CE01DF
:100C00000E94A404080F191FBB2039F06DE272E0A6
:100C1000CE010E947104080F191F7B2C772041F12F
:100C200020E030E040E251E4C701B6010E940B0A27
:100C30006B017C010E9424094B01AA2497FCA0941B
:100C4000BA2C2AE030E0B501A401CE010E94FD04D7
:100C5000080F191FC501B4010E9457099B01AC017F
:100C6000C701B6010E9453086B017C017A94D6CF6C
:100C7000C801DF91CF911F910F91FF90EF90DF900E
:100C8000CF90BF90AF909F908F907F906F905F902C
:100C90004F9008950F931F93CF93DF93EC010E9421
:100CA0005F058C01CE010E949004800F911FDF919F
:100CB000CF911F910F9108950E9430030E94A801C7
:100CC000C5E3D7E00E940F022097E1F30E943507A9
:100CD000F9CFFC0124853585F901E05CFF4F808167
:100CE0009181329620813181821B930B8F739927DA
:100CF0000895FC0184859585FC01E05CFF4F4081EF
:100D000051813296208131814217530741F0019081
:100D1000F081E02DE80FF91F808190E008958FEFBA
:100D20009FEF0895FC0184859585FC01E05CFF4FF1
:100D3000408151813296208131814217530779F0E9
:100D4000A081B181A80FB91F8C91208131812F5FC3
:100D50003F4F2F7333273183208390E008958FEF27
:100D60009FEF0895FC0181A1882329F0A489B5890A
:100D70008C9186FFFBCF11A20895CF93DF93FC01E6
:100D800026853785D901A05CBF4F8D919C91119725
:100D900001968F739927E901CE5BDF4F4881598116
:100DA00084179507D9F30D90BC91A02DA20FB31F06
:100DB0006C93A685B785A05CBF4F11969C938E93CC
:100DC000A689B7892C9181E090E0078C02C0880F3A
:100DD000991F0A94E2F7282B2C9381E081A30488C1
:100DE000F589E02D80818064808381E090E0DF914F
:100DF000CF91089508951F920F920FB60F9211246C
:100E00002F933F934F938F939F93EF93FF938091F3
:100E1000C00082FD1CC04091C6008091F6029091F6
:100E2000F70201968F7399272091F8023091F90209
:100E30008217930771F0E091F602F091F702EA54FD
:100E4000FD4F40839093F7028093F60202C0809199
:100E5000C600FF91EF919F918F914F913F912F91FC
:100E60000F900FBE0F901F90189580E592E00E94A2
:100E70006906892B11F00C94FA0608951F920F92BF
:100E80000FB60F9211242F933F938F939F93EF935D
:100E9000FF932091B2023091B3028091B4029091FD
:100EA000B5022817390731F48091C1008F7D8093F6
:100EB000C10014C0E091B402F091B502EE58FD4FAC
:100EC00020818091B4029091B50201968F73992789
:100ED0009093B5028093B4022093C600FF91EF91E6
:100EE0009F918F913F912F910F900FBE0F901F9068
:100EF0001895CF92DF92EF92FF92CF93DF93EC01A0
:100F00006A017B01411581EE580761057105F9F011
:100F1000EC89FD8981E090E008A002C0880F991F4C
:100F20000A94E2F7808360E079E08DE390E0A70126
:100F300096010E94720A21503109410951095695C2
:100F4000479537952795211580E1380798F0EC896A
:100F5000FD89108260E874E88EE190E0A7019601B7
:100F60000E94720A2150310941095109569547954D
:100F700037952795E889F9893083EA89FB892083A9
:100F800019A2EE89FF89408181E090E09C010C8CE0
:100F900002C0220F331F0A94E2F7422B4083EE89EE
:100FA000FF8940819C010D8C02C0220F331F0A94DF
:100FB000E2F7422B4083EE89FF8940819C010E8C31
:100FC00002C0220F331F0A94E2F7422B4083EE89BE
:100FD000FF8920810F8C02C0880F991F0A94E2F7C5
:100FE000809582238083DF91CF91FF90EF90DF90F7
:100FF000CF900895109253021092520288EE93E01F
:10100000A0E0B0E08093540290935502A093560262
:10101000B093570283E392E0909351028093500281
:1010200086EB92E090935D0280935C0282E792E00F
:1010300090935F0280935E0285EC90E09093610252
:101040008093600284EC90E090936302809362024C
:1010500080EC90E0909365028093640281EC90E0D4
:10106000909367028093660282EC90E0909369020D
:101070008093680286EC90E090936B0280936A0202
:1010800084E080936C0283E080936D0287E080931C
:101090006E0285E080936F0281E080937002089574
:1010A000F8940C949A0A5058BB27AA270ED075C101
:1010B00066D130F06BD120F031F49F3F11F41EF473
:1010C0005BC10EF4E095E7FB51C1E92F77D180F3C6
:1010D000BA17620773078407950718F071F49EF535
:1010E0008FC10EF4E0950B2EBA2FA02D0B01B90184
:1010F00090010C01CA01A0011124FF27591B99F08E
:10110000593F50F4503E68F11A16F040A22F232F99
:10111000342F4427585FF3CF469537952795A795E9
:10112000F0405395C9F77EF41F16BA0B620B730B90
:10113000840BBAF09150A1F0FF0FBB1F661F771F01
:10114000881FC2F70EC0BA0F621F731F841F48F4B6
:10115000879577956795B795F7959E3F08F0B3CF3C
:101160009395880F08F09927EE0F97958795089526
:10117000D9D008F481E008950CD00FC107D140F018
:10118000FED030F021F45F3F19F0F0C0511139C1A9
:10119000F3C014D198F39923C9F35523B1F3951BE8
:1011A000550BBB27AA2762177307840738F09F5F88
:1011B0005F4F220F331F441FAA1FA9F333D00E2EF7
:1011C0003AF0E0E830D091505040E695001CCAF764
:1011D00029D0FE2F27D0660F771F881FBB1F261729
:1011E00037074807AB07B0E809F0BB0B802DBF01FC
:1011F000FF2793585F4F2AF09E3F510568F0B6C015
:1012000000C15F3FECF3983EDCF3869577956795D8
:10121000B795F7959F5FC9F7880F911D96958795AC
:1012200097F90895E1E0660F771F881FBB1F6217CB
:1012300073078407BA0720F0621B730B840BBA0B89
:10124000EE1F88F7E095089504D06894B111D9C0D5
:101250000895BCD088F09F5790F0B92F9927B751C7
:10126000A0F0D1F0660F771F881F991F1AF0BA956A
:10127000C9F712C0B13081F0C3D0B1E00895C0C049
:10128000672F782F8827B85F39F0B93FCCF3869560
:1012900077956795B395D9F73EF4909580957095BD
:1012A00061957F4F8F4F9F4F0895E89409C097FB3A
:1012B0003EF490958095709561957F4F8F4F9F4F2D
:1012C0009923A9F0F92F96E9BB279395F695879571
:1012D00077956795B795F111F8CFFAF4BB0F11F434
:1012E00060FF1BC06F5F7F4F8F4F9F4F16C08823DB
:1012F00011F096E911C0772321F09EE8872F762F11
:1013000005C0662371F096E8862F70E060E02AF051
:101310009A95660F771F881FDAF7880F969587953D
:1013200097F90895990F0008550FAA0BE0E8FEEF12
:1013300016161706E807F907C0F012161306E40799
:10134000F50798F0621B730B840B950B39F40A2692
:1013500061F0232B242B252B21F408950A2609F470
:10136000A140A6958FEF811D811D089597F99F6774
:1013700080E870E060E008959FEF80EC089500241D
:101380000A941616170618060906089500240A94EA
:1013900012161306140605060895092E0394000C70
:1013A00011F4882352F0BB0F40F4BF2B11F460FFFF
:1013B00004C06F5F7F4F8F4F9F4F089557FD905828
:1013C000440F551F59F05F3F71F04795880F97FB09
:1013D000991F61F09F3F79F08795089512161306C3
:1013E0001406551FF2CF4695F1DF08C016161706F2
:1013F0001806991FF1CF8695710561050894089527
:10140000E894BB2766277727CB0197F908958ADFF1
:1014100008F48FEF08950BD0C0CFB1DF28F0B6DF0E
:1014200018F0952309F0A2CFA7CF1124EACFC6DF89
:10143000A0F3959FD1F3950F50E0551F629FF001E7
:10144000729FBB27F00DB11D639FAA27F00DB11D40
:10145000AA1F649F6627B00DA11D661F829F2227C9
:10146000B00DA11D621F739FB00DA11D621F839F50
:10147000A00D611D221F749F3327A00D611D231F26
:10148000849F600D211D822F762F6A2F11249F5774
:1014900050408AF0E1F088234AF0EE0FFF1FBB1F97
:1014A000661F771F881F91505040A9F79E3F510536
:1014B00070F05CCFA6CF5F3FECF3983EDCF38695EF
:1014C00077956795B795F795E7959F5FC1F7FE2BE1
:1014D000880F911D9695879597F9089523DF880BBE
:1014E000990B0895A1E21A2EAA1BBB1BFD010DC08A
:1014F000AA1FBB1FEE1FFF1FA217B307E407F507C4
:1015000020F0A21BB30BE40BF50B661F771F881F9F
:10151000991F1A9469F760957095809590959B0135
:10152000AC01BD01CF010895EE0FFF1F0590F491AE
:08153000E02D0994F894FFCFAF
:101538000000A04066661241070004000200014155
:101548006E616C6F67496E5461626C655B4368617C
:101558006E6E656C5D3A200076616C756541443A43
:1015680020006D756C7469706C6965723A20616EE3
:10157800616C6F67203E206469676974616C3A200A
:101588000053656E736F72416E616C6F67202876C9
:10159800616C75654154202A20286D756C746970DA
:1015A8006C6965722F3130323329293A20005A6527
:1015B8006E657220566F6C746167653A20004361EE
:1015C8006C63756C617465642042617474657279CA
:1015D80020566F6C74616765202853656E736F724F
:1015E800416E616C6F67202B207A656E6572293AAF
:1015F800200050696E2034202F2042617474657277
:101608007920436861726765722028486967682095
:101618003D20636861726765293A200050696E2031
:1016280037202F20526173706920706F77657220A0
:10163800284C6F77203D20706F776572206F6E2978
:101648003A20000E000F00100011001200130014C1
:10165800006E616E00696E66006F7666002E00008F
:10166800000000BD064904690692067906B2060024
:00000001FF
